:100000000C9463000C94C1030C94EE030C948B00CD
:100010000C948B000C948B000C948B000C948B0034
:100020000C948B000C948B000C948B000C94E002CD
:100030000C948B000C948B000C948B000C948B0014
:100040000C941B040C948B000C94B1050C94FF05CC
:100050000C948B000C948B000C948B000C948B00F4
:100060000C948B000C948B000000000024002700EF
:100070002A0000000000250028002B0000000000DE
:1000800023002600290004040404040404040202DA
:100090000202020203030303030301020408102007
:1000A0004080010204081020010204081020000012
:1000B0000007000201000003040600000000000029
:1000C00000009A006B0711241FBECFEFD8E0DEBFFF
:1000D000CDBF11E0A0E0B1E0E0EFF9E102C0059092
:1000E0000D92A434B107D9F712E0A4E4B1E001C045
:1000F0001D92A933B107E1F710E0C6ECD0E004C0CF
:100100002297FE010E94F20CC23CD107C9F70E945F
:10011000C1070C94F60C0C9400008091460190915C
:1001200047010196909347018093460181E08093B7
:100130004801089589E591E00E949C010895AF92DD
:10014000BF92CF92DF92EF92FF920F931F9389E5B8
:1001500091E06DE370E00E94F20164E670E080E0FF
:1001600090E00E948904809144019091450101969C
:10017000909345018093440180914801882309F4BC
:1001800096C00E9463047B018C0160934D017093C3
:100190004E0180934F0190935001809149019091BD
:1001A0004A01A0914B01B0914C01E81AF90A0A0BDF
:1001B0001B0BE0925101F0925201009353011093F6
:1001C00054016091460170914701882777FD809521
:1001D000982F0E94460B20E034E244E759E40E9445
:1001E000FA0B5B016C01C801B7010E94440B9B0133
:1001F000AC01C601B5010E94AB0A60935501709332
:10020000560180935701909358011092480187E15D
:1002100092E060E071E00E94FC08609146017091FC
:10022000470187E192E04AE050E00E94E90887E157
:1002300092E067E071E00E94FC084091510150910A
:100240005201609153017091540187E192E02AE0DC
:1002500030E00E949A0887E192E067E071E00E9436
:10026000FC084091550150915601609157017091E1
:10027000580187E192E022E030E00E94E30987E143
:1002800092E00E94FA071092470110924601809175
:100290004D0190914E01A0914F01B091500180937A
:1002A000490190934A01A0934B01B0934C0187E11F
:1002B00092E00E94FA071F910F91FF90EF90DF905C
:1002C000CF90BF90AF9008951F9382E061E00E94AD
:1002D0001D0589E591E062E070E00E94D90289E5A0
:1002E00091E062E370E00E94F2018EE060E00E9423
:1002F0001D0510E0812F60E00E945C051F5F1A3031
:10030000C9F788E060E00E941D0588E06DE870E0B4
:1003100041E050E00E949E0387E192E040E855E210
:1003200060E070E00E943A0687E192E069E071E0E7
:100330000E94E6091F910895FC0180915C018C30B8
:1003400090F480838F5F80935C01815090E0FC018A
:10035000EE0FFF1FE80FF91FE35AFE4F88EB9BE0FB
:100360009283818308958FEF80830895FC0120811B
:100370002C30B8F58181992787FD909548E850E0A9
:10038000481B590B440F551F440F551F6417750721
:1003900084F08281992787FD909548E552E0481BBB
:1003A000590B440F551F440F551F641775070CF464
:1003B000AB0142505040CA01AA2797FDA095BA2F21
:1003C000880F991FAA1FBB1F4FB7F89430E0F9019F
:1003D000EE0FFF1FE20FF31FE35AFE4F928381835C
:1003E0004FBF0895AF92BF92CF92DF92EF92FF92EC
:1003F0000F931F93CF93DF93EC019B0182E0603258
:1004000078070CF048C077FF03C020E030E005C05B
:10041000653B710514F024EB30E000D000D0B90149
:10042000882777FD8095982F2981332727FD3095E0
:10043000E8E8AE2EB12CA21AB30AAA0CBB1CAA0C77
:10044000BB1CCC24B7FCC094DC2CEA81FF27E7FD61
:10045000F09528E532E02E1B3F0B220F331F220FB1
:10046000331F442737FD4095542FEDB7FEB7218346
:1004700032834383548320E030E040E050E004EBDB
:10048000E02EF12C012D112D0E94F9099B010F90F6
:100490000F900F900F90CE01B9010E94B601DF912D
:1004A000CF911F910F91FF90EF90DF90CF90BF9071
:1004B000AF900895CF92DF92EF92FF921F93CF9368
:1004C000DF93EC01162F7A01690188818C3008F0E6
:1004D00064C0862F61E00E941D05888190E0FC01C8
:1004E000EE0FFF1FE80FF91FE35AFE4F1F738081C5
:1004F000807C812B808380E292E08E199F0964E0EA
:1005000070E00E948C0C698380E699E08C199D094B
:1005100064E070E00E948C0C6A83A8818A2F6CE0F2
:100520000E94800C682F70E0AB01440F551F460FEE
:10053000571F440F551F440F551F20E030E0C901DD
:10054000840F951FFC01EE0FFF1FE80FF91FE35A00
:10055000FE4F808186FD15C02F5F3F4F2C30310547
:1005600071F724C01092800082E080938100109285
:10057000850010928400B19A80916F008260809310
:100580006F008A2F90E0FC01EE0FFF1FE80FF91FAC
:10059000E35AFE4F8081806480838881DF91CF9110
:1005A0001F91FF90EF90DF90CF900895672BD1F2CD
:1005B000E8CF40E252E020E639E00E945A02089576
:1005C0001F920F920FB60F9211242F933F934F93C8
:1005D0005F936F937F938F939F93AF93BF93EF93AB
:1005E000FF938091810187FF05C0109285001092D2
:1005F00084002BC020918101332727FD3095809105
:100600005C0190E02817390704F580918101992752
:1006100087FD9095FC01EE0FFF1FE80FF91FE35ACD
:10062000FE4F808186FF11C080918101992787FD4F
:100630009095FC01EE0FFF1FE80FF91FE35AFE4FE4
:1006400080818F7360E00E945C05809181018F5FE3
:100650008093810120918101332727FD309580917E
:100660005C0190E0281739070CF04EC080918101A1
:100670008C300CF049C0209184003091850080912D
:100680008101992787FD9095FC01EE0FFF1FE80F70
:10069000F91FE35AFE4F81819281280F391F309351
:1006A00089002093880080918101992787FD90958A
:1006B000FC01EE0FFF1FE80FF91FE35AFE4F808188
:1006C00086FF2BC080918101992787FD9095FC01C1
:1006D000EE0FFF1FE80FF91FE35AFE4F80818F7363
:1006E00061E00E945C0519C080E49CE905C080912E
:1006F00084009091850004969093890080938800EF
:100700008FEF8093810109C08091840090918500D2
:10071000049680549C4940F3EACFFF91EF91BF913A
:10072000AF919F918F917F916F915F914F913F9189
:100730002F910F900FBE0F901F901895823000F5EB
:10074000E82FF0E0EE0FFF1FEE57FE4F718360833E
:10075000882319F08130A1F408C0809169008C7F52
:10076000842B80936900E89A089580916900440F72
:10077000551F440F551F837F842B80936900E99A8E
:1007800008951F920F920FB60F9211242F933F934B
:100790004F935F936F937F938F939F93AF93BF9389
:1007A000EF93FF938091820190918301892B29F02F
:1007B000E0918201F09183010995FF91EF91BF9142
:1007C000AF919F918F917F916F915F914F913F91E9
:1007D0002F910F900FBE0F901F9018951F920F92A0
:1007E0000FB60F9211242F933F934F935F936F9304
:1007F0007F938F939F93AF93BF93EF93FF938091DA
:10080000840190918501892B29F0E0918401F09178
:1008100085010995FF91EF91BF91AF919F918F91C4
:100820007F916F915F914F913F912F910F900FBEEC
:100830000F901F9018951F920F920FB60F921124D0
:100840002F933F938F939F93AF93BF9380918A0190
:1008500090918B01A0918C01B0918D0130918E010E
:100860000196A11DB11D232F2D5F2D3720F02D578F
:100870000196A11DB11D20938E0180938A01909352
:100880008B01A0938C01B0938D0180918601909192
:100890008701A0918801B09189010196A11DB11D28
:1008A0008093860190938701A0938801B09389017A
:1008B000BF91AF919F918F913F912F910F900FBE5C
:1008C0000F901F9018959FB7F89420918601309152
:1008D0008701409188015091890186B5A89B06C087
:1008E0008F3F21F02F5F3F4F4F4F5F4F9FBF542FE0
:1008F000432F322F2227280F311D411D511D82E029
:10090000220F331F441F551F8A95D1F7B901CA0121
:1009100008959B01AC017FB7F89480918601909176
:100920008701A0918801B091890166B5A89B05C097
:100930006F3F19F00196A11DB11D7FBFBA2FA92FDE
:10094000982F8827860F911DA11DB11D62E0880F89
:10095000991FAA1FBB1F6A95D1F7BC012DC0FFB715
:10096000F8948091860190918701A0918801B091BF
:100970008901E6B5A89B05C0EF3F19F00196A11DBE
:10098000B11DFFBFBA2FA92F982F88278E0F911D59
:10099000A11DB11DE2E0880F991FAA1FBB1FEA9598
:1009A000D1F7861B970B885E9340C8F221503040E8
:1009B0004040504068517C4F21153105410551059B
:1009C00071F60895789484B5826084BD84B58160A1
:1009D00084BD85B5826085BD85B5816085BDEEE647
:1009E000F0E0808181608083E1E8F0E01082808126
:1009F00082608083808181608083E0E8F0E0808194
:100A000081608083E1EBF0E0808184608083E0EBB3
:100A1000F0E0808181608083EAE7F0E0808184609B
:100A200080838081826080838081816080838081F7
:100A3000806880831092C1000895CF93DF93482F80
:100A400050E0CA0186569F4FFC0134914A575F4FD0
:100A5000FA018491882369F190E0880F991FFC01C5
:100A6000E859FF4FA591B491FC01EE58FF4FC59195
:100A7000D491662351F42FB7F8948C91932F9095CD
:100A800089238C93888189230BC0623061F42FB74E
:100A9000F8948C91932F909589238C938881832B44
:100AA00088832FBF06C09FB7F8948C91832B8C93BB
:100AB0009FBFDF91CF910895482F50E0CA01825522
:100AC0009F4FFC012491CA0186569F4FFC019491CF
:100AD0004A575F4FFA013491332309F440C022236F
:100AE00051F1233071F0243028F42130A1F022306C
:100AF00011F514C02630B1F02730C1F02430D9F4FC
:100B000004C0809180008F7703C0809180008F7D2A
:100B10008093800010C084B58F7702C084B58F7D2C
:100B200084BD09C08091B0008F7703C08091B00070
:100B30008F7D8093B000E32FF0E0EE0FFF1FEE58A3
:100B4000FF4FA591B4912FB7F894662321F48C91AF
:100B50009095892302C08C91892B8C932FBF089587
:100B600008951F920F920FB60F9211242F933F9367
:100B70004F938F939F93EF93FF938091C00082FDDB
:100B80001DC04091C6002091CF013091D0012F5F50
:100B90003F4F2F7330708091D1019091D20128176F
:100BA000390771F0E091CF01F091D001E157FE4F8C
:100BB00040833093D0012093CF0102C08091C600C2
:100BC000FF91EF919F918F914F913F912F910F90B6
:100BD0000FBE0F901F901895E0912302F091240210
:100BE000E05CFF4F8191919120813181821B930BB9
:100BF0008F739070892B11F00E94B00508951F9299
:100C00000F920FB60F9211242F933F938F939F93C0
:100C1000EF93FF93209113023091140280911502FB
:100C2000909116022817390731F48091C1008F7D09
:100C30008093C10014C0E0911502F0911602ED52AC
:100C4000FE4F2081809115029091160201968F73BC
:100C5000907090931602809315022093C600FF9126
:100C6000EF919F918F913F912F910F900FBE0F9019
:100C70001F901895AF92BF92DF92EF92FF920F9361
:100C80001F93CF93DF93EC017A018B01DD24403079
:100C900081EE580780E0680780E0780711F0DD24D6
:100CA000D39491E0A92EB12CEC89FD89DD2069F067
:100CB000C50108A002C0880F991F0A94E2F780833B
:100CC00060E079E08DE390E005C0108260E874E8B0
:100CD0008EE190E0A80197010E949F0C21503040C6
:100CE00040405040569547953795279580E12030F4
:100CF000380720F0DD2011F0DD24D6CFE889F9890E
:100D00003083EA89FB89208319A2EE89FF8940811B
:100D100021E030E0C9010C8C02C0880F991F0A94B1
:100D2000E2F7482B4083EE89FF894081C9010D8C91
:100D300002C0880F991F0A94E2F7482B4083EE897E
:100D4000FF894081C9010E8C02C0880F991F0A9447
:100D5000E2F7482B4083EE89FF8980810F8C02C027
:100D6000220F331F0A94E2F7209528232083DF9176
:100D7000CF911F910F91FF90EF90DF90BF90AF90B8
:100D80000895DC011C96ED91FC911D97E05CFF4FEE
:100D90002191319180819181281B390B2F73307003
:100DA000C9010895DC011C96ED91FC911D97E05C52
:100DB000FF4F20813181E054F040DF01AE5BBF4F37
:100DC0008D919C9111972817390719F42FEF3FEF58
:100DD00007C08D919C91E80FF91F8081282F30E08A
:100DE000C9010895DC011C96ED91FC911D97E05C12
:100DF000FF4F20813181E054F040DF01AE5BBF4FF7
:100E00008D919C9111972817390719F42FEF3FEF17
:100E100010C08D919C911197E80FF91F20818D9141
:100E20009C91119701968F73907011969C938E935D
:100E300030E0C9010895DC0191968C919197882347
:100E400039F05496ED91FC915597808186FFF9CF4A
:100E500091961C920895CF93DF93EC01EE85FF8568
:100E6000E05CFF4F20813181E054F0402F5F3F4F25
:100E70002F733070DF01AE5BBF4F8D919C91119746
:100E800028173907D1F3E05CFF4F80819181E0544E
:100E9000F040E80FF91F6083EE85FF85E05CFF4FAF
:100EA00031832083EE89FF89208181E090E00F8CDF
:100EB00002C0880F991F0A94E2F7282B208381E053
:100EC00089A3EC89FD8980818064808381E090E042
:100ED000DF91CF91089510921A021092190288EEB4
:100EE00093E0A0E0B0E080931B0290931C02A093DB
:100EF0001D02B0931E0287E391E090931802809345
:100F000017028FE891E0909324028093230283EDEF
:100F100091E0909326028093250285EC90E09093D7
:100F200028028093270284EC90E090932A02809319
:100F3000290280EC90E090932C0280932B0281ECAC
:100F400090E090932E0280932D0282EC90E090939B
:100F5000300280932F0286EC90E0909332028093CF
:100F6000310284E08093330283E08093340287E08F
:100F70008093350285E08093360281E080933702CA
:100F80000895CF93DF930E94E2040E946401CCEEA7
:100F9000D5E00E949F002097E1F30E94EC05F9CF75
:100FA000CF92DF92EF92FF920F931F93CF93DF9335
:100FB0007C016B018A01C0E0D0E00FC0D6016D91C9
:100FC0006D01D701ED91FC910190F081E02DC701F9
:100FD0000995C80FD91F015010400115110571F76F
:100FE000CE01DF91CF911F910F91FF90EF90DF9095
:100FF000CF900895EF92FF920F931F938C01DC0125
:10100000ED91FC910190F081E02D6DE009957C015E
:10101000D801ED91FC910190F081E02DC8016AE0CA
:1010200009959C012E0D3F1DC9011F910F91FF9045
:10103000EF900895CF93DF93EC016115710519F4DA
:1010400020E030E00FC0DB010D900020E9F71197A0
:10105000A61BB70BE881F9810280F381E02DAD0179
:1010600009959C01C901DF91CF9108954F925F923C
:101070007F928F929F92AF92BF92CF92DF92EF9228
:10108000FF920F931F93DF93CF93CDB7DEB7A19756
:101090000FB6F894DEBF0FBECDBF2C01742ECB016E
:1010A000223008F42AE019A231E2C32ED12CCC0E52
:1010B000DD1E822E9924AA24BB24672D752FA5013D
:1010C00094010E949F0C79018A01C801B701A50112
:1010D00094010E94610C472D461B0894C108D10859
:1010E0004A3014F4405D01C0495CF6014083E114CC
:1010F000F1040105110521F07E2C5F2DC801DDCF23
:10110000C201B6010E941A08A1960FB6F894DEBF7C
:101110000FBECDBFCF91DF911F910F91FF90EF9048
:10112000DF90CF90BF90AF909F908F907F905F9017
:101130004F900895DC012115310541F4ED91FC91AA
:101140000190F081E02D642F099508950E943608E2
:101150000895CF92DF92EF92FF920F931F93CF9358
:10116000DF93EC016A017B012115310541F4E8812F
:10117000F9810190F081E02D642F09951FC02A307C
:101180003105D1F477FF17C0E881F9810190F08132
:10119000E02D6DE209958C0144275527BA014C19C1
:1011A0005D096E097F09CE012AE00E943608980188
:1011B000280F391F04C02AE00E9436089C01C9018B
:1011C000DF91CF911F910F91FF90EF90DF90CF9023
:1011D0000895EF92FF920F931F937B019A010027CE
:1011E000F7FC0095102FB801A7010E94A9081F91D4
:1011F0000F91FF90EF9008950E941A0808957F9232
:101200008F929F92AF92BF92CF92DF92EF92FF9216
:101210000F931F93CF93DF934C017A018B01722EB2
:10122000CB01BA01A80197010E945D0C882321F02F
:10123000C40165E271E021C0C0E0D0E0570168015F
:10124000E894D7F8C601B5012FEF3FEF4FE75FE70E
:101250000E945D0C882351F4C601B5012FEF3FEFCA
:101260004FE75FE70E94A70A181614F0C1E0D0E02C
:10127000219739F0C40169E271E00E941A08EC017B
:1012800093C0C801B7012FEF3FEF4FE75FE40E9423
:10129000F60B181654F0C801B7012FEF3FEF4FE7D8
:1012A0005FEC0E94A70A882324F4C4016DE271E078
:1012B000E4CFC801B70120E030E040E050E00E94F8
:1012C000A70A87FD03C0C0E0D0E00EC0D401ED91B5
:1012D000FC910190F081E02DC4016DE20995EC01D3
:1012E00017FB109517F9109520E030E040E05FE320
:1012F000DD240BC0CA01B90120E030E040E251E436
:101300000E94AB0A9B01AC01D394D71498F3C80197
:10131000B7010E94430A5B016C010E94180B7B011C
:101320008C01C401B801A7012AE030E00E949A08AC
:10133000C80FD91F772039F0C40161E371E00E9422
:101340001A08C80FD91FC801B7010E94440B9B019E
:10135000AC01C601B5010E94420A24C020E030E081
:1013600040E251E40E94FA0B7B018C010E94130BB6
:101370005B016C01CC24B7FCC094DC2CC401B60129
:10138000A5012AE030E00E94A908C80FD91FC601B4
:10139000B5010E94460B9B01AC01C801B7010E9438
:1013A000420A7A947720D1F6CE01DF91CF911F9136
:1013B0000F91FF90EF90DF90CF90BF90AF909F90F4
:1013C0008F907F9008950E94FF080895EF92FF92FA
:1013D0000F931F937C010E941A088C01C7010E9481
:1013E000FA07080F191FC8011F910F91FF90EF9086
:1013F00008952F923F924F925F926F927F928F92B9
:101400009F92AF92BF92CF92DF92EF92FF920F9393
:101410001F93DF93CF93CDB7DEB73B014C0119018A
:101420002A016D897E898F89988D6A197B098C09BB
:101430009D09621A730A840A950AA40193010E9405
:10144000610CE218F30804091509A80197010E942C
:10145000C10C2A0D3B1D4C1D5D1DB901CA01CF9168
:10146000DF911F910F91FF90EF90DF90CF90BF9091
:10147000AF909F908F907F906F905F904F903F9034
:101480002F9008955058BB27AA270ED075C166D15A
:1014900030F06BD120F031F49F3F11F41EF45BC1AA
:1014A0000EF4E095E7FB51C1E92F77D180F3BA172D
:1014B000620773078407950718F071F49EF58FC1D2
:1014C0000EF4E0950B2EBA2FA02D0B01B90190015F
:1014D0000C01CA01A0011124FF27591B99F0593FA3
:1014E00050F4503E68F11A16F040A22F232F342FEB
:1014F0004427585FF3CF469537952795A795F04039
:101500005395C9F77EF41F16BA0B620B730B840B4D
:10151000BAF09150A1F0FF0FBB1F661F771F881F05
:10152000C2F70EC0BA0F621F731F841F48F487955D
:1015300077956795B795F7959E3F08F0B3CF93954C
:10154000880F08F09927EE0F979587950895D9D0C1
:1015500008F481E008950CD00FC107D140F0FED00F
:1015600030F021F45F3F19F0F0C0511139C1F3C0E0
:1015700014D198F39923C9F35523B1F3951B550B57
:10158000BB27AA2762177307840738F09F5F5F4F56
:10159000220F331F441FAA1FA9F333D00E2E3AF097
:1015A000E0E830D091505040E695001CCAF729D0B1
:1015B000FE2F27D0660F771F881FBB1F2617370700
:1015C0004807AB07B0E809F0BB0B802DBF01FF2730
:1015D00093585F4F2AF09E3F510568F0B6C000C196
:1015E0005F3FECF3983EDCF3869577956795B7956A
:1015F000F7959F5FC9F7880F911D9695879597F985
:101600000895E1E0660F771F881FBB1F62177307FD
:101610008407BA0720F0621B730B840BBA0BEE1F12
:1016200088F7E095089504D06894B111D9C0089561
:10163000BCD088F09F5790F0B92F9927B751A0F0F0
:10164000D1F0660F771F881F991F1AF0BA95C9F756
:1016500012C0B13081F0C3D0B1E00895C0C0672F8F
:10166000782F8827B85F39F0B93FCCF38695779506
:101670006795B395D9F73EF49095809570956195EF
:101680007F4F8F4F9F4F0895E89409C097FB3EF41A
:1016900090958095709561957F4F8F4F9F4F9923BF
:1016A000A9F0F92F96E9BB279395F695879577953D
:1016B0006795B795F111F8CFFAF4BB0F11F460FFFD
:1016C0001BC06F5F7F4F8F4F9F4F16C0882311F055
:1016D00096E911C0772321F09EE8872F762F05C069
:1016E000662371F096E8862F70E060E02AF09A9504
:1016F000660F771F881FDAF7880F9695879597F9F9
:101700000895990F0008550FAA0BE0E8FEEF161692
:101710001706E807F907C0F012161306E407F507E5
:1017200098F0621B730B840B950B39F40A2661F059
:10173000232B242B252B21F408950A2609F4A140FC
:10174000A6958FEF811D811D089597F99F6780E809
:1017500070E060E008959FEF80EC089500240A9403
:101760001616170618060906089500240A9412167C
:101770001306140605060895092E0394000C11F4AF
:10178000882352F0BB0F40F4BF2B11F460FF04C05C
:101790006F5F7F4F8F4F9F4F089557FD9058440FB5
:1017A000551F59F05F3F71F04795880F97FB991FC0
:1017B00061F09F3F79F0879508951216130614067D
:1017C000551FF2CF4695F1DF08C01616170618060A
:1017D000991FF1CF86957105610508940895E894E5
:1017E000BB2766277727CB0197F908958ADF08F48E
:1017F0008FEF08950BD0C0CFB1DF28F0B6DF18F01F
:10180000952309F0A2CFA7CF1124EACFC6DFA0F31A
:10181000959FD1F3950F50E0551F629FF001729F85
:10182000BB27F00DB11D639FAA27F00DB11DAA1FA4
:10183000649F6627B00DA11D661F829F2227B00DF1
:10184000A11D621F739FB00DA11D621F839FA00D7C
:10185000611D221F749F3327A00D611D231F849FCC
:10186000600D211D822F762F6A2F11249F57504023
:101870008AF0E1F088234AF0EE0FFF1FBB1F661FBE
:10188000771F881F91505040A9F79E3F510570F077
:101890005CCFA6CF5F3FECF3983EDCF3869577955F
:1018A0006795B795F795E7959F5FC1F7FE2B880F72
:1018B000911D9695879597F9089523DF880B990BCD
:1018C0000895629FD001739FF001829FE00DF11D8A
:1018D000649FE00DF11D929FF00D839FF00D749FAA
:1018E000F00D659FF00D9927729FB00DE11DF91F56
:1018F000639FB00DE11DF91FBD01CF0111240895B3
:10190000991B79E004C0991F961708F0961B881F51
:101910007A95C9F78095089597FB092E07260AD076
:1019200077FD04D049D006D000201AF47095619557
:101930007F4F0895F6F7909581959F4F0895A1E206
:101940001A2EAA1BBB1BFD010DC0AA1FBB1FEE1F39
:10195000FF1FA217B307E407F50720F0A21BB30B84
:10196000E40BF50B661F771F881F991F1A9469F700
:1019700060957095809590959B01AC01BD01CF015C
:10198000089597FB092E05260ED057FD04D0D7DF0A
:101990000AD0001C38F450954095309521953F4F62
:1019A0004F4F5F4F0895F6F790958095709561952C
:1019B0007F4F8F4F9F4F0895AA1BBB1B51E107C05C
:1019C000AA1FBB1FA617B70710F0A61BB70B881FCF
:1019D000991F5A95A9F780959095BC01CD0108955E
:1019E000EE0FFF1F0590F491E02D0994F894FFCFBE
:1019F00070696E672120000900556E6F546573741D
:101A00002E7064652062792052616E6479204D6188
:101A1000636B6179006E616E00696E66006F766659
:101A2000002E00000000002B07D007C106F206D2EE
:041A3000061B07008A
:00000001FF
