:100000000C9463000C948B000C948B000C948B006C
:100010000C948B000C948B000C948B000C948B0034
:100020000C948B000C948B000C948B000C9490021D
:100030000C948B000C948B000C948B000C948B0014
:100040000C944E030C948B000C94C6040C94140571
:100050000C948B000C948B000C948B000C948B00F4
:100060000C948B000C948B000000000024002700EF
:100070002A0000000000250028002B0000000000DE
:1000800023002600290004040404040404040202DA
:100090000202020203030303030301020408102007
:1000A0004080010204081020010204081020000012
:1000B0000007000201000003040600000000000029
:1000C00000008D00800611241FBECFEFD8E0DEBFF8
:1000D000CDBF11E0A0E0B1E0E2EAF9E102C0059095
:1000E0000D92A033B107D9F712E0A0E3B1E001C04F
:1000F0001D92A332B107E1F710E0C6ECD0E004C0D6
:100100002297FE010E94CB0CC23CD107C9F70E9486
:10011000D6060C94CF0C0C94000085E391E00E946D
:100120004C010895EF92FF920F931F9381E092E0AC
:100130000E94CE09709339016093380161157105F1
:10014000A1F070931F0160931E0181E092E060E0D6
:1001500071E00E941D0860911E0170911F0181E0F5
:1001600092E04AE050E00E94FE0760911E0170910B
:100170001F0185E391E00E94A20188E00E947204C1
:100180009093310180933001892B21F481E0809399
:1001900034015EC080913401882309F459C08091F4
:1001A0003201909133010196909333018093320193
:1001B0000E94960360933E0170933F01809340013B
:1001C0009093410120913A0130913B0140913C01D3
:1001D00050913D017B018C01E21AF30A040B150BCF
:1001E000E0924201F09243010093440110934501D3
:1001F00060933A0170933B0180933C0190933D01E1
:10020000C801B7010E941D0B20E030E04AE754E42A
:100210000E94840A9B01AC0160E070E080E792E4F8
:100220000E94840A9B01AC01CB01DA018093460154
:1002300090934701A0934801B093490181E092E077
:10024000A901BD0122E030E00E94040910923401AE
:100250001F910F91FF90EF9008950F931F9381E0EE
:1002600092E040E855E260E070E00E944F0588E0CF
:1002700060E00E94DF031092340105E311E0C80141
:1002800062E070E00E948902C80162E370E00E94AF
:10029000A2011F910F910895FC0180914A018C30B9
:1002A00090F480838F5F80934A01815090E0FC013D
:1002B000EE0FFF1FE80FF91FE55BFE4F88EB9BE099
:1002C0009283818308958FEF80830895FC012081BC
:1002D0002C30B8F58181992787FD909548E850E04A
:1002E000481B590B440F551F440F551F64177507C2
:1002F00084F08281992787FD909548E552E0481B5C
:10030000590B440F551F440F551F641775070CF404
:10031000AB0142505040CA01AA2797FDA095BA2FC1
:10032000880F991FAA1FBB1F4FB7F89430E0F9013F
:10033000EE0FFF1FE20FF31FE55BFE4F92838183F9
:100340004FBF0895AF92BF92CF92DF92EF92FF928C
:100350000F931F93CF93DF93EC019B0182E06032F8
:1003600078070CF048C077FF03C020E030E005C0FC
:10037000653B710514F024EB30E000D000D0B901EA
:10038000882777FD8095982F2981332727FD309581
:10039000E8E8AE2EB12CA21AB30AAA0CBB1CAA0C18
:1003A000BB1CCC24B7FCC094DC2CEA81FF27E7FD02
:1003B000F09528E532E02E1B3F0B220F331F220F52
:1003C000331F442737FD4095542FEDB7FEB72183E7
:1003D00032834383548320E030E040E050E004EB7C
:1003E000E02EF12C012D112D0E94D2099B010F90BE
:1003F0000F900F900F90CE01B9010E946601DF911E
:10040000CF911F910F91FF90EF90DF90CF90BF9011
:10041000AF900895CF92DF92EF92FF921F93CF9308
:10042000DF93EC01162F7A01690188818C3008F086
:1004300064C0862F61E00E94DF03888190E0FC01A8
:10044000EE0FFF1FE80FF91FE55BFE4F1F73808162
:10045000807C812B808380E292E08E199F0964E08A
:1004600070E00E94650C698380E699E08C199D0913
:1004700064E070E00E94650C6A83A8818A2F6CE0BA
:100480000E94590C682F70E0AB01440F551F460FB6
:10049000571F440F551F440F551F20E030E0C9017E
:1004A000840F951FFC01EE0FFF1FE80FF91FE55B9E
:1004B000FE4F808186FD15C02F5F3F4F2C303105E8
:1004C00071F724C01092800082E080938100109226
:1004D000850010928400B19A80916F0082608093B1
:1004E0006F008A2F90E0FC01EE0FFF1FE80FF91F4D
:1004F000E55BFE4F8081806480838881DF91CF91AE
:100500001F91FF90EF90DF90CF900895672BD1F26D
:10051000E8CF40E252E020E639E00E940A02089566
:100520001F920F920FB60F9211242F933F934F9368
:100530005F936F937F938F939F93AF93BF93EF934B
:10054000FF9380916F0187FF05C010928500109284
:1005500084002BC020916F01332727FD30958091B7
:100560004A0190E02817390704F580916F01992717
:1005700087FD9095FC01EE0FFF1FE80FF91FE55B6B
:10058000FE4F808186FF11C080916F01992787FD02
:100590009095FC01EE0FFF1FE80FF91FE55BFE4F82
:1005A00080818F7360E00E941E0480916F018F5FD5
:1005B00080936F0120916F01332727FD3095809143
:1005C0004A0190E0281739070CF04EC080916F0166
:1005D0008C300CF049C020918400309185008091CE
:1005E0006F01992787FD9095FC01EE0FFF1FE80F23
:1005F000F91FE55BFE4F81819281280F391F3093EF
:1006000089002093880080916F01992787FD90953C
:10061000FC01EE0FFF1FE80FF91FE55BFE4F808125
:1006200086FF2BC080916F01992787FD9095FC0173
:10063000EE0FFF1FE80FF91FE55BFE4F80818F7300
:1006400061E00E941E0419C080E49CE905C080910D
:10065000840090918500049690938900809388008F
:100660008FEF80936F0109C0809184009091850085
:10067000049680549C4940F3EACFFF91EF91BF91DB
:10068000AF919F918F917F916F915F914F913F912A
:100690002F910F900FBE0F901F9018951F920F92E1
:1006A0000FB60F9211242F933F938F939F93AF9385
:1006B000BF938091740190917501A0917601B091E2
:1006C0007701309178010196A11DB11D232F2D5F77
:1006D0002D3720F02D570196A11DB11D20937801D3
:1006E0008093740190937501A0937601B093770184
:1006F0008091700190917101A0917201B09173018C
:100700000196A11DB11D8093700190937101A0937A
:100710007201B0937301BF91AF919F918F913F91FF
:100720002F910F900FBE0F901F9018958FB7F894D0
:1007300020917401309175014091760150917701BB
:100740008FBFB901CA010895789484B5826084BDD1
:1007500084B5816084BD85B5826085BD85B58160C5
:1007600085BDEEE6F0E0808181608083E1E8F0E025
:100770001082808182608083808181608083E0E854
:10078000F0E0808181608083E1EBF0E08081846033
:100790008083E0EBF0E0808181608083EAE7F0E035
:1007A0008081846080838081826080838081816099
:1007B00080838081806880831092C1000895CF93E8
:1007C000DF93482F50E0CA0186569F4FFC013491B9
:1007D0004A575F4FFA018491882369F190E0880FAE
:1007E000991FFC01E859FF4FA591B491FC01EE5807
:1007F000FF4FC591D491662351F42FB7F8948C9193
:10080000932F909589238C93888189230BC0623024
:1008100061F42FB7F8948C91932F909589238C9342
:100820008881832B88832FBF06C09FB7F8948C9153
:10083000832B8C939FBFDF91CF910895482F50E079
:10084000CA0182559F4FFC012491CA0186569F4FD1
:10085000FC0194914A575F4FFA013491332309F414
:1008600040C0222351F1233071F0243028F421308C
:10087000A1F0223011F514C02630B1F02730C1F0BC
:100880002430D9F404C0809180008F7703C0809118
:1008900080008F7D8093800010C084B58F7702C068
:1008A00084B58F7D84BD09C08091B0008F7703C06F
:1008B0008091B0008F7D8093B000E32FF0E0EE0FC9
:1008C000FF1FEE58FF4FA591B4912FB7F894662300
:1008D00021F48C919095892302C08C91892B8C9363
:1008E0002FBF0895682F70E0CB0182559F4FFC0108
:1008F0002491CB0186569F4FFC0144916A577F4F4C
:10090000FB019491992319F420E030E03CC02223AC
:1009100051F1233071F0243028F42130A1F022303D
:1009200011F514C02630B1F02730C1F02430D9F4CD
:1009300004C0809180008F7703C0809180008F7DFC
:100940008093800010C084B58F7702C084B58F7DFE
:1009500084BD09C08091B0008F7703C08091B00042
:100960008F7D8093B000892F90E0880F991F845865
:100970009F4FFC01A591B4918C9120E030E084233D
:1009800011F021E030E0C901089508951F920F92FF
:100990000FB60F9211242F933F934F938F939F93F2
:1009A000EF93FF938091C00082FD1DC04091C6006F
:1009B0002091B9013091BA012F5F3F4F2F733070F2
:1009C0008091BB019091BC012817390771F0E0912B
:1009D000B901F091BA01E758FE4F40833093BA0154
:1009E0002093B90102C08091C600FF91EF919F91C1
:1009F0008F914F913F912F910F900FBE0F901F90AD
:100A00001895E0910D02F0910E02E05CFF4F81918C
:100A1000919120813181821B930B8F739070892B70
:100A200011F00E94C50408951F920F920FB60F9205
:100A300011242F933F938F939F93EF93FF932091D4
:100A4000FD013091FE018091FF0190910002281775
:100A5000390731F48091C1008F7D8093C10014C0AB
:100A6000E091FF01F0910002E354FE4F208180915C
:100A7000FF019091000201968F7390709093000295
:100A80008093FF012093C600FF91EF919F918F917A
:100A90003F912F910F900FBE0F901F901895AF921E
:100AA000BF92DF92EF92FF920F931F93CF93DF934A
:100AB000EC017A018B01DD24403081EE580780E0A3
:100AC000680780E0780711F0DD24D39491E0A92E27
:100AD000B12CEC89FD89DD2069F0C50108A002C0B8
:100AE000880F991F0A94E2F7808360E079E08DE334
:100AF00090E005C0108260E874E88EE190E0A80103
:100B000097010E94780C215030404040504056954B
:100B100047953795279580E12030380720F0DD2074
:100B200011F0DD24D6CFE889F9893083EA89FB8981
:100B3000208319A2EE89FF89408121E030E0C901BC
:100B40000C8C02C0880F991F0A94E2F7482B40834F
:100B5000EE89FF894081C9010D8C02C0880F991F61
:100B60000A94E2F7482B4083EE89FF894081C9014E
:100B70000E8C02C0880F991F0A94E2F7482B40831D
:100B8000EE89FF8980810F8C02C0220F331F0A94E7
:100B9000E2F7209528232083DF91CF911F910F91B9
:100BA000FF90EF90DF90BF90AF900895DC011C960E
:100BB000ED91FC911D97E05CFF4F21913191808177
:100BC0009181281B390B2F733070C9010895DC0106
:100BD0001C96ED91FC911D97E05CFF4F20813181C7
:100BE000E054F040DF01AE5BBF4F8D919C911197B7
:100BF0002817390719F42FEF3FEF07C08D919C910B
:100C0000E80FF91F8081282F30E0C9010895DC0129
:100C10001C96ED91FC911D97E05CFF4F2081318186
:100C2000E054F040DF01AE5BBF4F8D919C91119776
:100C30002817390719F42FEF3FEF10C08D919C91C1
:100C40001197E80FF91F20818D919C9111970196C2
:100C50008F73907011969C938E9330E0C901089524
:100C6000DC0191968C919197882339F05496ED91FF
:100C7000FC915597808186FFF9CF91961C9208953B
:100C8000CF93DF93EC01EE85FF85E05CFF4F208181
:100C90003181E054F0402F5F3F4F2F733070DF0100
:100CA000AE5BBF4F8D919C91119728173907D1F3F7
:100CB000E05CFF4F80819181E054F040E80FF91F24
:100CC0006083EE85FF85E05CFF4F31832083EE89F2
:100CD000FF89208181E090E00F8C02C0880F991F6E
:100CE0000A94E2F7282B208381E089A3EC89FD890F
:100CF00080818064808381E090E0DF91CF910895CE
:100D0000109204021092030288EE93E0A0E0B0E09B
:100D10008093050290930602A0930702B093080205
:100D200084E291E0909302028093010289E791E0CE
:100D300090930E0280930D028DEB91E09093100240
:100D400080930F0285EC90E0909312028093110241
:100D500084EC90E0909314028093130280EC90E076
:100D6000909316028093150281EC90E09093180204
:100D70008093170282EC90E090931A0280931902FC
:100D800086EC90E090931C0280931B0284E0809399
:100D90001D0283E080931E0287E080931F0285E09E
:100DA0008093200281E0809321020895CF93DF9306
:100DB0000E94A4030E942D01C1E0D5E00E94920090
:100DC0002097E1F30E940105F9CFCF92DF92EF92D5
:100DD000FF920F931F93CF93DF937C016B018A01E6
:100DE000C0E0D0E00FC0D6016D916D01D701ED914B
:100DF000FC910190F081E02DC7010995C80FD91F22
:100E0000015010400115110571F7CE01DF91CF910E
:100E10001F910F91FF90EF90DF90CF900895EF9288
:100E2000FF920F931F938C01DC01ED91FC910190D7
:100E3000F081E02D6DE009957C01D801ED91FC91E8
:100E40000190F081E02DC8016AE009959C012E0D0A
:100E50003F1DC9011F910F91FF90EF900895CF930F
:100E6000DF93EC016115710519F420E030E00FC04B
:100E7000DB010D900020E9F71197A61BB70BE88165
:100E8000F9810280F381E02DAD0109959C01C90132
:100E9000DF91CF9108954F925F927F928F929F92B0
:100EA000AF92BF92CF92DF92EF92FF920F931F9378
:100EB000DF93CF93CDB7DEB7A1970FB6F894DEBF1F
:100EC0000FBECDBF2C01742ECB01223008F42AE0D6
:100ED00019A231E2C32ED12CCC0EDD1E822E992414
:100EE000AA24BB24672D752FA50194010E94780CBC
:100EF00079018A01C801B701A50194010E943A0C49
:100F0000472D461B0894C108D1084A3014F4405DAF
:100F100001C0495CF6014083E114F10401051105AB
:100F200021F07E2C5F2DC801DDCFC201B6010E94E9
:100F30002F07A1960FB6F894DEBF0FBECDBFCF919D
:100F4000DF911F910F91FF90EF90DF90CF90BF90B6
:100F5000AF909F908F907F905F904F900895DC01AD
:100F60002115310541F4ED91FC910190F081E02DC6
:100F7000642F099508950E944B070895CF92DF9240
:100F8000EF92FF920F931F93CF93DF93EC016A01CF
:100F90007B012115310541F4E881F9810190F0814F
:100FA000E02D642F09951FC02A303105D1F477FF59
:100FB00017C0E881F9810190F081E02D6DE209957B
:100FC0008C0144275527BA014C195D096E097F0928
:100FD000CE012AE00E944B079801280F391F04C058
:100FE0002AE00E944B079C01C901DF91CF911F911C
:100FF0000F91FF90EF90DF90CF900895CF92DF9206
:10100000EF92FF920F931F936C017B019A010027CF
:10101000F7FC0095102FB801A7010E94BE078C01B4
:10102000C6010E940F07080F191FC8011F910F91D9
:10103000FF90EF90DF90CF9008950E942F070895C2
:101040007F928F929F92AF92BF92CF92DF92EF9258
:10105000FF920F931F93CF93DF934C017A018B0183
:10106000722ECB01BA01A80197010E94360C882389
:1010700021F0C40160E171E021C0C0E0D0E057017F
:101080006801E894D7F8C601B5012FEF3FEF4FE7AD
:101090005FE70E94360C882351F4C601B5012FEF9B
:1010A0003FEF4FE75FE70E94800A181614F0C1E097
:1010B000D0E0219739F0C40164E171E00E942F076C
:1010C000EC0193C0C801B7012FEF3FEF4FE75FE49A
:1010D0000E94CF0B181654F0C801B7012FEF3FEF55
:1010E0004FE75FEC0E94800A882324F4C40168E182
:1010F00071E0E4CFC801B70120E030E040E050E00B
:101100000E94800A87FD03C0C0E0D0E00EC0D40179
:10111000ED91FC910190F081E02DC4016DE2099503
:10112000EC0117FB109517F9109520E030E040E036
:101130005FE3DD240BC0CA01B90120E030E040E2EA
:1011400051E40E94840A9B01AC01D394D71498F314
:10115000C801B7010E941C0A5B016C010E94F10AE0
:101160007B018C01C401B801A7012AE030E00E9494
:10117000AF07C80FD91F772039F0C4016CE171E0C7
:101180000E942F07C80FD91FC801B7010E941D0B6D
:101190009B01AC01C601B5010E941B0A24C020E0DE
:1011A00030E040E251E40E94D30B7B018C010E94AD
:1011B000EC0A5B016C01CC24B7FCC094DC2CC401AC
:1011C000B601A5012AE030E00E94BE07C80FD91F72
:1011D000C601B5010E941F0B9B01AC01C801B701FC
:1011E0000E941B0A7A947720D1F6CE01DF91CF912D
:1011F0001F910F91FF90EF90DF90CF90BF90AF9035
:101200009F908F907F900895EF92FF920F931F937E
:101210007C010E9420088C01C7010E940F07080F63
:10122000191FC8011F910F91FF90EF900895CF9360
:10123000DF93EC010E949603688779878A879B87F2
:10124000E881F9810084F185E02DCE0109959C01AA
:1012500097FF15C00E949603288539854A855B85CE
:10126000621B730B840B950B2C813D814E815F813A
:10127000621773078407950718F32FEF3FEFC90133
:10128000DF91CF910895CF93DF93EC01CE010E94BF
:1012900017099C0197FD0EC08D32910559F0C0973A
:1012A0000A9740F0E881F9810680F781E02DCE01B0
:1012B0000995ECCFC901DF91CF9108959F92AF922C
:1012C000BF92CF92DF92EF92FF920F931F93CF9333
:1012D000DF936C01B62E0E944309EC0197FF04C016
:1012E000EE24FF2487014CC09924EE24FF248701BB
:1012F000AB2CBB24A7FCB094CA15DB0529F1CD3279
:10130000D10519F4992493941FC0CE01C0970A9770
:10131000D8F4C801B7012AE030E040E050E00E9474
:101320003A0C7B018C01CE01AA2797FDA095BA2F1C
:10133000E80EF91E0A1F1B1F80ED9FEFAFEFBFEFF6
:10134000E80EF91E0A1F1B1FD601ED91FC910680C5
:10135000F781E02DC6010995C6010E941709EC012D
:10136000C0970A9748F2CA15DB0531F2992041F07F
:1013700010950095F094E094E11CF11C011D111DE5
:10138000B701C801DF91CF911F910F91FF90EF90AE
:10139000DF90CF90BF90AF909F90089561E00E9442
:1013A0005E0908952F923F924F925F926F927F92C3
:1013B0008F929F92AF92BF92CF92DF92EF92FF9265
:1013C0000F931F93DF93CF93CDB7DEB73B014C0153
:1013D00019012A016D897E898F89988D6A197B0987
:1013E0008C099D09621A730A840A950AA401930163
:1013F0000E943A0CE218F30804091509A8019701A4
:101400000E949A0C2A0D3B1D4C1D5D1DB901CA019D
:10141000CF91DF911F910F91FF90EF90DF90CF90D0
:10142000BF90AF909F908F907F906F905F904F9004
:101430003F902F9008955058BB27AA270ED075C112
:1014400066D130F06BD120F031F49F3F11F41EF4DF
:101450005BC10EF4E095E7FB51C1E92F77D180F332
:10146000BA17620773078407950718F071F49EF5A1
:101470008FC10EF4E0950B2EBA2FA02D0B01B901F0
:1014800090010C01CA01A0011124FF27591B99F0FA
:10149000593F50F4503E68F11A16F040A22F232F06
:1014A000342F4427585FF3CF469537952795A79556
:1014B000F0405395C9F77EF41F16BA0B620B730BFD
:1014C000840BBAF09150A1F0FF0FBB1F661F771F6E
:1014D000881FC2F70EC0BA0F621F731F841F48F423
:1014E000879577956795B795F7959E3F08F0B3CFA9
:1014F0009395880F08F09927EE0F97958795089593
:10150000D9D008F481E008950CD00FC107D140F084
:10151000FED030F021F45F3F19F0F0C0511139C115
:10152000F3C014D198F39923C9F35523B1F3951B54
:10153000550BBB27AA2762177307840738F09F5FF4
:101540005F4F220F331F441FAA1FA9F333D00E2E63
:101550003AF0E0E830D091505040E695001CCAF7D0
:1015600029D0FE2F27D0660F771F881FBB1F261795
:1015700037074807AB07B0E809F0BB0B802DBF0168
:10158000FF2793585F4F2AF09E3F510568F0B6C081
:1015900000C15F3FECF3983EDCF386957795679545
:1015A000B795F7959F5FC9F7880F911D9695879519
:1015B00097F90895E1E0660F771F881FBB1F621738
:1015C00073078407BA0720F0621B730B840BBA0BF6
:1015D000EE1F88F7E095089504D06894B111D9C042
:1015E0000895BCD088F09F5790F0B92F9927B75134
:1015F000A0F0D1F0660F771F881F991F1AF0BA95D7
:10160000C9F712C0B13081F0C3D0B1E00895C0C0B5
:10161000672F782F8827B85F39F0B93FCCF38695CC
:1016200077956795B395D9F73EF490958095709529
:1016300061957F4F8F4F9F4F0895E89409C097FBA6
:101640003EF490958095709561957F4F8F4F9F4F99
:101650009923A9F0F92F96E9BB279395F6958795DD
:1016600077956795B795F111F8CFFAF4BB0F11F4A0
:1016700060FF1BC06F5F7F4F8F4F9F4F16C0882347
:1016800011F096E911C0772321F09EE8872F762F7D
:1016900005C0662371F096E8862F70E060E02AF0BE
:1016A0009A95660F771F881FDAF7880F96958795AA
:1016B00097F90895990F0008550FAA0BE0E8FEEF7F
:1016C00016161706E807F907C0F012161306E40706
:1016D000F50798F0621B730B840B950B39F40A26FF
:1016E00061F0232B242B252B21F408950A2609F4DD
:1016F000A140A6958FEF811D811D089597F99F67E1
:1017000080E870E060E008959FEF80EC0895002489
:101710000A941616170618060906089500240A9456
:1017200012161306140605060895092E0394000CDC
:1017300011F4882352F0BB0F40F4BF2B11F460FF6B
:1017400004C06F5F7F4F8F4F9F4F089557FD905894
:10175000440F551F59F05F3F71F04795880F97FB75
:10176000991F61F09F3F79F087950895121613062F
:101770001406551FF2CF4695F1DF08C0161617065E
:101780001806991FF1CF8695710561050894089593
:10179000E894BB2766277727CB0197F908958ADF5E
:1017A00008F48FEF08950BD0C0CFB1DF28F0B6DF7B
:1017B00018F0952309F0A2CFA7CF1124EACFC6DFF6
:1017C000A0F3959FD1F3950F50E0551F629FF00154
:1017D000729FBB27F00DB11D639FAA27F00DB11DAD
:1017E000AA1F649F6627B00DA11D661F829F222736
:1017F000B00DA11D621F739FB00DA11D621F839FBD
:10180000A00D611D221F749F3327A00D611D231F92
:10181000849F600D211D822F762F6A2F11249F57E0
:1018200050408AF0E1F088234AF0EE0FFF1FBB1F03
:10183000661F771F881F91505040A9F79E3F5105A2
:1018400070F05CCFA6CF5F3FECF3983EDCF386955B
:1018500077956795B795F795E7959F5FC1F7FE2B4D
:10186000880F911D9695879597F9089523DF880B2A
:10187000990B0895629FD001739FF001829FE00D44
:10188000F11D649FE00DF11D929FF00D839FF00DFF
:10189000749FF00D659FF00D9927729FB00DE11DAB
:1018A000F91F639FB00DE11DF91FBD01CF01112488
:1018B0000895991B79E004C0991F961708F0961BAC
:1018C000881F7A95C9F78095089597FB092E0726FA
:1018D0000AD077FD04D049D006D000201AF47095C4
:1018E00061957F4F0895F6F7909581959F4F0895E4
:1018F000A1E21A2EAA1BBB1BFD010DC0AA1FBB1F14
:10190000EE1FFF1FA217B307E407F50720F0A21B85
:10191000B30BE40BF50B661F771F881F991F1A94F2
:1019200069F760957095809590959B01AC01BD011C
:10193000CF01089597FB092E05260ED057FD04D040
:10194000D7DF0AD0001C38F450954095309521958A
:101950003F4F4F4F5F4F0895F6F7909580957095E4
:1019600061957F4F8F4F9F4F0895AA1BBB1B51E17D
:1019700007C0AA1FBB1FA617B70710F0A61BB70BFF
:10198000881F991F5A95A9F780959095BC01CD01A4
:101990000895EE0FFF1F0590F491E02D0994F8943F
:0219A000FFCF77
:1019A20043757272656E7420616E676C653A2000D1
:1019B2006E616E00696E66006F7666002E003F00F3
:1019C200000000004006E506D6050706E7053006DA
:00000001FF
