:100000000C9462000C948A000C948A000C948A0070
:100010000C948A000C948A000C948A000C948A0038
:100020000C948A000C948A000C948A000C9484012D
:100030000C948A000C948A000C948A000C948A0018
:100040000C9442020C948A000C941D040C946B04D2
:100050000C948A000C948A000C948A000C948A00F8
:100060000C948A000C948A000000000024002700F1
:100070002A0000000000250028002B0000000000DE
:1000800023002600290004040404040404040202DA
:100090000202020203030303030301020408102007
:1000A0004080010204081020010204081020000012
:1000B0000007000201000003040600000000000029
:1000C0000000D70511241FBECFEFD8E0DEBFCDBFA3
:1000D00011E0A0E0B1E0E2E2F7E102C005900D928C
:1000E000A033B107D9F712E0A0E3B1E001C01D923F
:1000F000A232B107E1F710E0C4ECD0E004C02297CF
:10010000FE010E948B0BC23CD107C9F70E942D064D
:100110000C948F0B0C940000EF92FF920F931F939F
:1001200088E00E94C9039093310180933001892BAC
:1001300021F481E08093340164C0809134018823EC
:1001400009F45FC080913201909133010196909340
:100150003301809332010E948A0260933B017093C5
:100160003C0180933D0190933E01209137013091F5
:1001700038014091390150913A017B018C01E21A1A
:10018000F30A040B150BE0923F01F092400100933B
:1001900041011093420160933701709338018093BD
:1001A000390190933A01C801B7010E942B0A20E05F
:1001B00030E04AE754E40E9492099B01AC0160E000
:1001C00070E080E792E40E94920920E030E040E88D
:1001D0005EE30E94E10A9B01AC01CB01DA0180934E
:1001E000430190934401A0934501B093460180E000
:1001F00092E0A901BD0122E030E00E945B0810926C
:1002000034011F910F91FF90EF900895FF920F938B
:100210001F93F82E8B0161E00E947503C8010E94B4
:10022000F1028F2D60E00E9475031F910F91FF90E6
:10023000089510924801109247011BC082E061E0CE
:100240000E94750388EE93E00E94F10282E060E074
:100250000E94750364E170E080E090E00E949802E3
:1002600080914701909148010196909348018093B5
:10027000470180914701909148018C349105F4F237
:10028000089580E092E00E942D0518161906E4F406
:1002900080E092E00E942509709336016093350159
:1002A00070931E0160931D0180E092E060E071E0B8
:1002B0000E94740760911D0170911E0180E092E020
:1002C0004AE050E00E94550760911D0170911E01A7
:1002D00082E090E00E9406010E948C00089580E078
:1002E00092E040E855E260E070E00E94A60488E0F9
:1002F00060E00E94360382E061E00E9436031092C3
:1003000034010E94190108951F920F920FB60F92A7
:1003100011242F933F934F935F936F937F938F930A
:100320009F93AF93BF93EF93FF9380916E0187FFED
:1003300005C010928500109284002BC020916E01A0
:10034000332727FD30958091490190E02817390720
:1003500004F580916E01992787FD9095FC01EE0FC1
:10036000FF1FE80FF91FE65BFE4F808186FF11C07B
:1003700080916E01992787FD9095FC01EE0FFF1F7C
:10038000E80FF91FE65BFE4F80818F7360E00E94EB
:10039000750380916E018F5F80936E0120916E01D5
:1003A000332727FD30958091490190E028173907C0
:1003B0000CF04EC080916E018C300CF049C0209141
:1003C00084003091850080916E01992787FD90957A
:1003D000FC01EE0FFF1FE80FF91FE65BFE4F818166
:1003E0009281280F391F30938900209388008091D3
:1003F0006E01992787FD9095FC01EE0FFF1FE80F16
:10040000F91FE65BFE4F808186FF2BC080916E0155
:10041000992787FD9095FC01EE0FFF1FE80FF91F4C
:10042000E65BFE4F80818F7361E00E94750319C007
:1004300080E49CE905C08091840090918500049639
:1004400090938900809388008FEF80936E0109C09C
:100450008091840090918500049680549C4940F3DB
:10046000EACFFF91EF91BF91AF919F918F917F91D3
:100470006F915F914F913F912F910F900FBE0F9011
:100480001F9018951F920F920FB60F9211242F9361
:100490003F938F939F93AF93BF93809173019091FC
:1004A0007401A0917501B0917601309177010196A8
:1004B000A11DB11D232F2D5F2D3720F02D57019643
:1004C000A11DB11D20937701809373019093740156
:1004D000A0937501B093760180916F0190917001A6
:1004E000A0917101B09172010196A11DB11D80937F
:1004F0006F0190937001A0937101B0937201BF914D
:10050000AF919F918F913F912F910F900FBE0F90C0
:100510001F9018958FB7F894209173013091740152
:1005200040917501509176018FBFB901CA010895BC
:100530009B01AC017FB7F89480916F01909170019D
:10054000A0917101B091720166B5A89B05C06F3F83
:1005500019F00196A11DB11D7FBFBA2FA92F982FA9
:100560008827860F911DA11DB11D62E0880F991F7C
:10057000AA1FBB1F6A95D1F7BC012DC0FFB7F89425
:1005800080916F0190917001A0917101B091720101
:10059000E6B5A89B05C0EF3F19F00196A11DB11D5E
:1005A000FFBFBA2FA92F982F88278E0F911DA11D4D
:1005B000B11DE2E0880F991FAA1FBB1FEA95D1F772
:1005C000861B970B885E9340C8F221503040404014
:1005D000504068517C4F211531054105510571F698
:1005E0000895019739F0880F991F880F991F029776
:1005F0000197F1F70895789484B5826084BD84B53D
:10060000816084BD85B5826085BD85B5816085BD0D
:10061000EEE6F0E0808181608083E1E8F0E0108226
:10062000808182608083808181608083E0E8F0E067
:10063000808181608083E1EBF0E080818460808351
:10064000E0EBF0E0808181608083EAE7F0E0808188
:1006500084608083808182608083808181608083E8
:100660008081806880831092C1000895CF93DF93CA
:10067000482F50E0CA0186569F4FFC0134914A57DB
:100680005F4FFA018491882369F190E0880F991FE8
:10069000FC01E859FF4FA591B491FC01EE58FF4FC2
:1006A000C591D491662351F42FB7F8948C91932F70
:1006B000909589238C93888189230BC0623061F4E3
:1006C0002FB7F8948C91932F909589238C938881E0
:1006D000832B88832FBF06C09FB7F8948C91832B00
:1006E0008C939FBFDF91CF910895482F50E0CA01AE
:1006F00082559F4FFC012491CA0186569F4FFC01F1
:1007000094914A575F4FFA013491332309F440C062
:10071000222351F1233071F0243028F42130A1F04C
:10072000223011F514C02630B1F02730C1F024304A
:10073000D9F404C0809180008F7703C0809180003D
:100740008F7D8093800010C084B58F7702C084B500
:100750008F7D84BD09C08091B0008F7703C08091E8
:10076000B0008F7D8093B000E32FF0E0EE0FFF1F0D
:10077000EE58FF4FA591B4912FB7F894662321F45A
:100780008C919095892302C08C91892B8C932FBFDB
:100790000895682F70E0CB0182559F4FFC01249192
:1007A000CB0186569F4FFC0144916A577F4FFB0156
:1007B0009491992319F420E030E03CC0222351F1B8
:1007C000233071F0243028F42130A1F0223011F5CB
:1007D00014C02630B1F02730C1F02430D9F404C061
:1007E000809180008F7703C0809180008F7D8093FF
:1007F000800010C084B58F7702C084B58F7D84BD22
:1008000009C08091B0008F7703C08091B0008F7DC8
:100810008093B000892F90E0880F991F84589F4FD4
:10082000FC01A591B4918C9120E030E0842311F07B
:1008300021E030E0C901089508951F920F920FB68C
:100840000F9211242F933F934F938F939F93EF9386
:10085000FF938091C00082FD1DC04091C600209191
:10086000B8013091B9012F5F3F4F2F7330708091E5
:10087000BA019091BB012817390771F0E091B801D6
:10088000F091B901E858FE4F40833093B9012093AD
:10089000B80102C08091C600FF91EF919F918F91A6
:1008A0004F913F912F910F900FBE0F901F90189571
:1008B000E0910C02F0910D02E05CFF4F819191916B
:1008C00020813181821B930B8F739070892B11F0E3
:1008D0000E941C0408951F920F920FB60F921124CC
:1008E0002F933F938F939F93EF93FF932091FC015E
:1008F0003091FD018091FE019091FF012817390789
:1009000031F48091C1008F7D8093C10014C0E091CB
:10091000FE01F091FF01E454FE4F20818091FE0121
:100920009091FF0101968F7390709093FF018093D7
:10093000FE012093C600FF91EF919F918F913F910F
:100940002F910F900FBE0F901F901895AF92BF92EE
:10095000DF92EF92FF920F931F93CF93DF93EC01FF
:100960007A018B01DD24403081EE580780E0680772
:1009700080E0780711F0DD24D39491E0A92EB12C0A
:10098000EC89FD89DD2069F0C50108A002C0880F4F
:10099000991F0A94E2F7808360E079E08DE390E0AC
:1009A00005C0108260E874E88EE190E0A80197012C
:1009B0000E94670B2150304040405040569547956B
:1009C0003795279580E12030380720F0DD2011F0A1
:1009D000DD24D6CFE889F9893083EA89FB89208331
:1009E00019A2EE89FF89408121E030E0C9010C8C19
:1009F00002C0880F991F0A94E2F7482B4083EE89C2
:100A0000FF894081C9010D8C02C0880F991F0A948B
:100A1000E2F7482B4083EE89FF894081C9010E8CA3
:100A200002C0880F991F0A94E2F7482B4083EE8991
:100A3000FF8980810F8C02C0220F331F0A94E2F7D6
:100A4000209528232083DF91CF911F910F91FF9054
:100A5000EF90DF90BF90AF900895DC011C96ED9170
:100A6000FC911D97E05CFF4F219131918081918134
:100A7000281B390B2F733070C9010895DC011C96B7
:100A8000ED91FC911D97E05CFF4F20813181E05496
:100A9000F040DF01AE5BBF4F8D919C9111972817FD
:100AA000390719F42FEF3FEF07C08D919C91E80FA4
:100AB000F91F8081282F30E0C9010895DC011C96C0
:100AC000ED91FC911D97E05CFF4F20813181E05456
:100AD000F040DF01AE5BBF4F8D919C9111972817BD
:100AE000390719F42FEF3FEF10C08D919C911197AA
:100AF000E80FF91F20818D919C91119701968F73BA
:100B0000907011969C938E9330E0C9010895DC019A
:100B100091968C919197882339F05496ED91FC91A0
:100B20005597808186FFF9CF91961C920895CF93B7
:100B3000DF93EC01EE85FF85E05CFF4F2081318182
:100B4000E054F0402F5F3F4F2F733070DF01AE5BFA
:100B5000BF4F8D919C91119728173907D1F3E05C15
:100B6000FF4F80819181E054F040E80FF91F6083CE
:100B7000EE85FF85E05CFF4F31832083EE89FF899E
:100B8000208181E090E00F8C02C0880F991F0A94A9
:100B9000E2F7282B208381E089A3EC89FD898081FD
:100BA0008064808381E090E0DF91CF91089510927E
:100BB00003021092020288EE93E0A0E0B0E080937E
:100BC000040290930502A0930602B093070283E209
:100BD00091E0909301028093000288E791E0909366
:100BE0000D0280930C028CEB91E090930F028093A6
:100BF0000E0285EC90E0909311028093100284EC39
:100C000090E0909313028093120280EC90E0909316
:100C100015028093140281EC90E090931702809368
:100C2000160282EC90E0909319028093180286ECF1
:100C300090E090931B0280931A0284E080931C0240
:100C400083E080931D0287E080931E0285E08093FD
:100C50001F0281E0809320020895CF93DF930E94CA
:100C6000FB020E946F01C8E5D4E00E944101209779
:100C7000E1F30E945804F9CFCF92DF92EF92FF92F6
:100C80000F931F93CF93DF937C016B018A01C0E028
:100C9000D0E00FC0D6016D916D01D701ED91FC91AF
:100CA0000190F081E02DC7010995C80FD91F0150AF
:100CB00010400115110571F7CE01DF91CF911F9101
:100CC0000F91FF90EF90DF90CF900895EF92FF92F9
:100CD0000F931F938C01DC01ED91FC910190F08149
:100CE000E02D6DE009957C01D801ED91FC9101901A
:100CF000F081E02DC8016AE009959C012E0D3F1D91
:100D0000C9011F910F91FF90EF900895CF93DF934A
:100D1000EC016115710519F420E030E00FC0DB0132
:100D20000D900020E9F71197A61BB70BE881F98118
:100D30000280F381E02DAD0109959C01C901DF918D
:100D4000CF9108954F925F927F928F929F92AF9230
:100D5000BF92CF92DF92EF92FF920F931F93DF9398
:100D6000CF93CDB7DEB7A1970FB6F894DEBF0FBE15
:100D7000CDBF2C01742ECB01223008F42AE019A239
:100D800031E2C32ED12CCC0EDD1E822E9924AA2452
:100D9000BB24672D752FA50194010E94670B790173
:100DA0008A01C801B701A50194010E94480B472D93
:100DB000461B0894C108D1084A3014F4405D01C0B4
:100DC000495CF6014083E114F1040105110521F0AD
:100DD0007E2C5F2DC801DDCFC201B6010E948606C0
:100DE000A1960FB6F894DEBF0FBECDBFCF91DF91B5
:100DF0001F910F91FF90EF90DF90CF90BF90AF9039
:100E00009F908F907F905F904F900895DC01211507
:100E1000310541F4ED91FC910190F081E02D642FBA
:100E2000099508950E94A2060895CF92DF92EF924D
:100E3000FF920F931F93CF93DF93EC016A017B0125
:100E40002115310541F4E881F9810190F081E02D0F
:100E5000642F09951FC02A303105D1F477FF17C0E0
:100E6000E881F9810190F081E02D6DE209958C0116
:100E700044275527BA014C195D096E097F09CE0137
:100E80002AE00E94A2069801280F391F04C02AE018
:100E90000E94A2069C01C901DF91CF911F910F9181
:100EA000FF90EF90DF90CF900895CF92DF92EF9276
:100EB000FF920F931F936C017B019A010027F7FCAF
:100EC0000095102FB801A7010E9415078C01C601DB
:100ED0000E946606080F191FC8011F910F91FF900D
:100EE000EF90DF90CF9008950E94860608957F923C
:100EF0008F929F92AF92BF92CF92DF92EF92FF922A
:100F00000F931F93CF93DF934C017A018B01722EC5
:100F1000CB01BA01A80197010E94440B882321F05C
:100F2000C4016FE071E021C0C0E0D0E0570168016A
:100F3000E894D7F8C601B5012FEF3FEF4FE75FE721
:100F40000E94440B882351F4C601B5012FEF3FEFF7
:100F50004FE75FE70E948E09181614F0C1E0D0E059
:100F6000219739F0C40163E171E00E948606EC012B
:100F700093C0C801B7012FEF3FEF4FE75FE40E9436
:100F8000DD0A181654F0C801B7012FEF3FEF4FE705
:100F90005FEC0E948E09882324F4C40167E171E0AC
:100FA000E4CFC801B70120E030E040E050E00E940B
:100FB0008E0987FD03C0C0E0D0E00EC0D401ED91E2
:100FC000FC910190F081E02DC4016DE20995EC01E6
:100FD00017FB109517F9109520E030E040E05FE333
:100FE000DD240BC0CA01B90120E030E040E251E449
:100FF0000E9492099B01AC01D394D71498F3C801C5
:10100000B7010E942A095B016C010E94FF097B0164
:101010008C01C401B801A7012AE030E00E94060754
:10102000C80FD91F772039F0C4016BE171E00E942D
:101030008606C80FD91FC801B7010E942B0A9B0161
:10104000AC01C601B5010E94290924C020E030E0AE
:1010500040E251E40E94E10A7B018C010E94FA09FE
:101060005B016C01CC24B7FCC094DC2CC401B6013C
:10107000A5012AE030E00E941507C80FD91FC6015C
:10108000B5010E942D0A9B01AC01C801B7010E9465
:1010900029097A947720D1F6CE01DF91CF911F9163
:1010A0000F91FF90EF90DF90CF90BF90AF909F9007
:1010B0008F907F900895EF92FF920F931F937C0182
:1010C0000E9477078C01C7010E946606080F191F4E
:1010D000C8011F910F91FF90EF900895CF93DF9378
:1010E000EC010E948A02688779878A879B87E8815A
:1010F000F9810084F185E02DCE0109959C0197FFCF
:1011000015C00E948A02288539854A855B85621B45
:10111000730B840B950B2C813D814E815F8162178F
:1011200073078407950718F32FEF3FEFC901DF918D
:10113000CF910895CF93DF93EC01CE010E946E080A
:101140009C0197FD0EC08D32910559F0C0970A970A
:1011500040F0E881F9810680F781E02DCE01099504
:10116000ECCFC901DF91CF9108959F92AF92BF92CA
:10117000CF92DF92EF92FF920F931F93CF93DF9363
:101180006C01B62E0E949A08EC0197FF04C0EE2471
:10119000FF2487014CC09924EE24FF248701AB2C47
:1011A000BB24A7FCB094CA15DB0529F1CD32D105CB
:1011B00019F4992493941FC0CE01C0970A97D8F4CC
:1011C000C801B7012AE030E040E050E00E94480B3F
:1011D0007B018C01CE01AA2797FDA095BA2FE80EBE
:1011E000F91E0A1F1B1F80ED9FEFAFEFBFEFE80E48
:1011F000F91E0A1F1B1FD601ED91FC910680F78195
:10120000E02DC6010995C6010E946E08EC01C09749
:101210000A9748F2CA15DB0531F2992041F0109582
:101220000095F094E094E11CF11C011D111DB70123
:10123000C801DF91CF911F910F91FF90EF90DF9048
:10124000CF90BF90AF909F90089561E00E94B50845
:1012500008955058BB27AA270ED075C166D130F02B
:101260006BD120F031F49F3F11F41EF45BC10EF4FA
:10127000E095E7FB51C1E92F77D180F3BA176207F8
:1012800073078407950718F071F49EF58FC10EF46B
:10129000E0950B2EBA2FA02D0B01B90190010C0186
:1012A000CA01A0011124FF27591B99F0593F50F49E
:1012B000503E68F11A16F040A22F232F342F4427F6
:1012C000585FF3CF469537952795A795F0405395EE
:1012D000C9F77EF41F16BA0B620B730B840BBAF0BE
:1012E0009150A1F0FF0FBB1F661F771F881FC2F729
:1012F0000EC0BA0F621F731F841F48F4879577953D
:101300006795B795F7959E3F08F0B3CF9395880FF3
:1013100008F09927EE0F979587950895D9D008F48E
:1013200081E008950CD00FC107D140F0FED030F01D
:1013300021F45F3F19F0F0C0511139C1F3C014D14D
:1013400098F39923C9F35523B1F3951B550BBB278C
:10135000AA2762177307840738F09F5F5F4F220F39
:10136000331F441FAA1FA9F333D00E2E3AF0E0E832
:1013700030D091505040E695001CCAF729D0FE2F7E
:1013800027D0660F771F881FBB1F26173707480710
:10139000AB07B0E809F0BB0B802DBF01FF279358C6
:1013A0005F4F2AF09E3F510568F0B6C000C15F3F15
:1013B000ECF3983EDCF3869577956795B795F795AE
:1013C0009F5FC9F7880F911D9695879597F90895A6
:1013D000E1E0660F771F881FBB1F62177307840742
:1013E000BA0720F0621B730B840BBA0BEE1F88F751
:1013F000E095089504D06894B111D9C00895BCD087
:1014000088F09F5790F0B92F9927B751A0F0D1F0ED
:10141000660F771F881F991F1AF0BA95C9F712C077
:10142000B13081F0C3D0B1E00895C0C0672F782FEC
:101430008827B85F39F0B93FCCF3869577956795E3
:10144000B395D9F73EF490958095709561957F4F4F
:101450008F4F9F4F0895E89409C097FB3EF49095F5
:101460008095709561957F4F8F4F9F4F9923A9F07D
:10147000F92F96E9BB279395F6958795779567950C
:10148000B795F111F8CFFAF4BB0F11F460FF1BC050
:101490006F5F7F4F8F4F9F4F16C0882311F096E9E3
:1014A00011C0772321F09EE8872F762F05C0662391
:1014B00071F096E8862F70E060E02AF09A95660F4A
:1014C000771F881FDAF7880F9695879597F9089503
:1014D000990F0008550FAA0BE0E8FEEF1616170645
:1014E000E807F907C0F012161306E407F50798F0AD
:1014F000621B730B840B950B39F40A2661F0232BC6
:10150000242B252B21F408950A2609F4A140A69541
:101510008FEF811D811D089597F99F6780E870E026
:1015200060E008959FEF80EC089500240A94161659
:10153000170618060906089500240A9412161306C1
:10154000140605060895092E0394000C11F488234F
:1015500052F0BB0F40F4BF2B11F460FF04C06F5F6B
:101560007F4F8F4F9F4F089557FD9058440F551F41
:1015700059F05F3F71F04795880F97FB991F61F015
:101580009F3F79F087950895121613061406551F8C
:10159000F2CF4695F1DF08C0161617061806991FF8
:1015A000F1CF86957105610508940895E894BB27ED
:1015B00066277727CB0197F908958ADF08F48FEF24
:1015C00008950BD0C0CFB1DF28F0B6DF18F0952317
:1015D00009F0A2CFA7CF1124EACFC6DFA0F3959FD1
:1015E000D1F3950F50E0551F629FF001729FBB270A
:1015F000F00DB11D639FAA27F00DB11DAA1F649FB6
:101600006627B00DA11D661F829F2227B00DA11D68
:10161000621F739FB00DA11D621F839FA00D611DEE
:10162000221F749F3327A00D611D231F849F600D0F
:10163000211D822F762F6A2F11249F5750408AF048
:10164000E1F088234AF0EE0FFF1FBB1F661F771FD4
:10165000881F91505040A9F79E3F510570F05CCF14
:10166000A6CF5F3FECF3983EDCF3869577956795C0
:10167000B795F795E7959F5FC1F7FE2B880F911DF2
:101680009695879597F9089523DF880B990B089510
:10169000629FD001739FF001829FE00DF11D649F56
:1016A000E00DF11D929FF00D839FF00D749FF00DE2
:1016B000659FF00D9927729FB00DE11DF91F639F83
:1016C000B00DE11DF91FBD01CF0111240895A1E264
:1016D0001A2EAA1BBB1BFD010DC0AA1FBB1FEE1FAC
:1016E000FF1FA217B307E407F50720F0A21BB30BF7
:1016F000E40BF50B661F771F881F991F1A9469F773
:1017000060957095809590959B01AC01BD01CF01CE
:101710000895EE0FFF1F0590F491E02D0994F894C1
:02172000FFCFF9
:101722004E6577206D6F746F724F75743A20006E3C
:10173200616E00696E66006F7666002E00A6040078
:1017420000000097053C062D055E053E0587050055
:00000001FF
