:100000000C9462000C948A000C948A000C948A0070
:100010000C948A000C948A000C948A000C948A0038
:100020000C948A000C948A000C948A000C948A0028
:100030000C948A000C948A000C948A000C948A0018
:100040000C9487010C948A000C9423030C94710384
:100050000C948A000C948A000C948A000C948A00F8
:100060000C948A000C948A000000000024002700F1
:100070002A0000000000250028002B0000000000DE
:1000800023002600290004040404040404040202DA
:100090000202020203030303030301020408102007
:1000A0004080010204081020010204081020000012
:1000B0000007000201000003040600000000000029
:1000C0000000DD0411241FBECFEFD8E0DEBFCDBF9E
:1000D00011E0A0E0B1E0EAE7F3E102C005900D9283
:1000E000AE32B107D9F711E0AEE2B1E001C01D9226
:1000F000A93EB107E1F710E0C4ECD0E004C02297BC
:10010000FE010E94B709C23CD107C9F70E9433051E
:100110000C94BB090C94000080E090E0A0E0B0E0FB
:1001200080932E0190932F01A0933001B093310161
:100130002AC08091140161E00E94CE0288EE93E013
:100140000E9428028091140160E00E94CE0264E1C6
:1001500070E080E090E00E94CF0160912E017091EC
:100160002F01809130019091310120E030E040E892
:100170005FE30E94560760932E0170932F018093D6
:1001800030019093310160912E0170912F01809187
:1001900030019091310120E030E046E952E40E94C4
:1001A000BA07181634F608950F931F9307EC11E061
:1001B000C8010E946C058EE00E946D02AA2797FD7F
:1001C000A095BA2FBC01CD010E945908609332015D
:1001D000709333018093340190933501C80160E03E
:1001E00071E00E945B0640913201509133016091B1
:1001F000340170913501C80122E030E00E944207CD
:100200001F910F9108950E94D40080E090EAA1E927
:10021000B4E480932E0190932F01A0933001B0930A
:1002200031013CC08091140161E00E94CE026091D6
:100230002E0170912F0180913001909131010E9427
:100240002B08DC01CB010E9428028091140160E0A0
:100250000E94CE0260912E0170912F018091300199
:10026000909131010E942B08DC01CB010E942802F1
:1002700060912E0170912F01809130019091310198
:1002800020E030E040E85FE30E94560760932E01D3
:1002900070932F01809330019093310160912E0172
:1002A00070912F01809130019091310120E030EE6A
:1002B00042E954E40E94BA0718160CF0B3CF0E942A
:1002C000D400089587EC91E040E855E260E070E0EA
:1002D0000E94AC038EE060E00E948F0280911401C6
:1002E00061E00E948F028091160161E00E948F02FE
:1002F0008091180161E00E948F0280911A0161E0F3
:100300000E948F020E948C000E94D40008951F92C8
:100310000F920FB60F9211242F933F938F939F93B9
:10032000AF93BF9380913A0190913B01A0913C0122
:10033000B0913D0130913E010196A11DB11D232FC9
:100340002D5F2D3720F02D570196A11DB11D209353
:100350003E0180933A0190933B01A0933C01B093FE
:100360003D018091360190913701A0913801B09103
:1003700039010196A11DB11D80933601909337017B
:10038000A0933801B0933901BF91AF919F918F91A4
:100390003F912F910F900FBE0F901F9018959B01CA
:1003A000AC017FB7F8948091360190913701A0910C
:1003B0003801B091390166B5A89B05C06F3F19F0AF
:1003C0000196A11DB11D7FBFBA2FA92F982F882795
:1003D000860F911DA11DB11D62E0880F991FAA1FF4
:1003E000BB1F6A95D1F7BC012DC0FFB7F89480916F
:1003F000360190913701A0913801B0913901E6B5ED
:10040000A89B05C0EF3F19F00196A11DB11DFFBFCC
:10041000BA2FA92F982F88278E0F911DA11DB11DCE
:10042000E2E0880F991FAA1FBB1FEA95D1F7861B30
:10043000970B885E9340C8F22150304040405040B6
:1004400068517C4F211531054105510571F608951C
:10045000019739F0880F991F880F991F029701970C
:10046000F1F70895789484B5826084BD84B5816085
:1004700084BD85B5826085BD85B5816085BDEEE6AC
:10048000F0E0808181608083E1E8F0E0108280818B
:1004900082608083808181608083E0E8F0E08081F9
:1004A00081608083E1EBF0E0808184608083E0EB19
:1004B000F0E0808181608083EAE7F0E08081846001
:1004C000808380818260808380818160808380815D
:1004D000806880831092C1000895982F8E3008F0B4
:1004E0009E50977080911C018295880F880F807CA8
:1004F000892B80937C0080917A00806480937A00BD
:1005000080917A0086FDFCCF20917800409179009F
:10051000942F80E030E0282B392BC9010895CF9328
:10052000DF93482F50E0CA0186569F4FFC0134915B
:100530004A575F4FFA018491882369F190E0880F50
:10054000991FFC01E859FF4FA591B491FC01EE58A9
:10055000FF4FC591D491662351F42FB7F8948C9135
:10056000932F909589238C93888189230BC06230C7
:1005700061F42FB7F8948C91932F909589238C93E5
:100580008881832B88832FBF06C09FB7F8948C91F6
:10059000832B8C939FBFDF91CF910895482F50E01C
:1005A000CA0182559F4FFC012491CA0186569F4F74
:1005B000FC0194914A575F4FFA013491332309F4B7
:1005C00040C0222351F1233071F0243028F421302F
:1005D000A1F0223011F514C02630B1F02730C1F05F
:1005E0002430D9F404C0809180008F7703C08091BB
:1005F00080008F7D8093800010C084B58F7702C00B
:1006000084B58F7D84BD09C08091B0008F7703C011
:100610008091B0008F7D8093B000E32FF0E0EE0F6B
:10062000FF1FEE58FF4FA591B4912FB7F8946623A2
:1006300021F48C919095892302C08C91892B8C9305
:100640002FBF089508951F920F920FB60F92112495
:100650002F933F934F938F939F93EF93FF938091AB
:10066000C00082FD1DC04091C60020917F013091E5
:1006700080012F5F3F4F2F733070809181019091E7
:1006800082012817390771F0E0917F01F091800114
:10069000E15CFE4F40833093800120937F0102C0D4
:1006A0008091C600FF91EF919F918F914F913F9163
:1006B0002F910F900FBE0F901F901895E091D301CE
:1006C000F091D401E05CFF4F8191919120813181C3
:1006D000821B930B8F739070892B11F00E94220361
:1006E00008951F920F920FB60F9211242F933F93EC
:1006F0008F939F93EF93FF932091C3013091C40197
:100700008091C5019091C6012817390731F4809175
:10071000C1008F7D8093C10014C0E091C501F091AC
:10072000C601ED57FE4F20818091C5019091C60111
:1007300001968F7390709093C6018093C5012093AA
:10074000C600FF91EF919F918F913F912F910F9054
:100750000FBE0F901F901895AF92BF92DF92EF924D
:10076000FF920F931F93CF93DF93EC017A018B01DC
:10077000DD24403081EE580780E0680780E078078C
:1007800011F0DD24D39491E0A92EB12CEC89FD89E0
:10079000DD2069F0C50108A002C0880F991F0A94E6
:1007A000E2F7808360E079E08DE390E005C010829D
:1007B00060E874E88EE190E0A80197010E94930937
:1007C00021503040404050405695479537952795E9
:1007D00080E12030380720F0DD2011F0DD24D6CF75
:1007E000E889F9893083EA89FB89208319A2EE8997
:1007F000FF89408121E030E0C9010C8C02C0880FE4
:10080000991F0A94E2F7482B4083EE89FF894081C3
:10081000C9010D8C02C0880F991F0A94E2F7482B7A
:100820004083EE89FF894081C9010E8C02C0880F88
:10083000991F0A94E2F7482B4083EE89FF89808153
:100840000F8C02C0220F331F0A94E2F72095282351
:100850002083DF91CF911F910F91FF90EF90DF9058
:10086000BF90AF900895DC011C96ED91FC911D970F
:10087000E05CFF4F2191319180819181281B390BE0
:100880002F733070C9010895DC011C96ED91FC9125
:100890001D97E05CFF4F20813181E054F040DF0183
:1008A000AE5BBF4F8D919C9111972817390719F4B2
:1008B0002FEF3FEF07C08D919C91E80FF91F8081CA
:1008C000282F30E0C9010895DC011C96ED91FC91C0
:1008D0001D97E05CFF4F20813181E054F040DF0143
:1008E000AE5BBF4F8D919C9111972817390719F472
:1008F0002FEF3FEF10C08D919C911197E80FF91FDA
:1009000020818D919C91119701968F739070119613
:100910009C938E9330E0C9010895DC0191968C91EF
:100920009197882339F05496ED91FC9155978081E9
:1009300086FFF9CF91961C920895CF93DF93EC0137
:10094000EE85FF85E05CFF4F20813181E054F0406F
:100950002F5F3F4F2F733070DF01AE5BBF4F8D9124
:100960009C91119728173907D1F3E05CFF4F8081E4
:100970009181E054F040E80FF91F6083EE85FF8518
:10098000E05CFF4F31832083EE89FF89208181E085
:1009900090E00F8C02C0880F991F0A94E2F7282B71
:1009A000208381E089A3EC89FD8980818064808334
:1009B00081E090E0DF91CF9108951092CA011092EA
:1009C000C90188EE93E0A0E0B0E08093CB01909362
:1009D000CC01A093CD01B093CE0181E291E0909340
:1009E000C8018093C7018FE391E09093D401809375
:1009F000D30183E891E09093D6018093D50185ECF3
:100A000090E09093D8018093D70184EC90E090938C
:100A1000DA018093D90180EC90E09093DC0180931F
:100A2000DB0181EC90E09093DE018093DD0182ECAC
:100A300090E09093E0018093DF0186EC90E090934A
:100A4000E2018093E10184E08093E30183E08093FD
:100A5000E40187E08093E50185E08093E60181E091
:100A60008093E7010895CF93DF930E9432020E94A2
:100A70006201CEE5D3E00E9403012097E1F30E94DA
:100A80005E03F9CFCF92DF92EF92FF920F931F9305
:100A9000CF93DF937C016B018A01C0E0D0E00FC0EF
:100AA000D6016D916D01D701ED91FC910190F0811E
:100AB000E02DC7010995C80FD91F0150104001153D
:100AC000110571F7CE01DF91CF911F910F91FF902A
:100AD000EF90DF90CF900895EF92FF920F931F93C6
:100AE0008C01DC01ED91FC910190F081E02D6DE035
:100AF00009957C01D801ED91FC910190F081E02DE8
:100B0000C8016AE009959C012E0D3F1DC9011F9186
:100B10000F91FF90EF900895CF93DF93EC01611553
:100B2000710519F420E030E00FC0DB010D900020CA
:100B3000E9F71197A61BB70BE881F9810280F381D1
:100B4000E02DAD0109959C01C901DF91CF91089578
:100B50004F925F927F928F929F92AF92BF92CF926D
:100B6000DF92EF92FF920F931F93DF93CF93CDB756
:100B7000DEB7A1970FB6F894DEBF0FBECDBF2C0134
:100B8000742ECB01223008F42AE019A231E2C32EE0
:100B9000D12CCC0EDD1E822E9924AA24BB24672DD5
:100BA000752FA50194010E94930979018A01C8015A
:100BB000B701A50194010E947409472D461B0894B2
:100BC000C108D1084A3014F4405D01C0495CF60107
:100BD0004083E114F1040105110521F07E2C5F2D05
:100BE000C801DDCFC201B6010E948C05A1960FB6E7
:100BF000F894DEBF0FBECDBFCF91DF911F910F9153
:100C0000FF90EF90DF90CF90BF90AF909F908F902C
:100C10007F905F904F900895DC012115310541F4DC
:100C2000ED91FC910190F081E02D642F09950895DC
:100C30000E94A8050895CF92DF92EF92FF920F9342
:100C40001F93CF93DF93EC016A017B0121153105DE
:100C500041F4E881F9810190F081E02D642F09953C
:100C60001FC02A303105D1F477FF17C0E881F98120
:100C70000190F081E02D6DE209958C014427552704
:100C8000BA014C195D096E097F09CE012AE00E9464
:100C9000A8059801280F391F04C02AE00E94A80562
:100CA0009C01C901DF91CF911F910F91FF90EF90AF
:100CB000DF90CF9008950E948C0508957F928F92C7
:100CC0009F92AF92BF92CF92DF92EF92FF920F93DB
:100CD0001F93CF93DF934C017A018B01722ECB01CE
:100CE000BA01A80197010E947009882321F0C4016C
:100CF00066E071E021C0C0E0D0E057016801E894EF
:100D0000D7F8C601B5012FEF3FEF4FE75FE70E942D
:100D10007009882351F4C601B5012FEF3FEF4FE76B
:100D20005FE70E94BA07181614F0C1E0D0E02197DF
:100D300039F0C4016AE071E00E948C05EC0193C0B7
:100D4000C801B7012FEF3FEF4FE75FE40E940909A9
:100D5000181654F0C801B7012FEF3FEF4FE75FECD3
:100D60000E94BA07882324F4C4016EE071E0E4CF46
:100D7000C801B70120E030E040E050E00E94BA072F
:100D800087FD03C0C0E0D0E00EC0D401ED91FC911E
:100D90000190F081E02DC4016DE20995EC0117FB93
:100DA000109517F9109520E030E040E05FE3DD2476
:100DB0000BC0CA01B90120E030E040E251E40E94DA
:100DC000BE079B01AC01D394D71498F3C801B701B7
:100DD0000E9456075B016C010E942B087B018C016D
:100DE000C401B801A7012AE030E00E940C06C80F38
:100DF000D91F772039F0C40162E171E00E948C05AF
:100E0000C80FD91FC801B7010E9457089B01AC0148
:100E1000C601B5010E94550724C020E030E040E241
:100E200051E40E940D097B018C010E9426085B01A0
:100E30006C01CC24B7FCC094DC2CC401B601A50124
:100E40002AE030E00E941B06C80FD91FC601B50179
:100E50000E9459089B01AC01C801B7010E945507C7
:100E60007A947720D1F6CE01DF91CF911F910F9127
:100E7000FF90EF90DF90CF90BF90AF909F908F90BA
:100E80007F900895EF92FF920F931F937C010E9431
:100E90005E068C01C7010E946C05080F191FC8016E
:100EA0001F910F91FF90EF9008955058BB27AA27EC
:100EB0000ED075C166D130F06BD120F031F49F3F78
:100EC00011F41EF45BC10EF4E095E7FB51C1E92F6C
:100ED00077D180F3BA17620773078407950718F074
:100EE00071F49EF58FC10EF4E0950B2EBA2FA02D54
:100EF0000B01B90190010C01CA01A0011124FF27C7
:100F0000591B99F0593F50F4503E68F11A16F040C1
:100F1000A22F232F342F4427585FF3CF46953795C0
:100F20002795A795F0405395C9F77EF41F16BA0B85
:100F3000620B730B840BBAF09150A1F0FF0FBB1F33
:100F4000661F771F881FC2F70EC0BA0F621F731F7C
:100F5000841F48F4879577956795B795F7959E3FD9
:100F600008F0B3CF9395880F08F09927EE0F979567
:100F700087950895D9D008F481E008950CD00FC169
:100F800007D140F0FED030F021F45F3F19F0F0C0FF
:100F9000511139C1F3C014D198F39923C9F35523E2
:100FA000B1F3951B550BBB27AA276217730784075C
:100FB00038F09F5F5F4F220F331F441FAA1FA9F312
:100FC00033D00E2E3AF0E0E830D091505040E69504
:100FD000001CCAF729D0FE2F27D0660F771F881F65
:100FE000BB1F261737074807AB07B0E809F0BB0B54
:100FF000802DBF01FF2793585F4F2AF09E3F510578
:1010000068F0B6C000C15F3FECF3983EDCF3869514
:1010100077956795B795F7959F5FC9F7880F911DED
:101020009695879597F90895E1E0660F771F881FD9
:10103000BB1F621773078407BA0720F0621B730B8C
:10104000840BBA0BEE1F88F7E095089504D06894DE
:10105000B111D9C00895BCD088F09F5790F0B92F36
:101060009927B751A0F0D1F0660F771F881F991FFD
:101070001AF0BA95C9F712C0B13081F0C3D0B1E00F
:101080000895C0C0672F782F8827B85F39F0B93F1F
:10109000CCF3869577956795B395D9F73EF49095FF
:1010A0008095709561957F4F8F4F9F4F0895E8947D
:1010B00009C097FB3EF490958095709561957F4FA0
:1010C0008F4F9F4F9923A9F0F92F96E9BB2793954E
:1010D000F695879577956795B795F111F8CFFAF45E
:1010E000BB0F11F460FF1BC06F5F7F4F8F4F9F4F8F
:1010F00016C0882311F096E911C0772321F09EE8ED
:10110000872F762F05C0662371F096E8862F70E052
:1011100060E02AF09A95660F771F881FDAF7880F2C
:101120009695879597F90895990F0008550FAA0B82
:10113000E0E8FEEF16161706E807F907C0F01216EA
:101140001306E407F50798F0621B730B840B950BED
:1011500039F40A2661F0232B242B252B21F4089542
:101160000A2609F4A140A6958FEF811D811D0895DF
:1011700097F99F6780E870E060E008959FEF80EC4A
:10118000089500240A9416161706180609060895ED
:1011900000240A9412161306140605060895092E53
:1011A0000394000C11F4882352F0BB0F40F4BF2BC2
:1011B00011F460FF04C06F5F7F4F8F4F9F4F089502
:1011C00057FD9058440F551F59F05F3F71F04795F8
:1011D000880F97FB991F61F09F3F79F087950895DD
:1011E000121613061406551FF2CF4695F1DF08C0FC
:1011F000161617061806991FF1CF86957105610519
:1012000008940895E894BB2766277727CB0197F9C0
:1012100008958ADF08F48FEF08950BD0C0CFB1DFB7
:1012200028F0B6DF18F0952309F0A2CFA7CF11243C
:10123000EACFC6DFA0F3959FD1F3950F50E0551F7D
:10124000629FF001729FBB27F00DB11D639FAA271B
:10125000F00DB11DAA1F649F6627B00DA11D661F6A
:10126000829F2227B00DA11D621F739FB00DA11D8B
:10127000621F839FA00D611D221F749F3327A00D45
:10128000611D231F849F600D211D822F762F6A2FE1
:1012900011249F5750408AF0E1F088234AF0EE0F66
:1012A000FF1FBB1F661F771F881F91505040A9F773
:1012B0009E3F510570F05CCFA6CF5F3FECF3983EA8
:1012C000DCF3869577956795B795F795E7959F5FDA
:1012D000C1F7FE2B880F911D9695879597F9089574
:1012E00023DF880B990B0895629FD001739FF00153
:1012F000829FE00DF11D649FE00DF11D929FF00DA6
:10130000839FF00D749FF00D659FF00D9927729FDC
:10131000B00DE11DF91F639FB00DE11DF91FBD0167
:10132000CF0111240895A1E21A2EAA1BBB1BFD01B7
:101330000DC0AA1FBB1FEE1FFF1FA217B307E407B4
:10134000F50720F0A21BB30BE40BF50B661F771F0C
:10135000881F991F1A9469F76095709580959095EC
:101360009B01AC01BD01CF010895EE0FFF1F059059
:0A137000F491E02D0994F894FFCFEA
:10137A0052504D3A20006E616E00696E66006F76BB
:10138A0066002E00020003000400050001000000B0
:0E139A00009D0442053304640444048D0400E5
:00000001FF
