:1000000002C100002CC100002AC1000028C100006C
:1000100026C1000024C1000022C1000020C1000050
:100020001EC100001CC100001AC1000018C1000060
:1000300016C1000014C1000012C1000010C1000070
:100040000EC100000CC100000AC1000008C1000080
:1000500006C1000004C1000002C1000058C1000038
:10006000FEC000007BC30000BDC40000F8C000005B
:10007000F6C00000F4C00000F2C00000F0C00000B4
:10008000EEC00000ECC00000EAC00000E8C00000C4
:10009000A5C30000E6C40000E2C00000E0C000000C
:1000A000DEC00000DCC00000DAC00000D8C00000E4
:1000B000D6C00000D4C00000D2C00000D0C00000F4
:1000C000CEC00000CCC00000CAC00000C7C3000002
:1000D00007C50000C4C0000001C4000040C5000006
:1000E000BEC0000000002100240027002A002D00CF
:1000F0003000330001010000040107010A01000083
:100100002200250028002B002E00310034000201BF
:100110000000050108010B0100002000230026005B
:1001200029002C002F00320000010000030106010D
:10013000090105050505070508080808020202026D
:100140000A0A080804040404010101010101010173
:100150000303030303030303040707070C0C0C0C3E
:100160000C0C0C0C02020202060606060606060627
:100170000B0B0B0B0B0B0B0B0102102020080810B4
:100180002040102040800201020108040201010207
:1001900004081020408080402010080402018004E0
:1001A000020180402010080402010804020101023B
:1001B0000408102040800102040810204080000044
:1001C000090A02080B0C0D070603040100000000D9
:1001D000000000000000000000000000000000001F
:1001E0000000000000000000000011100F000000DF
:1001F00000000000000000000000000000000000FF
:10020000000000001E0711241FBECFEFD1E2DEBFA9
:10021000CDBF00E00CBF12E0A0E0B2E0E4E9F3E102
:1002200000E00BBF02C007900D92AC31B107D9F7C7
:100230001BBE14E0ACE1B2E001C01D92AF3CB107BF
:10024000E1F712E0C6E0D2E004C02297FE010E946E
:10025000C409C430D107C9F727D70C94C809D0CE38
:100260001F93182F10921D0210921C0217C0812F8D
:1002700061E041D28CE494E0EBD0812F60E03BD28E
:1002800064E170E080E090E08AD080911C0290915F
:100290001D02019690931D0280931C0280911C0206
:1002A00090911D02855F914014F31F9108958091F4
:1002B00008023AD1BC0187E494E04AE050E00C9493
:1002C000640986E090E0909301028093000287E445
:1002D00094E040E855E260E070E080D48091000254
:1002E00061E056D18091020261E052D18091040216
:1002F00061E04ED18091060261E04AD1809108020E
:1003000060E046D18091000290910102A9CF1F9236
:100310000F920FB60F9211242F933F938F939F93B9
:10032000AF93BF938091220290912302A091240267
:10033000B0912502309126020196A11DB11D232FF7
:100340002D5F2D3720F02D570196A11DB11D209353
:1003500026028093220290932302A0932402B0935A
:10036000250280911E0290911F02A0912002B0915F
:1003700021020196A11DB11D80931E0290931F02C0
:10038000A0932002B0932102BF91AF919F918F91D2
:100390003F912F910F900FBE0F901F9018959B01CA
:1003A000AC017FB7F89480911E0290911F02A0913A
:1003B0002002B091210266B5A89B05C06F3F19F0DD
:1003C0000196A11DB11D7FBFBA2FA92F982F882795
:1003D000860F911DA11DB11D62E0880F991FAA1FF4
:1003E000BB1F6A95D1F7BC012DC0FFB7F89480916F
:1003F0001E0290911F02A0912002B0912102E6B549
:10040000A89B05C0EF3F19F00196A11DB11DFFBFCC
:10041000BA2FA92F982F88278E0F911DA11DB11DCE
:10042000E2E0880F991FAA1FBB1FEA95D1F7861B30
:10043000970B885E9340C8F22150304040405040B6
:1004400068517C4F211531054105510571F608951C
:10045000019739F0880F991F880F991F029701970C
:10046000F1F70895789484B5826084BD84B5816085
:1004700084BD85B5826085BD85B5816085BDEEE6AC
:10048000F0E0808181608083E1E8F0E0108280818B
:1004900082608083808181608083E0E8F0E08081F9
:1004A00081608083E1EBF0E0808184608083E0EB19
:1004B000F0E0808181608083E1E9F0E0808182600A
:1004C0008083808181608083E0E9F0E080818160C9
:1004D0008083E1EAF0E080818260808380818160B6
:1004E0008083E0EAF0E0808181608083E1E2F1E0F6
:1004F000808182608083808181608083E0E2F1E09E
:10050000808181608083EAE7F0E08081846080837D
:100510008081826080838081816080838081806827
:1005200080831092C1000895382F863308F0365327
:1005300020917B00832F86958695869590E081702B
:10054000907043E0880F991F4A95E1F7277F282B89
:1005500020937B00377080910A028295880F880F64
:10056000807C832B80937C0080917A0080648093D0
:100570007A0080917A0086FDFCCF2091780040912E
:100580007900942F80E030E0282B392BC9010895A1
:10059000CF93DF93482F50E0CA0188589E4FFC014B
:1005A00034914E5C5E4FFA018491882369F190E0AA
:1005B000880F991FFC01EC51FF4FA591B491FC01EC
:1005C000E250FF4FC591D491662351F42FB7F894B0
:1005D0008C91932F909589238C93888189230BC0CC
:1005E000623061F42FB7F8948C91932F9095892302
:1005F0008C938881832B88832FBF06C09FB7F89484
:100600008C91832B8C939FBFDF91CF91089589307C
:1006100009F449C08A30A0F4843051F1853040F4A7
:10062000823079F1833000F5813009F063C026C053
:10063000873079F1883098F5863009F05BC025C0A5
:100640008D3009F442C08E3028F48B30B1F18C30FB
:10065000C0F52DC0803109F442C0813109F445C094
:100660008F3009F047C037C0809180008F7703C07A
:10067000809180008F7D80938000089584B58F776E
:1006800002C084B58F7D84BD08958091B0008F77BE
:1006900003C08091B0008F7D8093B0000895809159
:1006A00090008F7707C0809190008F7D03C080916C
:1006B0009000877F8093900008958091A0008F77AD
:1006C00007C08091A0008F7D03C08091A000877F2C
:1006D0008093A0000895809120018F7703C08091BE
:1006E00020018F7D80932001089580912001877FD4
:1006F000809320010895FF920F931F93F62E482FA9
:1007000050E0CA0182549E4FFC012491CA018858CE
:100710009E4FFC0114914E5C5E4FFA010491002340
:10072000C1F0222311F0822F72DFE02FF0E0EE0FF4
:10073000FF1FE250FF4FA591B4919FB7F894FF209F
:1007400021F48C911095812302C08C91812B8C9384
:100750009FBF1F910F91FF90089508951F920F92D0
:100760000FB60F920BB60F9211242F933F934F9316
:100770008F939F93EF93FF938091C00082FD1DC0E4
:100780004091C60020916702309168022F5F3F4F71
:100790002F7330708091690290916A02281739078F
:1007A00071F0E0916702F0916802E95DFD4F4083CE
:1007B000309368022093670202C08091C600FF91C7
:1007C000EF919F918F914F913F912F910F900BBE81
:1007D0000F900FBE0F901F90189508951F920F92C3
:1007E0000FB60F920BB60F9211242F933F934F9396
:1007F0008F939F93EF93FF938091C80082FD1DC05C
:100800004091CE002091EF023091F0022F5F3F4FD8
:100810002F7330708091F1029091F20228173907FE
:1008200071F0E091EF02F091F002E155FD4F40834D
:100830003093F0022093EF0202C08091CE00FF912E
:10084000EF919F918F914F913F912F910F900BBE00
:100850000F900FBE0F901F90189508951F920F9242
:100860000FB60F920BB60F9211242F933F934F9315
:100870008F939F93EF93FF938091D00082FD1DC0D3
:100880004091D60020917703309178032F5F3F4F3E
:100890002F7330708091790390917A03281739076C
:1008A00071F0E0917703F0917803E95CFC4F4083AD
:1008B000309378032093770302C08091D600FF9194
:1008C000EF919F918F914F913F912F910F900BBE80
:1008D0000F900FBE0F901F90189508951F920F92C2
:1008E0000FB60F920BB60F9211242F933F934F9395
:1008F0008F939F93EF93FF938091300182FD1DC0F2
:10090000409136012091FF03309100042F5F3F4F4B
:100910002F733070809101049091020428173907D9
:1009200071F0E091FF03F0910004E154FC4F40832B
:10093000309300042093FF0302C080913601FF91A1
:10094000EF919F918F914F913F912F910F900BBEFF
:100950000F900FBE0F901F901895E0915304F091E7
:100960005404E05CFF4F8191919120813181821B81
:10097000930B8F739070892B09F0EFDEE091750473
:10098000F0917604E05CFF4F81919191208131815B
:10099000821B930B8F739070892B09F01EDFE091FF
:1009A0009704F0919804E05CFF4F81919191208130
:1009B0003181821B930B8F739070892B09F04DDF6F
:1009C000E091B904F091BA04E05CFF4F81919191FC
:1009D00020813181821B930B8F739070892B09F0DA
:1009E0007CCF08951F920F920FB60F920BB60F9205
:1009F00011242F933F938F939F93EF93FF93209115
:100A0000AB023091AC028091AD029091AE022817FA
:100A1000390731F48091C1008F7D8093C10014C0EB
:100A2000E091AD02F091AE02E559FD4F2081809139
:100A3000AD029091AE0201968F7390709093AE02CA
:100A40008093AD022093C600FF91EF919F918F910B
:100A50003F912F910F900BBE0F900FBE0F901F90E4
:100A600018951F920F920FB60F920BB60F9211248A
:100A70002F933F938F939F93EF93FF932091330393
:100A8000309134038091350390913603281739074C
:100A900031F48091C9008F7D8093C90014C0E0912A
:100AA0003503F0913603ED50FD4F208180913503E1
:100AB0009091360301968F739070909336038093D4
:100AC00035032093CE00FF91EF919F918F913F913D
:100AD0002F910F900BBE0F900FBE0F901F90189587
:100AE0001F920F920FB60F920BB60F9211242F93F5
:100AF0003F938F939F93EF93FF932091BB0330918C
:100B0000BC038091BD039091BE032817390731F4CF
:100B10008091D1008F7D8093D10014C0E091BD03FE
:100B2000F091BE03E558FC4F20818091BD03909168
:100B3000BE0301968F7390709093BE038093BD03A4
:100B40002093D600FF91EF919F918F913F912F912C
:100B50000F900BBE0F900FBE0F901F9018951F9215
:100B60000F920FB60F920BB60F9211242F933F9353
:100B70008F939F93EF93FF9320914304309144040C
:100B800080914504909146042817390731F48091EB
:100B900031018F7D8093310114C0E0914504F091C3
:100BA0004604ED5FFB4F20818091450490914604FF
:100BB00001968F7390709093460480934504209320
:100BC0003601FF91EF919F918F913F912F910F905F
:100BD0000BBE0F900FBE0F901F901895AF92BF9253
:100BE000DF92EF92FF920F931F93CF93DF93EC016D
:100BF0007A018B01DD24403081EE580780E06807E0
:100C000080E0780711F0DD24D39491E0A92EB12C77
:100C1000EC89FD89DD2069F0C50108A002C0880FBC
:100C2000991F0A94E2F7808360E079E08DE390E019
:100C300005C0108260E874E88EE190E0A801970199
:100C40007FD32150304040405040569547953795CE
:100C5000279580E12030380720F0DD2011F0DD24D9
:100C6000D7CFE889F9893083EA89FB89208319A2E3
:100C7000EE89FF89408121E030E0C9010C8C02C07F
:100C8000880F991F0A94E2F7482B4083EE89FF8969
:100C90004081C9010D8C02C0880F991F0A94E2F7A8
:100CA000482B4083EE89FF894081C9010E8C02C028
:100CB000880F991F0A94E2F7482B4083EE89FF8939
:100CC00080810F8C02C0220F331F0A94E2F7209517
:100CD00028232083DF91CF911F910F91FF90EF90F8
:100CE000DF90BF90AF900895DC011C96ED91FC91D0
:100CF0001D97E05CFF4F2191319180819181281BEC
:100D0000390B2F733070C9010895DC011C96ED91E9
:100D1000FC911D97E05CFF4F20813181E054F04051
:100D2000DF01AE5BBF4F8D919C911197281739075A
:100D300019F42FEF3FEF07C08D919C91E80FF91F39
:100D40008081282F30E0C9010895DC011C96ED91C7
:100D5000FC911D97E05CFF4F20813181E054F04011
:100D6000DF01AE5BBF4F8D919C911197281739071A
:100D700019F42FEF3FEF10C08D919C911197E80F60
:100D8000F91F20818D919C91119701968F7390701E
:100D900011969C938E9330E0C9010895DC019196E1
:100DA0008C919197882339F05496ED91FC91559749
:100DB000808186FFF9CF91961C920895CF93DF939F
:100DC000EC01EE85FF85E05CFF4F20813181E0542E
:100DD000F0402F5F3F4F2F733070DF01AE5BBF4F8E
:100DE0008D919C91119728173907D1F3E05CFF4F43
:100DF00080819181E054F040E80FF91F6083EE8517
:100E0000FF85E05CFF4F31832083EE89FF892081DD
:100E100081E090E00F8C02C0880F991F0A94E2F7DE
:100E2000282B208381E089A3EC89FD89808180645F
:100E3000808381E090E0DF91CF9108951F9310921D
:100E40004A041092490428EE33E040E050E0209339
:100E50004B0430934C0440934D0450934E046FE088
:100E600072E0709348046093470487E292E09093A5
:100E70005404809353048BE692E09093560480933D
:100E8000550485EC90E0909358048093570484ECCB
:100E900090E090935A048093590480EC90E09093F2
:100EA0005C0480935B0481EC90E090935E048093FB
:100EB0005D0482EC90E09093600480935F0486EC84
:100EC00090E0909362048093610414E010936304B3
:100ED000B3E0B0936404A7E0A0936504F5E0F09359
:100EE0006604E1E0E093670410926C0410926B04D6
:100EF00020936D0430936E0440936F0450937004FC
:100F000070936A04609369048FEA92E09093760488
:100F10008093750483EF92E0909378048093770434
:100F20008DEC90E090937A04809379048CEC90E0BF
:100F300090937C0480937B0488EC90E090937E04F3
:100F400080937D0489EC90E09093800480937F04EB
:100F50008AEC90E090938204809381048EEC90E080
:100F6000909384048093830410938504B093860443
:100F7000A0938704F0938804E093890410928E0470
:100F800010928D0420938F04309390044093910429
:100F90005093920470938C0460938B0487E393E0E6
:100FA00090939804809397048BE793E090939A042E
:100FB0008093990485ED90E090939C0480939B042A
:100FC00084ED90E090939E0480939D0480ED90E0EA
:100FD0009093A00480939F0481ED90E09093A204ED
:100FE0008093A10482ED90E09093A4048093A304E5
:100FF00086ED90E09093A6048093A5041093A70437
:10100000B093A804A093A904F093AA04E093AB04BE
:101010001092B0041092AF042093B1043093B20444
:101020004093B3045093B4047093AE046093AD0442
:101030008FEB93E09093BA048093B90483E094E03B
:101040009093BC048093BB0485E391E09093BE042D
:101050008093BD0484E391E09093C0048093BF0427
:1010600080E391E09093C2048093C10481E391E016
:101070009093C4048093C30482E391E09093C604E8
:101080008093C50486E391E09093C8048093C704DD
:101090001093C904B093CA04A093CB04F093CC047A
:1010A000E093CD041F910895CF93DF93DBD909D945
:1010B000CDEAD4E0FCD82097E9F34FDCFBCFCF9208
:1010C000DF92EF92FF920F931F93CF93DF937C01F8
:1010D0006B018A01C0E0D0E00FC0D6016D916D01B7
:1010E000D701ED91FC910190F081E02DC701199598
:1010F000C80FD91F015010400115110571F7CE011D
:10110000DF91CF911F910F91FF90EF90DF90CF90E3
:101110000895EF92FF920F931F938C01DC01ED91E4
:10112000FC910190F081E02D6DE019957C01D801D2
:10113000ED91FC910190F081E02DC8016AE01995D4
:101140009C012E0D3F1DC9011F910F91FF90EF9043
:101150000895CF93DF93EC016115710519F420E038
:1011600030E00FC0DB010D900020E9F71197A61BBE
:10117000B70BE881F9810280F381E02DAD0119956B
:101180009C01C901DF91CF9108954F925F927F92A8
:101190008F929F92AF92BF92CF92DF92EF92FF9287
:1011A0000F931F93DF93CF93CDB7DEB7A1970FB601
:1011B000F894DEBF0FBECDBF2C01742ECB012230C0
:1011C00008F42AE019A231E2C32ED12CCC0EDD1E88
:1011D000822E9924AA24BB24672D752FA501940182
:1011E000AFD079018A01C801B701A501940189D066
:1011F000472D461B0894C108D1084A3014F4405DBD
:1012000001C0495CF6014083E114F10401051105B8
:1012100021F07E2C5F2DC801DFCFC201B60199DF1E
:10122000A1960FB6F894DEBF0FBECDBFCF91DF9170
:101230001F910F91FF90EF90DF90CF90BF90AF90F4
:101240009F908F907F905F904F900895CF92DF9204
:10125000EF92FF920F931F93CF93DF93EC016A01FC
:101260007B012115310541F4E881F9810190F0817C
:10127000E02D642F19951DC02A303105C9F477FF80
:1012800016C0E881F9810190F081E02D6DE2199599
:101290008C0144275527BA014C195D096E097F0955
:1012A000CE012AE072DF9801280F391F03C02AE01F
:1012B0006CDF9C01C901DF91CF911F910F91FF90CD
:1012C000EF90DF90CF900895CF92DF92EF92FF9250
:1012D0000F931F936C017B019A010027F7FC009587
:1012E000102FB801A701B2DF8C01C60112DF080F71
:1012F000191FC8011F910F91FF90EF90DF90CF90C1
:101300000895629FD001739FF001829FE00DF11D4F
:10131000649FE00DF11D929FF00D839FF00D749F6F
:10132000F00D659FF00D9927729FB00DE11DF91F1B
:10133000639FB00DE11DF91FBD01CF011124089578
:10134000A1E21A2EAA1BBB1BFD010DC0AA1FBB1FC9
:10135000EE1FFF1FA217B307E407F50720F0A21B3B
:10136000B30BE40BF50B661F771F881F991F1A94A8
:1013700069F760957095809590959B01AC01BD01D2
:10138000CF010895EE0FFF1F0590F491E02D199401
:04139000F894FFCFFF
:10139400020003000400050036000100000000DE26
:0C13A400065F087406A5068506CE06004C
:00000001FF
