:100000000C9462000C948A000C948A000C948A0070
:100010000C948A000C948A000C948A000C948A0038
:100020000C948A000C948A000C948A000C948A0028
:100030000C948A000C948A000C948A000C948A0018
:100040000C94FB050C948A000C94D2010C942002B1
:100050000C948A000C948A000C948A000C948A00F8
:100060000C948A000C948A000000000024002700F1
:100070002A0000000000250028002B0000000000DE
:1000800023002600290004040404040404040202DA
:100090000202020203030303030301020408102007
:1000A0004080010204081020010204081020000012
:1000B0000007000201000003040600000000000029
:1000C00000008C0311241FBECFEFD8E0DEBFCDBFF0
:1000D00011E0A0E0B1E0EAEAFDE002C005900D9277
:1000E000AE32B107D9F711E0AEE2B1E001C01D9226
:1000F000A33EB107E1F710E0C4ECD0E004C02297C2
:10010000FE010E94CF06C23CD107C9F70E94E2035C
:100110000C94D3060C94000088EB91E00E94E2025C
:100120001816190604F588EB91E00E94F705709304
:100130002F0160932E01E091B801F091B901028086
:10014000F381E02D88EB91E060E071E04CE050E05D
:10015000099560912E0170912F0188EB91E04AE0A2
:1001600050E00E940E0560912E0170912F01809148
:100170001C010E94DE0060912E0170912F0188EB1E
:1001800091E04AE050E00E94FB0488EB91E06DE0D2
:1001900071E00E942D05089588EB91E040E855E25A
:1001A00060E070E00E945B0280911C0161E00E94AF
:1001B0003E0110922F0110922E0108951F93CF93AC
:1001C000DF93182FEB0161E00E943E01209709F4B4
:1001D0004AC0CF3FD10509F449C0E12FF0E0E25514
:1001E000FF4F84918330C1F0843028F4813051F086
:1001F0008230B1F50CC0863019F1873049F1843076
:1002000079F514C084B5806884BDC7BD33C084B59A
:10021000806284BDC8BD2EC08091800080688093BC
:100220008000D0938900C093880024C08091800012
:10023000806280938000D0938B00C0938A001AC0A4
:100240008091B00080688093B000C093B30012C06A
:100250008091B00080628093B000C093B4000AC067
:10026000C038D1051CF4812F60E002C0812F61E00D
:100270000E947D01DF91CF911F910895CF93DF936D
:10028000482F50E0CA0186569F4FFC0134914A57CF
:100290005F4FFA018491882369F190E0880F991FDC
:1002A000FC01E859FF4FA591B491FC01EE58FF4FB6
:1002B000C591D491662351F42FB7F8948C91932F64
:1002C000909589238C93888189230BC0623061F4D7
:1002D0002FB7F8948C91932F909589238C938881D4
:1002E000832B88832FBF06C09FB7F8948C91832BF4
:1002F0008C939FBFDF91CF910895482F50E0CA01A2
:1003000082559F4FFC012491CA0186569F4FFC01E4
:1003100094914A575F4FFA013491332309F440C056
:10032000222351F1233071F0243028F42130A1F040
:10033000223011F514C02630B1F02730C1F024303E
:10034000D9F404C0809180008F7703C08091800031
:100350008F7D8093800010C084B58F7702C084B5F4
:100360008F7D84BD09C08091B0008F7703C08091DC
:10037000B0008F7D8093B000E32FF0E0EE0FFF1F01
:10038000EE58FF4FA591B4912FB7F894662321F44E
:100390008C919095892302C08C91892B8C932FBFCF
:1003A000089508951F920F920FB60F9211242F9364
:1003B0003F934F938F939F93EF93FF938091C00050
:1003C00082FD1DC04091C6002091700130917101E5
:1003D0002F5F3F4F2F7330708091720190917301A6
:1003E0002817390771F0E0917001F0917101E05D1B
:1003F000FE4F4083309371012093700102C08091C1
:10040000C600FF91EF919F918F914F913F912F9156
:100410000F900FBE0F901F901895E091C401F091BE
:10042000C501E05CFF4F8191919120813181821B58
:10043000930B8F739070892B11F00E94D101089556
:100440001F920F920FB60F9211242F933F938F9309
:100450009F93EF93FF932091B4013091B501809168
:10046000B6019091B7012817390731F48091C10086
:100470008F7D8093C10014C0E091B601F091B70167
:10048000EC58FE4F20818091B6019091B701019602
:100490008F7390709093B7018093B6012093C6003C
:1004A000FF91EF919F918F913F912F910F900FBEF0
:1004B0000F901F901895AF92BF92DF92EF92FF922C
:1004C0000F931F93CF93DF93EC017A018B01DD240F
:1004D000403081EE580780E0680780E0780711F02F
:1004E000DD24D39491E0A92EB12CEC89FD89DD2087
:1004F00069F0C50108A002C0880F991F0A94E2F7AD
:10050000808360E079E08DE390E005C0108260E8D0
:1005100074E88EE190E0A80197010E94AB0621509B
:10052000304040405040569547953795279580E19B
:100530002030380720F0DD2011F0DD24D6CFE88907
:10054000F9893083EA89FB89208319A2EE89FF8922
:10055000408121E030E0C9010C8C02C0880F991F56
:100560000A94E2F7482B4083EE89FF894081C90154
:100570000D8C02C0880F991F0A94E2F7482B408324
:10058000EE89FF894081C9010E8C02C0880F991F36
:100590000A94E2F7482B4083EE89FF8980810F8C13
:1005A00002C0220F331F0A94E2F7209528232083EC
:1005B000DF91CF911F910F91FF90EF90DF90BF904F
:1005C000AF900895DC011C96ED91FC911D97E05CC5
:1005D000FF4F2191319180819181281B390B2F731D
:1005E0003070C9010895DC011C96ED91FC911D97B6
:1005F000E05CFF4F20813181E054F040DF01AE5BD1
:10060000BF4F8D919C9111972817390719F42FEF3F
:100610003FEF07C08D919C91E80FF91F8081282F33
:1006200030E0C9010895DC011C96ED91FC911D9705
:10063000E05CFF4F20813181E054F040DF01AE5B90
:10064000BF4F8D919C9111972817390719F42FEFFF
:100650003FEF10C08D919C911197E80FF91F2081F9
:100660008D919C91119701968F73907011969C9328
:100670008E9330E0C9010895DC0191968C91919799
:10068000882339F05496ED91FC915597808186FF2F
:10069000F9CF91961C920895CF93DF93EC01EE85EC
:1006A000FF85E05CFF4F20813181E054F0402F5FF7
:1006B0003F4F2F733070DF01AE5BBF4F8D919C9128
:1006C000119728173907D1F3E05CFF4F80819181A2
:1006D000E054F040E80FF91F6083EE85FF85E05C91
:1006E000FF4F31832083EE89FF89208181E090E0F4
:1006F0000F8C02C0880F991F0A94E2F7282B2083E1
:1007000081E089A3EC89FD8980818064808381E018
:1007100090E0DF91CF9108951092BB011092BA0141
:1007200088EE93E0A0E0B0E08093BC019093BD011F
:10073000A093BE01B093BF0182E291E09093B90112
:100740008093B80180E391E09093C5018093C40148
:1007500084E791E09093C7018093C60185EC90E017
:100760009093C9018093C80184EC90E09093CB01F1
:100770008093CA0180EC90E09093CD018093CC01EE
:1007800081EC90E09093CF018093CE0182EC90E0D9
:100790009093D1018093D00186EC90E09093D301A7
:1007A0008093D20184E08093D40183E08093D501CB
:1007B00087E08093D60185E08093D70181E0809324
:1007C000D8010895CF93DF930E9451060E94CC0078
:1007D000CDE0D2E00E948C002097E1F30E940D0250
:1007E000F9CFCF92DF92EF92FF920F931F93CF93A7
:1007F000DF937C016B018A01C0E0D0E00FC0D6011D
:100800006D916D01D701ED91FC910190F081E02D8A
:10081000C7010995C80FD91F0150104001151105D6
:1008200071F7CE01DF91CF911F910F91FF90EF9063
:10083000DF90CF900895EF92FF920F931F938C015A
:10084000DC01ED91FC910190F081E02D6DE00995C6
:100850007C01D801ED91FC910190F081E02DC8015F
:100860006AE009959C012E0D3F1DC9011F910F9152
:10087000FF90EF900895CF93DF93EC016115710520
:1008800019F420E030E00FC0DB010D900020E9F703
:100890001197A61BB70BE881F9810280F381E02D47
:1008A000AD0109959C01C901DF91CF9108954F9247
:1008B0005F927F928F929F92AF92BF92CF92DF9280
:1008C000EF92FF920F931F93DF93CF93CDB7DEB7D5
:1008D000A1970FB6F894DEBF0FBECDBF2C01742ECA
:1008E000CB01223008F42AE019A231E2C32ED12C28
:1008F000CC0EDD1E822E9924AA24BB24672D752FD1
:10090000A50194010E94AB0679018A01C801B701D3
:10091000A50194010E948C06472D461B0894C1082E
:10092000D1084A3014F4405D01C0495CF6014083AF
:10093000E114F1040105110521F07E2C5F2DC801A1
:10094000DDCFC201B6010E943B04A1960FB6F89418
:10095000DEBF0FBECDBFCF91DF911F910F91FF90F2
:10096000EF90DF90CF90BF90AF909F908F907F904F
:100970005F904F900895CF92DF92EF92FF920F9386
:100980001F93CF93DF93EC016A017B0121153105A1
:1009900041F4E881F9810190F081E02D642F0995FF
:1009A0001FC02A303105D1F477FF17C0E881F981E3
:1009B0000190F081E02D6DE209958C0144275527C7
:1009C000BA014C195D096E097F09CE012AE00E9427
:1009D00057049801280F391F04C02AE00E945704C9
:1009E0009C01C901DF91CF911F910F91FF90EF9072
:1009F000DF90CF900895EF92FF920F931F937B01AA
:100A00009A010027F7FC0095102FB801A7010E945A
:100A1000BB041F910F91FF90EF900895CF92DF924A
:100A2000EF92FF920F931F936C017B019A010027B5
:100A3000F7FC0095102FB801A7010E94BB048C01A0
:100A4000C6010E941B04080F191FC8011F910F91B6
:100A5000FF90EF90DF90CF900895EF92FF920F9369
:100A60001F937C010E943B048C01C7010E941B0460
:100A7000080F191FC8011F910F91FF90EF90089563
:100A8000CF93DF93EC010E944306688779878A87BA
:100A90009B87E881F9810084F185E02DCE010995DD
:100AA0009C0197FF15C00E944306288539854A8519
:100AB0005B85621B730B840B950B2C813D814E81F2
:100AC0005F81621773078407950718F32FEF3FEFD5
:100AD000C901DF91CF910895CF93DF93EC01CE014F
:100AE0000E9440059C0197FD0EC08D32910559F082
:100AF000C0970A9740F0E881F9810680F781E02DE0
:100B0000CE010995ECCFC901DF91CF9108959F9255
:100B1000AF92BF92CF92DF92EF92FF920F931F930B
:100B2000CF93DF936C01B62E0E946C05EC0197FF0A
:100B300004C0EE24FF2487014CC09924EE24FF2436
:100B40008701AB2CBB24A7FCB094CA15DB0529F1A7
:100B5000CD32D10519F4992493941FC0CE01C097CA
:100B60000A97D8F4C801B7012AE030E040E050E02D
:100B70000E948C067B018C01CE01AA2797FDA095CF
:100B8000BA2FE80EF91E0A1F1B1F80ED9FEFAFEF73
:100B9000BFEFE80EF91E0A1F1B1FD601ED91FC9155
:100BA0000680F781E02DC6010995C6010E94400527
:100BB000EC01C0970A9748F2CA15DB0531F299207B
:100BC00041F010950095F094E094E11CF11C011D9A
:100BD000111DB701C801DF91CF911F910F91FF90B7
:100BE000EF90DF90CF90BF90AF909F90089561E01D
:100BF0000E94870508951F920F920FB60F9211243D
:100C00002F933F938F939F93AF93BF938091DE0178
:100C10009091DF01A091E001B091E1013091E201FA
:100C20000196A11DB11D232F2D5F2D3720F02D57CB
:100C30000196A11DB11D2093E2018093DE019093E6
:100C4000DF01A093E001B093E1018091DA0190917E
:100C5000DB01A091DC01B091DD010196A11DB11D68
:100C60008093DA019093DB01A093DC01B093DD0166
:100C7000BF91AF919F918F913F912F910F900FBE98
:100C80000F901F9018958FB7F8942091DE01309146
:100C9000DF014091E0015091E1018FBFB901CA012C
:100CA0000895789484B5826084BD84B5816084BDE4
:100CB00085B5826085BD85B5816085BDEEE6F0E0D5
:100CC000808181608083E1E8F0E010828081826031
:100CD0008083808181608083E0E8F0E080818160B2
:100CE0008083E1EBF0E0808184608083E0EBF0E0E2
:100CF000808181608083EAE7F0E080818460808386
:100D0000808182608083808181608083808180682F
:100D100080831092C1000895629FD001739FF001FB
:100D2000829FE00DF11D649FE00DF11D929FF00D7B
:100D3000839FF00D749FF00D659FF00D9927729FB2
:100D4000B00DE11DF91F639FB00DE11DF91FBD013D
:100D5000CF0111240895A1E21A2EAA1BBB1BFD018D
:100D60000DC0AA1FBB1FEE1FFF1FA217B307E4078A
:100D7000F50720F0A21BB30BE40BF50B661F771FE2
:100D8000881F991F1A9469F76095709580959095C2
:100D90009B01AC01BD01CF010895EE0FFF1F05902F
:0A0DA000F491E02D0994F894FFCFC0
:100DAA0069206861766520676F743A20002068615F
:100DBA0073206265656E2073656E7400030000001F
:0E0DCA0000004C03F103E2021303F3023C03AA
:00000001FF
