:1000000002C100002AC1000028C1000026C1000072
:1000100024C1000022C1000020C100001EC1000058
:100020001CC100001AC1000018C1000016C1000068
:1000300014C1000012C1000010C100000EC1000078
:100040000CC100000AC1000008C1000006C1000088
:1000500004C1000002C1000000C10000CDC70000C3
:10006000FCC00000F6C1000038C30000F6C000006C
:10007000F4C00000F2C00000F0C00000EEC00000BC
:10008000ECC00000EAC00000E8C00000E6C00000CC
:1000900020C2000061C30000E0C00000DEC000001C
:1000A000DCC00000DAC00000D8C00000D6C00000EC
:1000B000D4C00000D2C00000D0C00000CEC00000FC
:1000C000CCC00000CAC00000C8C0000042C200008E
:1000D00082C30000C2C000007CC20000BBC300009D
:1000E000BCC0000000002100240027002A002D00D1
:1000F0003000330001010000040107010A01000083
:100100002200250028002B002E00310034000201BF
:100110000000050108010B0100002000230026005B
:1001200029002C002F00320000010000030106010D
:10013000090105050505070508080808020202026D
:100140000A0A080804040404010101010101010173
:100150000303030303030303040707070C0C0C0C3E
:100160000C0C0C0C02020202060606060606060627
:100170000B0B0B0B0B0B0B0B0102102020080810B4
:100180002040102040800201020108040201010207
:1001900004081020408080402010080402018004E0
:1001A000020180402010080402010804020101023B
:1001B0000408102040800102040810204080000044
:1001C000090A02080B0C0D070603040100000000D9
:1001D000000000000000000000000000000000001F
:1001E0000000000000000000000011100F000000DF
:1001F00000000000000000000000000000000000FF
:1002000000000000990511241FBECFEFD1E2DEBF30
:10021000CDBF00E00CBF12E0A0E0B2E0EEEDF1E1F6
:1002200000E00BBF02C007900D92A431B107D9F7CF
:100230001BBE14E0A4E1B2E001C01D92A53CB107D1
:10024000E1F712E0C6E0D2E003C02297FE01C1D779
:10025000C430D107D1F7A3D5C0C7D2CE8091020256
:10026000C8D0BC0184E394E04AE050E0A8C684E32F
:1002700094E040E855E260E070E02BD3809100020A
:1002800060E004D08091020260E000C0CF93DF9371
:10029000482F50E0CA0188589E4FFC0134914E5CB3
:1002A0005E4FFA018491882369F190E0880F991FCD
:1002B000FC01EC51FF4FA591B491FC01E250FF4FBE
:1002C000C591D491662351F42FB7F8948C91932F54
:1002D000909589238C93888189230BC0623061F4C7
:1002E0002FB7F8948C91932F909589238C938881C4
:1002F000832B88832FBF06C09FB7F8948C91832BE4
:100300008C939FBFDF91CF910895893009F449C044
:100310008A30A0F4843051F1853040F4823079F194
:10032000833000F5813009F063C026C0873079F151
:10033000883098F5863009F05BC025C08D3009F40F
:1003400042C08E3028F48B30B1F18C30C0F52DC016
:10035000803109F442C0813109F445C08F3009F081
:1003600047C037C0809180008F7703C080918000A4
:100370008F7D80938000089584B58F7702C084B507
:100380008F7D84BD08958091B0008F7703C08091E8
:10039000B0008F7D8093B0000895809190008F779A
:1003A00007C0809190008F7D03C080919000877F6F
:1003B0008093900008958091A0008F7707C080916E
:1003C000A0008F7D03C08091A000877F8093A00054
:1003D0000895809120018F7703C0809120018F7D47
:1003E00080932001089580912001877F80932001D0
:1003F00008950F931F93482F50E0CA0182549E4FD7
:10040000FC012491CA0188589E4FFC0104914E5C66
:100410005E4FFA011491112319F420E030E014C06A
:10042000222311F0822F71DF812F90E0880F991F16
:10043000885E9E4FFC01A591B4918C9120E030E044
:10044000802311F021E030E0C9011F910F91089540
:1004500008951F920F920FB60F920BB60F921124B0
:100460002F933F934F938F939F93EF93FF9380919D
:10047000C00082FD1DC04091C60020915402309101
:1004800055022F5F3F4F2F7330708091560290912D
:1004900057022817390771F0E0915402F091550284
:1004A000EC5EFD4F4083309355022093540202C00E
:1004B0008091C600FF91EF919F918F914F913F9155
:1004C0002F910F900BBE0F900FBE0F901F9018959D
:1004D00008951F920F920FB60F920BB60F92112430
:1004E0002F933F934F938F939F93EF93FF9380911D
:1004F000C80082FD1DC04091CE002091DC023091E9
:10050000DD022F5F3F4F2F7330708091DE0290919C
:10051000DF022817390771F0E091DC02F091DD026B
:10052000E456FD4F40833093DD022093DC0202C08D
:100530008091CE00FF91EF919F918F914F913F91CC
:100540002F910F900BBE0F900FBE0F901F9018951C
:1005500008951F920F920FB60F920BB60F921124AF
:100560002F933F934F938F939F93EF93FF9380919C
:10057000D00082FD1DC04091D600209164033091CF
:1005800065032F5F3F4F2F7330708091660390910A
:1005900067032817390771F0E0916403F091650350
:1005A000EC5DFC4F4083309365032093640302C0ED
:1005B0008091D600FF91EF919F918F914F913F9144
:1005C0002F910F900BBE0F900FBE0F901F9018959C
:1005D00008951F920F920FB60F920BB60F9211242F
:1005E0002F933F934F938F939F93EF93FF9380911C
:1005F000300182FD1DC0409136012091EC03309105
:10060000ED032F5F3F4F2F7330708091EE03909179
:10061000EF032817390771F0E091EC03F091ED0337
:10062000E455FC4F40833093ED032093EC0302C06C
:1006300080913601FF91EF919F918F914F913F9162
:100640002F910F900BBE0F900FBE0F901F9018951B
:10065000E0914004F0914104E05CFF4F8191919161
:1006600020813181821B930B8F739070892B09F04D
:10067000EFDEE0916204F0916304E05CFF4F819152
:10068000919120813181821B930B8F739070892B04
:1006900009F01EDFE0918404F0918504E05CFF4FD7
:1006A0008191919120813181821B930B8F73907086
:1006B000892B09F04DDFE091A604F091A704E05CDE
:1006C000FF4F8191919120813181821B930B8F7318
:1006D0009070892B09F07CCF08951F920F920FB66E
:1006E0000F920BB60F9211242F933F938F939F93EA
:1006F000EF93FF93209198023091990280919A0292
:1007000090919B022817390731F48091C1008F7DA9
:100710008093C10014C0E0919A02F0919B02E85AC4
:10072000FD4F208180919A0290919B0201968F73D8
:10073000907090939B0280939A022093C600FF9141
:10074000EF919F918F913F912F910F900BBE0F9042
:100750000FBE0F901F9018951F920F920FB60F9219
:100760000BB60F9211242F933F938F939F93EF9388
:10077000FF932091200330912103809122039091D7
:1007800023032817390731F48091C9008F7D8093A6
:10079000C90014C0E0912203F0912303E052FD4F01
:1007A0002081809122039091230301968F73907092
:1007B00090932303809322032093CE00FF91EF9127
:1007C0009F918F913F912F910F900BBE0F900FBE75
:1007D0000F901F9018951F920F920FB60F920BB6A5
:1007E0000F9211242F933F938F939F93EF93FF9337
:1007F0002091A8033091A9038091AA039091AB03A3
:100800002817390731F48091D1008F7D8093D10072
:1008100014C0E091AA03F091AB03E859FC4F20818A
:100820008091AA039091AB0301968F73907090937F
:10083000AB038093AA032093D600FF91EF919F9181
:100840008F913F912F910F900BBE0F900FBE0F9085
:100850001F9018951F920F920FB60F920BB60F9222
:1008600011242F933F938F939F93EF93FF932091A6
:100870003004309131048091320490913304281770
:10088000390731F4809131018F7D8093310114C09B
:10089000E0913204F0913304E051FC4F20818091CB
:1008A00032049091330401968F73907090933304C7
:1008B0008093320420933601FF91EF919F918F91A5
:1008C0003F912F910F900BBE0F900FBE0F901F9076
:1008D0001895AF92BF92DF92EF92FF920F931F9302
:1008E000CF93DF93EC017A018B01DD24403081EE60
:1008F000580780E0680780E0780711F0DD24D39482
:1009000091E0A92EB12CEC89FD89DD2069F0C501AB
:1009100008A002C0880F991F0A94E2F7808360E064
:1009200079E08DE390E005C0108260E874E88EE124
:1009300090E0A801970129D4215030404040504018
:10094000569547953795279580E12030380720F058
:10095000DD2011F0DD24D7CFE889F9893083EA89D9
:10096000FB89208319A2EE89FF89408121E030E0D4
:10097000C9010C8C02C0880F991F0A94E2F7482B1A
:100980004083EE89FF894081C9010D8C02C0880F28
:10099000991F0A94E2F7482B4083EE89FF89408132
:1009A000C9010E8C02C0880F991F0A94E2F7482BE8
:1009B0004083EE89FF8980810F8C02C0220F331F94
:1009C0000A94E2F7209528232083DF91CF911F918D
:1009D0000F91FF90EF90DF90BF90AF900895DC01F2
:1009E0001C96ED91FC911D97E05CFF4F2191319198
:1009F00080819181281B390B2F733070C9010895B4
:100A0000DC011C96ED91FC911D97E05CFF4F20816D
:100A10003181E054F040DF01AE5BBF4F8D919C917E
:100A200011972817390719F42FEF3FEF07C08D9161
:100A30009C91E80FF91F8081282F30E0C9010895AB
:100A4000DC011C96ED91FC911D97E05CFF4F20812D
:100A50003181E054F040DF01AE5BBF4F8D919C913E
:100A600011972817390719F42FEF3FEF10C08D9118
:100A70009C911197E80FF91F20818D919C911197FE
:100A800001968F73907011969C938E9330E0C901FC
:100A90000895DC0191968C919197882339F05496B2
:100AA000ED91FC915597808186FFF9CF91961C922C
:100AB0000895CF93DF93EC01EE85FF85E05CFF4F57
:100AC00020813181E054F0402F5F3F4F2F73307011
:100AD000DF01AE5BBF4F8D919C91119728173907AD
:100AE000D1F3E05CFF4F80819181E054F040E80F4A
:100AF000F91F6083EE85FF85E05CFF4F3183208323
:100B0000EE89FF89208181E090E00F8C02C0880F80
:100B1000991F0A94E2F7282B208381E089A3EC89AE
:100B2000FD8980818064808381E090E0DF91CF91B6
:100B300008951F93109237041092360428EE33E084
:100B400040E050E0209338043093390440933A0455
:100B500050933B0468E072E0709335046093340472
:100B600084E192E0909341048093400488E592E010
:100B7000909343048093420485EC90E09093450465
:100B80008093440484EC90E090934704809346045F
:100B900080EC90E0909349048093480481EC90E0CD
:100BA00090934B0480934A0482EC90E090934D0420
:100BB00080934C0486EC90E090934F0480934E0415
:100BC00014E010935004B3E0B0935104A7E0A09355
:100BD0005204F5E0F0935304E1E0E09354041092E2
:100BE00059041092580420935A0430935B044093A4
:100BF0005C0450935D0470935704609356048CE931
:100C000092E0909363048093620480EE92E090936C
:100C10006504809364048DEC90E090936704809366
:100C200066048CEC90E0909369048093680488ECEF
:100C300090E090936B0480936A0489EC90E0909329
:100C40006D0480936C048AEC90E090936F04809321
:100C50006E048EEC90E09093710480937004109376
:100C60007204B0937304A0937404F0937504E0933A
:100C7000760410927B0410927A0420937C043093C3
:100C80007D0440937E0450937F04709379046093B5
:100C9000780484E293E0909385048093840488E64A
:100CA00093E0909387048093860485ED90E0909381
:100CB00089048093880484ED90E090938B04809362
:100CC0008A0480ED90E090938D0480938C0481EDF4
:100CD00090E090938F0480938E0482ED90E0909347
:100CE00091048093900486ED90E090939304809318
:100CF000920410939404B0939504A0939604F093F7
:100D00009704E093980410929D0410929C04209301
:100D10009E0430939F044093A0045093A1047093C9
:100D20009B0460939A048CEA93E09093A7048093C9
:100D3000A60480EF93E09093A9048093A80485E330
:100D400091E09093AB048093AA0484E391E09093A4
:100D5000AD048093AC0480E391E09093AF04809362
:100D6000AE0481E391E09093B1048093B00482E3F8
:100D700091E09093B3048093B20486E391E0909362
:100D8000B5048093B4041093B604B093B704A09351
:100D9000B804F093B904E093BA041F910895CF9377
:100DA000DF9372D164DAC8E2D3E058DA2097E9F32E
:100DB0004FDCFBCFCF92DF92EF92FF920F931F9306
:100DC000CF93DF937C016B018A01C0E0D0E00FC0BC
:100DD000D6016D916D01D701ED91FC910190F081EB
:100DE000E02DC7011995C80FD91F015010400115FA
:100DF000110571F7CE01DF91CF911F910F91FF90F7
:100E0000EF90DF90CF900895EF92FF920F931F9392
:100E10008C01DC01ED91FC910190F081E02D6DE001
:100E200019957C01D801ED91FC910190F081E02DA4
:100E3000C8016AE019959C012E0D3F1DC9011F9143
:100E40000F91FF90EF900895CF93DF93EC01611520
:100E5000710519F420E030E00FC0DB010D90002097
:100E6000E9F71197A61BB70BE881F9810280F3819E
:100E7000E02DAD0119959C01C901DF91CF91089535
:100E80004F925F927F928F929F92AF92BF92CF923A
:100E9000DF92EF92FF920F931F93DF93CF93CDB723
:100EA000DEB7A1970FB6F894DEBF0FBECDBF2C0101
:100EB000742ECB01223008F42AE019A231E2C32EAD
:100EC000D12CCC0EDD1E822E9924AA24BB24672DA2
:100ED000752FA501940159D179018A01C801B70183
:100EE000A501940133D1472D461B0894C108D108B0
:100EF0004A3014F4405D01C0495CF6014083E114BE
:100F0000F1040105110521F07E2C5F2DC801DFCF12
:100F1000C201B60199DFA1960FB6F894DEBF0FBEED
:100F2000CDBFCF91DF911F910F91FF90EF90DF9098
:100F3000CF90BF90AF909F908F907F905F904F9099
:100F40000895CF92DF92EF92FF920F931F93CF936A
:100F5000DF93EC016A017B012115310541F4E88141
:100F6000F9810190F081E02D642F19951DC02A3080
:100F70003105C9F477FF16C0E881F9810190F0814D
:100F8000E02D6DE219958C0144275527BA014C19C3
:100F90005D096E097F09CE012AE072DF9801280FF2
:100FA000391F03C02AE06CDF9C01C901DF91CF919A
:100FB0001F910F91FF90EF90DF90CF900895CF9207
:100FC000DF92EF92FF920F931F936C017B019A01C6
:100FD0000027F7FC0095102FB801A701B2DF8C01A4
:100FE000C60112DF080F191FC8011F910F91FF9052
:100FF000EF90DF90CF9008951F920F920FB60F924F
:1010000011242F933F938F939F93AF93BF9380911E
:10101000C0049091C104A091C204B091C304309166
:10102000C4040196A11DB11D232F2D5F2D3720F083
:101030002D570196A11DB11D2093C4048093C004B7
:101040009093C104A093C204B093C3048091BC04E4
:101050009091BD04A091BE04B091BF040196A11D62
:10106000B11D8093BC049093BD04A093BE04B093C3
:10107000BF04BF91AF919F918F913F912F910F909E
:101080000FBE0F901F901895789484B5826084BD30
:1010900084B5816084BD85B5826085BD85B581607C
:1010A00085BDEEE6F0E0808181608083E1E8F0E0DC
:1010B0001082808182608083808181608083E0E80B
:1010C000F0E0808181608083E1EBF0E080818460EA
:1010D0008083E0EBF0E0808181608083E1E9F0E0F3
:1010E000808182608083808181608083E0E9F0E09C
:1010F000808181608083E1EAF0E08081826080838A
:10110000808181608083E0EAF0E08081816080837B
:10111000E1E2F1E080818260808380818160808370
:10112000E0E2F1E0808181608083EAE7F0E08081A5
:1011300084608083808182608083808181608083FD
:101140008081806880831092C1000895629FD001E1
:10115000739FF001829FE00DF11D649FE00DF11D72
:10116000929FF00D839FF00D749FF00D659FF00D21
:101170009927729FB00DE11DF91F639FB00DE11D0E
:10118000F91FBD01CF0111240895A1E21A2EAA1B57
:10119000BB1BFD010DC0AA1FBB1FEE1FFF1FA21727
:1011A000B307E407F50720F0A21BB30BE40BF50B24
:1011B000661F771F881F991F1A9469F760957095AD
:1011C000809590959B01AC01BD01CF010895EE0F74
:0E11D000FF1F0590F491E02D1994F894FFCFC5
:1011DE0009000800000000005905DA06EF0420059A
:0411EE0000054905AA
:00000001FF
