:1000000003C100002EC100002CC100002AC1000065
:1000100028C1000026C1000024C1000022C1000048
:1000200020C100001EC100001CC100001AC1000058
:1000300018C1000016C1000014C1000012C1000068
:1000400010C100000EC100000CC100000AC1000078
:1000500008C1000006C1000004C1000055C5000031
:1000600000C10000FBC600000C947208FAC000003A
:10007000F8C00000F6C00000F4C00000F2C00000AC
:10008000F0C00000EEC00000ECC00000EAC00000BC
:1000900025C700000C94B108E4C0000084C3000030
:1000A000E0C00000DEC00000DCC00000DAC00000DC
:1000B000D8C00000D6C00000D4C00000D2C00000EC
:1000C000D0C00000CEC00000CCC0000047C7000078
:1000D0000C94F008C6C0000081C700000C942F09E2
:1000E000C0C0000000002100240027002A002D00CD
:1000F0003000330001010000040107010A01000083
:100100002200250028002B002E00310034000201BF
:100110000000050108010B0100002000230026005B
:1001200029002C002F00320000010000030106010D
:10013000090105050505070508080808020202026D
:100140000A0A080804040404010101010101010173
:100150000303030303030303040707070C0C0C0C3E
:100160000C0C0C0C02020202060606060606060627
:100170000B0B0B0B0B0B0B0B0102102020080810B4
:100180002040102040800201020108040201010207
:1001900004081020408080402010080402018004E0
:1001A000020180402010080402010804020101023B
:1001B0000408102040800102040810204080000044
:1001C000090A02080B0C0D070603040100000000D9
:1001D000000000000000000000000000000000001F
:1001E0000000000000000000000011100F000000DF
:1001F00000000000000000000000000000000000FF
:100200000000000079029E0A11241FBECFEFD1E248
:10021000DEBFCDBF00E00CBF12E0A0E0B2E0E2EE36
:10022000FAE100E00BBF02C007900D92A234B107C3
:10023000D9F71BBE15E0A2E4B2E001C01D92A93BB4
:10024000B107E1F712E0C8E0D2E004C02297FE0156
:100250000E946B0DC430D107C9F70E94D40B0C94D7
:100260006F0DCECEEF92FF920F931F939C01F62E4F
:10027000E42E0EE812E0C801B90101D1C8016F2DCA
:100280007FD1C8016E2D7CD1C801BBD11F910F91C8
:10029000FF90EF900895CF93DF93EC0180912002BF
:1002A0009091210260E24FE0DDDF80912002909189
:1002B000210261E240E0D6DF80912002909121028C
:1002C00062E248E0CFDFCA3FD10539F480912002D5
:1002D0009091210263E240E00CC080912002909155
:1002E0002102C45FD14019F463E240E102C063E23D
:1002F00040E3B8DF809120029091210264E240E067
:10030000B1DFDF91CF910895FF920F931F938C017E
:10031000F62E8EE892E0B801B2D08EE892E06F2D12
:100320002FD18EE892E06DD18EE892E0B80141E0E5
:1003300050E075D18EE892E0ACD0892BD9F38EE8ED
:1003400092E0B0D01F910F91FF9008951F9380917C
:1003500020029091210269E2D7DF182F80912002BC
:100360009091210268E2D0DF312F20E090E0282B2D
:10037000392B3093430220934202809120029091C6
:1003800021026BE2C1DF182F80912002909121029F
:100390006AE2BADF312F20E090E0282B392B30932E
:1003A00045022093440280912002909121026DE247
:1003B000ABDF182F80912002909121026CE2A4DF24
:1003C000312F20E090E0282B392B309347022093E7
:1003D00046021F9108950F931F93B8DF01E315E0C4
:1003E000C80160E072E00E94150D609142027091B8
:1003F0004302C8014AE050E00E94E60CC80163E0F5
:1004000072E00E94150D6091440270914502C8018E
:100410004AE050E00E94E60CC80167E072E00E94EA
:10042000150D6091460270914702C8014AE050E004
:100430000E94F80C64E670E080E090E0ADD31F917C
:100440000F9108950F931F938EE892E0EAD001E395
:1004500015E0C80140E855E260E070E03FD7C80110
:100460006BE072E00E94170D80ED97E014DF6CEDF9
:1004700075E080E090E090D31F910F91089581E0A6
:1004800080938D0260936A0210928B0210928C020C
:1004900008952091690230E080916802281B31099B
:1004A000C90108954091680280916902481718F0C7
:1004B0002FEF3FEF0AC0E42FF0E0E85BFD4F8081B3
:1004C000282F30E04F5F40936802C9010895E09102
:1004D000680280916902E81718F0EFEFFFEF06C09D
:1004E000F0E0E85BFD4F8081E82FF0E0CF01089558
:1004F0000895109291021092900288EE93E0A0E08D
:10050000B0E08093920290939302A0939402B093F0
:10051000950286E292E090938F0280938E02089576
:10052000CF92DF92EF92FF920F931F93CF93DF93BF
:100530007C016B018A0180918D028823A1F0C0E0CB
:10054000D0E00DC0D701ED91FC91D601AC0FBD1FDD
:100550000190F081E02DC7016C9119952196C0178B
:10056000D10780F303C0CB01642F02D1C801DF9112
:10057000CF911F910F91FF90EF90DF90CF90089552
:10058000DF93CF930F92CDB7DEB7FC0169838091E3
:100590008D028823C9F080918C02803238F081E08E
:1005A00090E09383828320E030E014C080918B023E
:1005B000E82FF0E0E559FD4F998190838F5F80939C
:1005C0008B0280938C0204C0CE01019661E0D0D0F2
:1005D00021E030E0C9010F90CF91DF9108950F9392
:1005E000062F80916A026BE672E040918C0221E056
:1005F0006AD010928B0210928C0210928D020F9191
:10060000089561E0ECCF413208F040E2862F68E4C3
:1006100072E010D01092680280936902089521E080
:10062000F2CF109268021092690210928B0210921F
:100630008C024EC2382F413210F040E042C080910F
:100640009A028823E1F791E090939A0220939C020A
:100650008FEF809307031092C20241504093C30270
:100660004F5F90939B0280919B02330F832B80936B
:100670009B0280919D02813041F410929D028091F5
:100680009B028093BB0085EC01C085EE8093BC008B
:1006900080919A028130E1F38091C202841710F4B4
:1006A0004091C20220E030E00AC0FB01E20FF31FDC
:1006B000D901AE55BD4F8C9180832F5F3F4F2417DA
:1006C000A0F3842F08950F931F93582F122F4132B8
:1006D00010F081E04AC080919A028823E1F782E01D
:1006E00080939A0200939C028FEF809307031092ED
:1006F000C2024093C302A2EAB2E0FB0102C08191B0
:100700008D938E2F861B8417D0F310929B028091BD
:100710009B02550F852B80939B0280919D02813017
:1007200041F410929D0280919B028093BB0085EC66
:1007300001C085EE8093BC00112321F080919A02C4
:100740008230E1F3809107038F3F11F480E00DC008
:1007500080910703803211F482E007C08091070383
:10076000803311F084E001C083E01F910F91089560
:10077000482F613210F081E0089580919A02843010
:1007800011F082E008956093E502A4ECB2E0842FBA
:100790009C01F90102C081918D938E2F841B8617D5
:1007A000D0F380E008951F920F920FB60F920BB610
:1007B0000F9211242F933F934F935F936F937F93E7
:1007C0008F939F93AF93BF93EF93FF938091B90063
:1007D00090E0887F90708036910509F4F2C08136F0
:1007E0009105CCF58832910509F47BC089329105D9
:1007F000B4F48031910509F46FC0813191053CF466
:10080000009709F447C1089709F04FC165C08831C6
:10081000910509F466C0809709F047C182C0803411
:10082000910509F4A4C08134910544F48033910505
:1008300009F482C0C89709F038C189C08035910594
:1008400009F489C08835910509F496C0883491056A
:1008500009F02BC1AEC08839910509F413C189395B
:100860009105ECF48837910509F4ABC089379105FF
:100870004CF48836910509F4A4C08037910509F03D
:1008800014C19FC08838910509F4FCC080399105D6
:1008900009F49DC08038910509F007C198C0803BDC
:1008A000910509F4C6C0813B91054CF4803A91054D
:1008B00009F49FC0883A910509F0F7C0BAC0803C9E
:1008C000910509F4E3C0883C910509F4DFC0883B39
:1008D000910509F0EAC0C2C080919B028093BB00E1
:1008E000CFC09091C2028091C302981768F4909192
:1008F000C202E92FF0E0EE55FD4F80818093BB00EE
:100900009F5F9093C202BCC080919C02882309F42F
:100910004BC085ED8093BC008091BC0084FDFCCF72
:10092000C2C080E28093070385ED8093BC00809174
:10093000BC0084FDFCCFB7C080E38093070385ED46
:100940008093BC008091BC0084FDFCCFACC088E3E8
:10095000809307039BC08091C2029091BB00E82F57
:10096000F0E0EE55FD4F90838F5F8093C20290912F
:10097000C2028091C30282C08091C2029091BB00EA
:10098000E82FF0E0EE55FD4F90838F5F8093C20219
:1009900080919C02882341F085ED8093BC0080917A
:1009A000BC0084FDFCCF7FC081E080939D0284EA7F
:1009B0006EC085ED8093BC008091BC0084FDFCCFAF
:1009C00072C083E080939A021092060359C080910E
:1009D0000603803208F056C0809106039091BB0058
:1009E000E82FF0E0EA51FD4F90838F5F809306037C
:1009F00047C080910603803230F4E0910603F0E0B6
:100A0000EA51FD4F108285ED8093BC008091BC00BF
:100A100084FDFCCF10929A0260910603E091A0023F
:100A2000F091A10286EE92E070E019951092060313
:100A30002DC084E080939A021092E4021092E502A5
:100A4000E0919E02F0919F0219958091E502882322
:100A500029F481E08093E5021092C4029091E402AF
:100A6000E92FF0E0EC53FD4F80818093BB009F5F46
:100A70009093E4029091E4028091E502981710F4BB
:100A800085EC01C085E88093BC000FC085EC8093A5
:100A9000BC0009C01092070385ED8093BC008091D3
:100AA000BC0084FDFCCF10929A02FF91EF91BF91A0
:100AB000AF919F918F917F916F915F914F913F91F6
:100AC0002F910F900BBE0F900FBE0F901F90189597
:100AD00010929A0281E080939C0210929D0284E120
:100AE00061E089D185E161E086D1E9EBF0E08081C8
:100AF0008E7F808380818D7F808388E48093B8009F
:100B000085E48093BC0008951F920F920FB60F9258
:100B100011242F933F938F939F93AF93BF93809113
:100B20000C0390910D03A0910E03B0910F0330912F
:100B300010030196A11DB11D232F2D5F2D3720F02D
:100B40002D570196A11DB11D2093100380930C0316
:100B500090930D03A0930E03B0930F0380910803AD
:100B600090910903A0910A03B0910B030196A11D76
:100B7000B11D8093080390930903A0930A03B093D7
:100B80000B03BF91AF919F918F913F912F910F9048
:100B90000FBE0F901F9018959B01AC017FB7F89482
:100BA0008091080390910903A0910A03B0910B036F
:100BB00066B5A89B05C06F3F19F00196A11DB11D38
:100BC0007FBFBA2FA92F982F8827860F911DA11DAF
:100BD000B11D62E0880F991FAA1FBB1F6A95D1F74C
:100BE000BC012DC0FFB7F8948091080390910903D0
:100BF000A0910A03B0910B03E6B5A89B05C0EF3F97
:100C000019F00196A11DB11DFFBFBA2FA92F982F72
:100C100088278E0F911DA11DB11DE2E0880F991F3D
:100C2000AA1FBB1FEA95D1F7861B970B885E9340DE
:100C3000C8F2215030404040504068517C4F21154F
:100C400031054105510571F60895789484B58260A7
:100C500084BD84B5816084BD85B5826085BD85B560
:100C6000816085BDEEE6F0E0808181608083E1E80F
:100C7000F0E0108280818260808380818160808347
:100C8000E0E8F0E0808181608083E1EBF0E080814A
:100C900084608083E0EBF0E0808181608083E1E923
:100CA000F0E0808182608083808181608083E0E9E0
:100CB000F0E0808181608083E1EAF0E08081826001
:100CC0008083808181608083E0EAF0E080818160C0
:100CD0008083E1E2F1E080818260808380818160B5
:100CE0008083E0E2F1E0808181608083EAE7F0E0E8
:100CF0008081846080838081826080838081816044
:100D000080838081806880831092C100089589303B
:100D100009F449C08A30A0F4843051F1853040F4A0
:100D2000823079F1833000F5813009F063C026C04C
:100D3000873079F1883098F5863009F05BC025C09E
:100D40008D3009F442C08E3028F48B30B1F18C30F4
:100D5000C0F52DC0803109F442C0813109F445C08D
:100D60008F3009F047C037C0809180008F7703C073
:100D7000809180008F7D80938000089584B58F7767
:100D800002C084B58F7D84BD08958091B0008F77B7
:100D900003C08091B0008F7D8093B0000895809152
:100DA00090008F7707C0809190008F7D03C0809165
:100DB0009000877F8093900008958091A0008F77A6
:100DC00007C08091A0008F7D03C08091A000877F25
:100DD0008093A0000895809120018F7703C08091B7
:100DE00020018F7D80932001089580912001877FCD
:100DF000809320010895FF920F931F93F62E482FA2
:100E000050E0CA0182549E4FFC012491CA018858C7
:100E10009E4FFC0114914E5C5E4FFA010491002339
:100E2000C1F0222311F0822F72DFE02FF0E0EE0FED
:100E3000FF1FE250FF4FA591B4919FB7F894FF2098
:100E400021F48C911095812302C08C91812B8C937D
:100E50009FBF1F910F91FF90089508951F920F92C9
:100E60000FB60F920BB60F9211242F933F934F930F
:100E70008F939F93EF93FF938091C00082FD1DC0DD
:100E80004091C60020915103309152032F5F3F4F94
:100E90002F733070809153039091540328173907B2
:100EA00071F0E0915103F0915203EF5EFC4F4083EB
:100EB000309352032093510302C08091C600FF91EA
:100EC000EF919F918F914F913F912F910F900BBE7A
:100ED0000F900FBE0F901F90189508951F920F92BC
:100EE0000FB60F920BB60F9211242F933F934F938F
:100EF0008F939F93EF93FF938091C80082FD1DC055
:100F00004091CE002091D9033091DA032F5F3F4FFB
:100F10002F7330708091DB039091DC032817390721
:100F200071F0E091D903F091DA03E756FC4F40836A
:100F30003093DA032093D90302C08091CE00FF9151
:100F4000EF919F918F914F913F912F910F900BBEF9
:100F50000F900FBE0F901F90189508951F920F923B
:100F60000FB60F920BB60F9211242F933F934F930E
:100F70008F939F93EF93FF938091D00082FD1DC0CC
:100F80004091D60020916104309162042F5F3F4F61
:100F90002F7330708091630490916404281739078F
:100FA00071F0E0916104F0916204EF5DFB4F4083CA
:100FB000309362042093610402C08091D600FF91B7
:100FC000EF919F918F914F913F912F910F900BBE79
:100FD0000F900FBE0F901F90189508951F920F92BB
:100FE0000FB60F920BB60F9211242F933F934F938E
:100FF0008F939F93EF93FF938091300182FD1DC0EB
:10100000409136012091E9043091EA042F5F3F4F6F
:101010002F7330708091EB049091EC0428173907FE
:1010200071F0E091E904F091EA04E755FB4F408349
:101030003093EA042093E90402C080913601FF91C5
:10104000EF919F918F914F913F912F910F900BBEF8
:101050000F900FBE0F901F901895E0913D05F091F5
:101060003E05E05CFF4F8191919120813181821B8F
:10107000930B8F739070892B09F0EFDEE0915F0581
:10108000F0916005E05CFF4F819191912081318169
:10109000821B930B8F739070892B09F01EDFE091F8
:1010A0008105F0918205E05CFF4F81919191208153
:1010B0003181821B930B8F739070892B09F04DDF68
:1010C000E091A305F091A405E05CFF4F819191911F
:1010D00020813181821B930B8F739070892B09F0D3
:1010E0007CCF08951F920F920FB60F920BB60F92FE
:1010F00011242F933F938F939F93EF93FF9320910E
:101100009503309196038091970390919803281747
:10111000390731F48091C1008F7D8093C10014C0E4
:10112000E0919703F0919803EB5AFC4F2081809156
:1011300097039091980301968F7390709093980302
:10114000809397032093C600FF91EF919F918F9119
:101150003F912F910F900BBE0F900FBE0F901F90DD
:1011600018951F920F920FB60F920BB60F92112483
:101170002F933F938F939F93EF93FF9320911D04A1
:1011800030911E0480911F04909120042817390784
:1011900031F48091C9008F7D8093C90014C0E09123
:1011A0001F04F0912004E352FC4F208180911F0422
:1011B0009091200401968F739070909320048093F7
:1011C0001F042093CE00FF91EF919F918F913F914B
:1011D0002F910F900BBE0F900FBE0F901F90189580
:1011E0001F920F920FB60F920BB60F9211242F93EE
:1011F0003F938F939F93EF93FF932091A50430919A
:10120000A6048091A7049091A8042817390731F407
:101210008091D1008F7D8093D10014C0E091A7040C
:10122000F091A804EB59FB4F20818091A704909185
:10123000A80401968F7390709093A8048093A704DC
:101240002093D600FF91EF919F918F913F912F9125
:101250000F900BBE0F900FBE0F901F9018951F920E
:101260000F920FB60F920BB60F9211242F933F934C
:101270008F939F93EF93FF9320912D0530912E052F
:1012800080912F05909130052817390731F480910E
:1012900031018F7D8093310114C0E0912F05F091D1
:1012A0003005E351FB4F208180912F05909130054F
:1012B00001968F7390709093300580932F05209343
:1012C0003601FF91EF919F918F913F912F910F9058
:1012D0000BBE0F900FBE0F901F901895AF92BF924C
:1012E000DF92EF92FF920F931F93CF93DF93EC0166
:1012F0007A018B01DD24403081EE580780E06807D9
:1013000080E0780711F0DD24D39491E0A92EB12C70
:10131000EC89FD89DD2069F0C50108A002C0880FB5
:10132000991F0A94E2F7808360E079E08DE390E012
:1013300005C0108260E874E88EE190E0A801970192
:10134000A6D32150304040405040569547953795A0
:10135000279580E12030380720F0DD2011F0DD24D2
:10136000D7CFE889F9893083EA89FB89208319A2DC
:10137000EE89FF89408121E030E0C9010C8C02C078
:10138000880F991F0A94E2F7482B4083EE89FF8962
:101390004081C9010D8C02C0880F991F0A94E2F7A1
:1013A000482B4083EE89FF894081C9010E8C02C021
:1013B000880F991F0A94E2F7482B4083EE89FF8932
:1013C00080810F8C02C0220F331F0A94E2F7209510
:1013D00028232083DF91CF911F910F91FF90EF90F1
:1013E000DF90BF90AF900895DC011C96ED91FC91C9
:1013F0001D97E05CFF4F2191319180819181281BE5
:10140000390B2F733070C9010895DC011C96ED91E2
:10141000FC911D97E05CFF4F20813181E054F0404A
:10142000DF01AE5BBF4F8D919C9111972817390753
:1014300019F42FEF3FEF07C08D919C91E80FF91F32
:101440008081282F30E0C9010895DC011C96ED91C0
:10145000FC911D97E05CFF4F20813181E054F0400A
:10146000DF01AE5BBF4F8D919C9111972817390713
:1014700019F42FEF3FEF10C08D919C911197E80F59
:10148000F91F20818D919C91119701968F73907017
:1014900011969C938E9330E0C9010895DC019196DA
:1014A0008C919197882339F05496ED91FC91559742
:1014B000808186FFF9CF91961C920895CF93DF9398
:1014C000EC01EE85FF85E05CFF4F20813181E05427
:1014D000F0402F5F3F4F2F733070DF01AE5BBF4F87
:1014E0008D919C91119728173907D1F3E05CFF4F3C
:1014F00080819181E054F040E80FF91F6083EE8510
:10150000FF85E05CFF4F31832083EE89FF892081D6
:1015100081E090E00F8C02C0880F991F0A94E2F7D7
:10152000282B208381E089A3EC89FD898081806458
:10153000808381E090E0DF91CF9108951F93109216
:1015400034051092330528EE33E040E050E020935C
:10155000350530933605409337055093380566E3DB
:1015600072E0709332056093310581E193E09093CE
:101570003E0580933D0585E593E09093400580937B
:101580003F0585EC90E0909342058093410584EC03
:1015900090E0909344058093430580EC90E0909315
:1015A00046058093450581EC90E090934805809333
:1015B000470582EC90E090934A058093490586ECBC
:1015C00090E090934C0580934B0514E010934D05EB
:1015D000B3E0B0934E05A7E0A0934F05F5E0F0937C
:1015E0005005E1E0E0935105109256051092550523
:1015F00020935705309358054093590550935A0549
:10160000709354056093530589E993E090936005C6
:1016100080935F058DED93E0909362058093610563
:101620008DEC90E090936405809363058CEC90E0E2
:10163000909366058093650588EC90E0909368052B
:101640008093670589EC90E090936A058093690523
:101650008AEC90E090936C0580936B058EEC90E0A3
:1016600090936E0580936D0510936F05B093700590
:10167000A0937105F0937205E093730510927805BD
:10168000109277052093790530937A0540937B0576
:1016900050937C05709376056093750581E294E024
:1016A000909382058093810585E694E0909384056C
:1016B0008093830585ED90E0909386058093850562
:1016C00084ED90E0909388058093870580ED90E00D
:1016D00090938A058093890581ED90E090938C0525
:1016E00080938B0582ED90E090938E0580938D051D
:1016F00086ED90E09093900580938F05109391056F
:10170000B0939205A0939305F0939405E09395050B
:1017100010929A051092990520939B0530939C0591
:1017200040939D0550939E0570939805609397058F
:1017300089EA94E09093A4058093A3058DEE94E04C
:101740009093A6058093A50585E391E09093A80565
:101750008093A70584E391E09093AA058093A9055F
:1017600080E391E09093AC058093AB0581E391E039
:101770009093AE058093AD0582E391E09093B00520
:101780008093AF0586E391E09093B2058093B10515
:101790001093B305B093B405A093B505F093B605C7
:1017A000E093B7051F910895CF93DF934EDA0E941F
:1017B0002202CDE2D8E00E94EB012097E1F34DDC5C
:1017C000FACFCF92DF92EF92FF920F931F93CF93B6
:1017D000DF937C016B018A01C0E0D0E00FC0D6012D
:1017E0006D916D01D701ED91FC910190F081E02D9B
:1017F000C7011995C80FD91F0150104001151105D7
:1018000071F7CE01DF91CF911F910F91FF90EF9073
:10181000DF90CF900895EF92FF920F931F938C016A
:10182000DC01ED91FC910190F081E02D6DE01995C6
:101830007C01D801ED91FC910190F081E02DC8016F
:101840006AE019959C012E0D3F1DC9011F910F9152
:10185000FF90EF900895CF93DF93EC016115710530
:1018600019F420E030E00FC0DB010D900020E9F713
:101870001197A61BB70BE881F9810280F381E02D57
:10188000AD0119959C01C901DF91CF9108954F9247
:101890005F927F928F929F92AF92BF92CF92DF9290
:1018A000EF92FF920F931F93DF93CF93CDB7DEB7E5
:1018B000A1970FB6F894DEBF0FBECDBF2C01742EDA
:1018C000CB01223008F42AE019A231E2C32ED12C38
:1018D000CC0EDD1E822E9924AA24BB24672D752FE1
:1018E000A5019401D4D079018A01C801B701A501ED
:1018F0009401AED0472D461B0894C108D1084A3048
:1019000014F4405D01C0495CF6014083E114F10428
:101910000105110521F07E2C5F2DC801DFCFC2012A
:10192000B60199DFA1960FB6F894DEBF0FBECDBF0A
:10193000CF91DF911F910F91FF90EF90DF90CF90AB
:10194000BF90AF909F908F907F905F904F90089541
:10195000CF92DF92EF92FF920F931F93CF93DF937B
:10196000EC016A017B012115310541F4E881F9811F
:101970000190F081E02D642F19951DC02A303105AA
:10198000C9F477FF16C0E881F9810190F081E02D5C
:101990006DE219958C0144275527BA014C195D0950
:1019A0006E097F09CE012AE072DF9801280F391FE6
:1019B00003C02AE06CDF9C01C901DF91CF911F9128
:1019C0000F91FF90EF90DF90CF900895EF92FF92EC
:1019D0000F931F937B019A010027F7FC0095102FAE
:1019E000B801A701B5DF1F910F91FF90EF90089507
:1019F000CF92DF92EF92FF920F931F936C017B01C6
:101A00009A010027F7FC0095102FB801A701A0DF6D
:101A10008C01C60100DF080F191FC8011F910F912B
:101A2000FF90EF90DF90CF90089515CF0895EF923B
:101A3000FF920F931F937C010EDF8C01C701EBDE39
:101A4000080F191FC8011F910F91FF90EF90089583
:101A5000629FD001739FF001829FE00DF11D649F92
:101A6000E00DF11D929FF00D839FF00D749FF00D1E
:101A7000659FF00D9927729FB00DE11DF91F639FBF
:101A8000B00DE11DF91FBD01CF0111240895A1E2A0
:101A90001A2EAA1BBB1BFD010DC0AA1FBB1FEE1FE8
:101AA000FF1FA217B307E407F50720F0A21BB30B33
:101AB000E40BF50B661F771F881F991F1A9469F7AF
:101AC00060957095809590959B01AC01BD01CF010B
:101AD0000895EE0FFF1F0590F491E02D1994F894EE
:021AE000FFCF36
:101AE200583A0020593A00205A3A007374617274CD
:101AF200696E67207570204C3347343230304400B1
:101B0200690000000000C00290024902520267020E
:101B12007802000000005E0AE10BF409250A050ABA
:021B22004E0A69
:00000001FF
