:100000000C9435000C945D000C945D000C945D0024
:100010000C945D000C945D000C945D000C945D00EC
:100020000C945D000C945D000C945D000C945D00DC
:100030000C945D000C945D000C945D000C945D00CC
:100040000C94BD000C945D000C94BC010C940A024D
:100050000C945D000C945D000C945D000C945D00AC
:100060000C945D000C945D00760311241FBECFEF4D
:10007000D8E0DEBFCDBF11E0A0E0B1E0EEEBFAE0EA
:1000800002C005900D92A433B107D9F711E0A4E3A3
:10009000B1E001C01D92A73EB107E1F710E0CAE64A
:1000A000D0E004C02297FE010E945905C836D1074E
:1000B000C9F70E94CC030C945D050C940000EF92EC
:1000C000FF920F931F9380E00E949901AA2797FD4A
:1000D000A095BA2F895F9140A040B040BC01CD01EE
:1000E00021EA37E040E050E00E94FB0428EE33E0D4
:1000F00040E050E00E943C0579018A0185EC91E0E6
:10010000B801A7012AE030E00E94A50485EC91E047
:1001100060E071E00E94E5041E141F041006110641
:100120002CF485EC91E068E071E009C0E114F10481
:100130000105110539F085EC91E065E171E00E945F
:10014000E80404C085EC91E00E9405041F910F9122
:10015000FF90EF90089568EE73E080E090E00E94D9
:1001600005010E945F00089585EC91E040E855E2AA
:1001700060E070E00E94450208951F920F920FB652
:100180000F9211242F933F938F939F93AF93BF931D
:100190008091380190913901A0913A01B0913B01D1
:1001A00030913C010196A11DB11D232F2D5F2D37EC
:1001B00020F02D570196A11DB11D20933C01809385
:1001C000380190933901A0933A01B0933B0180919B
:1001D000340190913501A0913601B091370101961B
:1001E000A11DB11D8093340190933501A093360178
:1001F000B0933701BF91AF919F918F913F912F9114
:100200000F900FBE0F901F9018959B01AC017FB708
:10021000F8948091340190913501A0913601B0910C
:10022000370166B5A89B05C06F3F19F00196A11D67
:10023000B11D7FBFBA2FA92F982F8827860F911D38
:10024000A11DB11D62E0880F991FAA1FBB1F6A95EF
:10025000D1F7BC012DC0FFB7F89480913401909183
:100260003501A0913601B0913701E6B5A89B05C0D4
:10027000EF3F19F00196A11DB11DFFBFBA2FA92FA5
:10028000982F88278E0F911DA11DB11DE2E0880FC8
:10029000991FAA1FBB1FEA95D1F7861B970B885E93
:1002A0009340C8F2215030404040504068517C4F4C
:1002B000211531054105510571F60895789484B5ED
:1002C000826084BD84B5816084BD85B5826085BD52
:1002D00085B5816085BDEEE6F0E080818160808338
:1002E000E1E8F0E01082808182608083808181601B
:1002F0008083E0E8F0E0808181608083E1EBF0E0E2
:10030000808184608083E0EBF0E080818160808385
:10031000EAE7F0E08081846080838081826080836E
:100320008081816080838081806880831092C10099
:100330000895982F8E3008F09E509770809122017A
:100340008295880F880F807C892B80937C00809118
:100350007A00806480937A0080917A0086FDFCCFD9
:100360002091780040917900942F80E030E0282B94
:10037000392BC901089508951F920F920FB60F925D
:1003800011242F933F934F938F939F93EF93FF935A
:100390008091C00082FD1DC04091C60020917D016A
:1003A00030917E012F5F3F4F2F73307080917F011E
:1003B000909180012817390771F0E0917D01F0914B
:1003C0007E01E35CFE4F408330937E0120937D01EC
:1003D00002C08091C600FF91EF919F918F914F9144
:1003E0003F912F910F900FBE0F901F901895E091A5
:1003F000D101F091D201E05CFF4F81919191208178
:100400003181821B930B8F739070892B11F00E94A6
:10041000BB0108951F920F920FB60F9211242F93D4
:100420003F938F939F93EF93FF932091C10130915E
:10043000C2018091C3019091C4012817390731F49A
:100440008091C1008F7D8093C10014C0E091C301F1
:10045000F091C401EF57FE4F20818091C30190912C
:10046000C40101968F7390709093C4018093C3016F
:100470002093C600FF91EF919F918F913F912F9113
:100480000F900FBE0F901F901895AF92BF92DF9202
:10049000EF92FF920F931F93CF93DF93EC017A01BA
:1004A0008B01DD24403081EE580780E0680780E052
:1004B000780711F0DD24D39491E0A92EB12CEC89BA
:1004C000FD89DD2069F0C50108A002C0880F991FD1
:1004D0000A94E2F7808360E079E08DE390E005C064
:1004E000108260E874E88EE190E0A80197010E9414
:1004F0001A05215030404040504056954795379559
:10050000279580E12030380720F0DD2011F0DD2430
:10051000D6CFE889F9893083EA89FB89208319A23B
:10052000EE89FF89408121E030E0C9010C8C02C0D6
:10053000880F991F0A94E2F7482B4083EE89FF89C0
:100540004081C9010D8C02C0880F991F0A94E2F7FF
:10055000482B4083EE89FF894081C9010E8C02C07F
:10056000880F991F0A94E2F7482B4083EE89FF8990
:1005700080810F8C02C0220F331F0A94E2F720956E
:1005800028232083DF91CF911F910F91FF90EF904F
:10059000DF90BF90AF900895DC011C96ED91FC9127
:1005A0001D97E05CFF4F2191319180819181281B43
:1005B000390B2F733070C9010895DC011C96ED9141
:1005C000FC911D97E05CFF4F20813181E054F040A9
:1005D000DF01AE5BBF4F8D919C91119728173907B2
:1005E00019F42FEF3FEF07C08D919C91E80FF91F91
:1005F0008081282F30E0C9010895DC011C96ED911F
:10060000FC911D97E05CFF4F20813181E054F04068
:10061000DF01AE5BBF4F8D919C9111972817390771
:1006200019F42FEF3FEF10C08D919C911197E80FB7
:10063000F91F20818D919C91119701968F73907075
:1006400011969C938E9330E0C9010895DC01919638
:100650008C919197882339F05496ED91FC915597A0
:10066000808186FFF9CF91961C920895CF93DF93F6
:10067000EC01EE85FF85E05CFF4F20813181E05485
:10068000F0402F5F3F4F2F733070DF01AE5BBF4FE5
:100690008D919C91119728173907D1F3E05CFF4F9A
:1006A00080819181E054F040E80FF91F6083EE856E
:1006B000FF85E05CFF4F31832083EE89FF89208135
:1006C00081E090E00F8C02C0880F991F0A94E2F736
:1006D000282B208381E089A3EC89FD8980818064B7
:1006E000808381E090E0DF91CF9108951092C8015E
:1006F0001092C70188EE93E0A0E0B0E08093C901BA
:100700009093CA01A093CB01B093CC0187E291E012
:100710009093C6018093C5018DE391E09093D2013F
:100720008093D10181E891E09093D4018093D3012B
:1007300085EC90E09093D6018093D50184EC90E015
:100740009093D8018093D70180EC90E09093DA01E8
:100750008093D90181EC90E09093DC018093DB01E0
:1007600082EC90E09093DE018093DD0186EC90E0D6
:100770009093E0018093DF0184E08093E10183E0C6
:100780008093E20187E08093E30185E08093E401B8
:1007900081E08093E5010895CF93DF930E945E018D
:1007A0000E94B400C7EFD1E00E94AB002097E1F3B4
:1007B0000E94F701F9CFCF92DF92EF92FF920F9351
:1007C0001F93CF93DF937C016B018A01C0E0D0E0DF
:1007D0000FC0D6016D916D01D701ED91FC91019093
:1007E000F081E02DC7010995C80FD91F01501040B5
:1007F0000115110571F7CE01DF91CF911F910F9176
:10080000FF90EF90DF90CF900895EF92FF920F93BB
:100810001F938C01DC01ED91FC910190F081E02DA2
:100820006DE009957C01D801ED91FC910190F0817A
:10083000E02DC8016AE009959C012E0D3F1DC901FC
:100840001F910F91FF90EF900895CF93DF93EC01EC
:100850006115710519F420E030E00FC0DB010D9047
:100860000020E9F71197A61BB70BE881F9810280F8
:10087000F381E02DAD0109959C01C901DF91CF9174
:1008800008954F925F927F928F929F92AF92BF9204
:10089000CF92DF92EF92FF920F931F93DF93CF934C
:1008A000CDB7DEB7A1970FB6F894DEBF0FBECDBFB0
:1008B0002C01742ECB01223008F42AE019A231E277
:1008C000C32ED12CCC0EDD1E822E9924AA24BB244B
:1008D000672D752FA50194010E941A0579018A01DF
:1008E000C801B701A50194010E94FB04472D461BD6
:1008F0000894C108D1084A3014F4405D01C0495C35
:10090000F6014083E114F1040105110521F07E2C6C
:100910005F2DC801DDCFC201B6010E942504A1965A
:100920000FB6F894DEBF0FBECDBFCF91DF911F9100
:100930000F91FF90EF90DF90CF90BF90AF909F907E
:100940008F907F905F904F900895CF92DF92EF92BB
:10095000FF920F931F93CF93DF93EC016A017B010A
:100960002115310541F4E881F9810190F081E02DF4
:10097000642F09951FC02A303105D1F477FF17C0C5
:10098000E881F9810190F081E02D6DE209958C01FB
:1009900044275527BA014C195D096E097F09CE011C
:1009A0002AE00E9441049801280F391F04C02AE060
:1009B0000E9441049C01C901DF91CF911F910F91C9
:1009C000FF90EF90DF90CF9008950E942504089546
:1009D000EF92FF920F931F937C010E9425048C01DC
:1009E000C7010E940504080F191FC8011F910F912C
:1009F000FF90EF900895629FD001739FF001829F56
:100A0000E00DF11D649FE00DF11D929FF00D839F9D
:100A1000F00D749FF00D659FF00D9927729FB00D3A
:100A2000E11DF91F639FB00DE11DF91FBD01CF014D
:100A300011240895A1E21A2EAA1BBB1BFD010DC0B3
:100A4000AA1FBB1FEE1FFF1FA217B307E407F5077E
:100A500020F0A21BB30BE40BF50B661F771F881F5A
:100A6000991F1A9469F760957095809590959B01F0
:100A7000AC01BD01CF01089597FB092E05260ED0CC
:100A800057FD04D0D7DF0AD0001C38F450954095AC
:100A9000309521953F4F4F4F5F4F0895F6F7909552
:100AA0008095709561957F4F8F4F9F4F0895EE0F02
:0E0AB000FF1F0590F491E02D0994F894FFCFFC
:100ABE00204761757373200028536F75746820701A
:100ACE006F6C652900284E6F72746820706F6C65AC
:100ADE00290001000000003603DB03CC02FD02DD1D
:040AEE0002260300D9
:00000001FF
