:1000000004C100002FC100002DC100002BC1000061
:1000100029C1000027C1000025C1000023C1000044
:1000200021C100001FC100001DC100001BC1000054
:1000300019C1000017C1000015C1000013C1000064
:1000400011C100000FC100000DC100000BC1000074
:1000500009C1000007C1000005C100003BC6000047
:1000600001C10000E1C700000C945809FBC000006A
:10007000F9C00000F7C00000F5C00000F3C00000A8
:10008000F1C00000EFC00000EDC00000EBC00000B8
:100090000C9454080C949709E5C000004DC300006F
:1000A000E1C00000DFC00000DDC00000DBC00000D8
:1000B000D9C00000D7C00000D5C00000D3C00000E8
:1000C000D1C00000CFC00000CDC000000C94940847
:1000D0000C94D609C7C000000C94D4080C94150ADF
:1000E000C1C0000000002100240027002A002D00CC
:1000F0003000330001010000040107010A01000083
:100100002200250028002B002E00310034000201BF
:100110000000050108010B0100002000230026005B
:1001200029002C002F00320000010000030106010D
:10013000090105050505070508080808020202026D
:100140000A0A080804040404010101010101010173
:100150000303030303030303040707070C0C0C0C3E
:100160000C0C0C0C02020202060606060606060627
:100170000B0B0B0B0B0B0B0B0102102020080810B4
:100180002040102040800201020108040201010207
:1001900004081020408080402010080402018004E0
:1001A000020180402010080402010804020101023B
:1001B0000408102040800102040810204080000044
:1001C000090A02080B0C0D070603040100000000D9
:1001D000000000000000000000000000000000001F
:1001E0000000000000000000000011100F000000DF
:1001F00000000000000000000000000000000000FF
:100200000000000033014202840B11241FBECFEF17
:10021000D1E2DEBFCDBF00E00CBF12E0A0E0B2E053
:10022000E6E4F2E200E00BBF02C007900D92AE32AE
:10023000B107D9F71BBE15E0AEE2B2E001C01D92D6
:10024000A13BB107E1F712E0CAE0D2E004C0229777
:10025000FE010E941D11C430D107C9F70E94BA0CDB
:100260000C942111CDCE8AE392E017C4AF92BF92D5
:10027000CF92DF92EF92FF920F931F93DF93CF9372
:10028000CDB7DEB72C970FB6F894DEBF0FBECDBF4B
:100290008AE392E0BE016F5F7F4FAE014B5F5F4F1D
:1002A0009E01275F3F4F47D469817A818B819C8172
:1002B00020E030E040E05FE30E9473107B018C019E
:1002C00060912E0270912F02809130029091310244
:1002D00020E030E040E05FE30E9473109B01AC013E
:1002E000C801B7010E94BC0E60932E0270932F02CA
:1002F00080933002909331026D817E818F81988549
:1003000020E030E040E05FE30E9473107B018C014D
:1003100060913202709133028091340290913502E3
:1003200020E030E040E05FE30E9473109B01AC01ED
:10033000C801B7010E94BC0E7B018C01CB01D80122
:100340008093320290933302A0933402B09335022B
:1003500069857A858B859C8520E030E040E05FE30D
:100360000E9473105B016C0160913602709137023C
:10037000809138029091390220E030E040E05FE364
:100380000E9473109B01AC01C601B5010E94BC0E16
:10039000609336027093370280933802909339024B
:1003A00089E295E0A701B80122E030E00E94AA0EA0
:1003B00062E370E080E090E0D5D42C960FB6F8941C
:1003C000DEBF0FBECDBFCF91DF911F910F91FF9088
:1003D000EF90DF90CF90BF90AF9008950F931F9351
:1003E0000AE312E0C80164D489E295E040E855E2EE
:1003F00060E070E00E94540AC80168E070E03ED4FA
:1004000064E670E080E090E0ADD41F910F91089514
:1004100081E08093850260936202109283021092C1
:10042000840208952091610230E080916002281BCF
:100430003109C90108954091600280916102481715
:1004400018F02FEF3FEF0AC0E42FF0E0E05CFD4F23
:100450008081282F30E04F5F40936002C9010895EA
:10046000E091600280916102E81718F0EFEFFFEF72
:1004700006C0F0E0E05CFD4F8081E82FF0E0CF01A6
:1004800008950895109289021092880288EE93E0F0
:10049000A0E0B0E080938A0290938B02A0938C023C
:1004A000B0938D0282E192E090938702809386025E
:1004B0000895CF92DF92EF92FF920F931F93CF9305
:1004C000DF937C016B018A01809185028823A1F072
:1004D000C0E0D0E00DC0D701ED91FC91D601AC0F8A
:1004E000BD1F0190F081E02DC7016C9119952196F7
:1004F000C017D10780F303C0CB01642F02D1C8011C
:10050000DF91CF911F910F91FF90EF90DF90CF90EF
:100510000895DF93CF930F92CDB7DEB7FC016983C7
:10052000809185028823C9F080918402803238F05E
:1005300081E090E09383828320E030E014C08091DA
:100540008302E82FF0E0ED59FD4F998190838F5F92
:10055000809383028093840204C0CE01019661E0FF
:10056000D0D021E030E0C9010F90CF91DF91089504
:100570000F93062F8091620263E672E0409184023D
:1005800021E06AD0109283021092840210928502B8
:100590000F91089561E0ECCF413208F040E2862FE0
:1005A00060E472E010D010926002809361020895BE
:1005B00021E0F2CF10926002109261021092830249
:1005C000109284024EC2382F413210F040E042C0F7
:1005D000809192028823E1F791E090939202209318
:1005E00094028FEF8093FF021092BA024150409321
:1005F000BB024F5F9093930280919302330F832B42
:100600008093930280919502813041F4109295027B
:10061000809193028093BB0085EC01C085EE8093AE
:10062000BC00809192028130E1F38091BA0284177C
:1006300010F44091BA0220E030E00AC0FB01E20F62
:10064000F31FD901A656BD4F8C9180832F5F3F4F7A
:100650002417A0F3842F08950F931F93582F122F60
:10066000413210F081E04AC0809192028823E1F784
:1006700082E080939202009394028FEF8093FF02B6
:100680001092BA024093BB02AAE9B2E0FB0102C099
:1006900081918D938E2F861B8417D0F31092930235
:1006A00080919302550F852B809393028091950240
:1006B000813041F410929502809193028093BB00A7
:1006C00085EC01C085EE8093BC00112321F0809160
:1006D00092028230E1F38091FF028F3F11F480E0BB
:1006E0000DC08091FF02803211F482E007C080913A
:1006F000FF02803311F084E001C083E01F910F916D
:100700000895482F613210F081E00895809192029F
:10071000843011F082E008956093DD02ACEBB2E02A
:10072000842F9C01F90102C081918D938E2F841B2F
:100730008617D0F380E008951F920F920FB60F92A4
:100740000BB60F9211242F933F934F935F936F93A8
:100750007F938F939F93AF93BF93EF93FF9380917A
:10076000B90090E0887F90708036910509F4F2C05E
:1007700081369105CCF58832910509F47BC0893228
:100780009105B4F48031910509F46FC08131910570
:100790003CF4009709F447C1089709F04FC165C0C0
:1007A0008831910509F466C0809709F047C182C07D
:1007B0008034910509F4A4C08134910544F4803358
:1007C000910509F482C0C89709F038C189C0803505
:1007D000910509F489C08835910509F496C08834DB
:1007E000910509F02BC1AEC08839910509F413C1F8
:1007F00089399105ECF48837910509F4ABC0893744
:1008000091054CF48836910509F4A4C08037910510
:1008100009F014C19FC08838910509F4FCC08039E3
:10082000910509F49DC08038910509F007C198C071
:10083000803B910509F4C6C0813B91054CF4803A98
:10084000910509F49FC0883A910509F0F7C0BAC034
:10085000803C910509F4E3C0883C910509F4DFC0B0
:10086000883B910509F0EAC0C2C080919302809351
:10087000BB00CFC09091BA028091BB02981768F478
:100880009091BA02E92FF0E0E656FD4F8081809307
:10089000BB009F5F9093BA02BCC0809194028823F2
:1008A00009F44BC085ED8093BC008091BC0084FDB1
:1008B000FCCFC2C080E28093FF0285ED8093BC0034
:1008C0008091BC0084FDFCCFB7C080E38093FF0221
:1008D00085ED8093BC008091BC0084FDFCCFACC052
:1008E00088E38093FF029BC08091BA029091BB0085
:1008F000E82FF0E0E656FD4F90838F5F8093BA02B9
:100900009091BA028091BB0282C08091BA0290910C
:10091000BB00E82FF0E0E656FD4F90838F5F809399
:10092000BA0280919402882341F085ED8093BC0047
:100930008091BC0084FDFCCF7FC081E08093950254
:1009400084EA6EC085ED8093BC008091BC0084FD7C
:10095000FCCF72C083E0809392021092FE0259C0D5
:100960008091FE02803208F056C08091FE02909184
:10097000BB00E82FF0E0E252FD4F90838F5F809341
:10098000FE0247C08091FE02803230F4E091FE0208
:10099000F0E0E252FD4F108285ED8093BC00809123
:1009A000BC0084FDFCCF109292026091FE02E091A7
:1009B0009802F09199028EED92E070E019951092F4
:1009C000FE022DC084E0809392021092DC0210920D
:1009D000DD02E0919602F091970219958091DD0277
:1009E000882329F481E08093DD021092BC0290916B
:1009F000DC02E92FF0E0E454FD4F80818093BB00DE
:100A00009F5F9093DC029091DC028091DD02981749
:100A100010F485EC01C085E88093BC000FC085EC24
:100A20008093BC0009C01092FF0285ED8093BC004A
:100A30008091BC0084FDFCCF10929202FF91EF9157
:100A4000BF91AF919F918F917F916F915F914F91E6
:100A50003F912F910F900BBE0F900FBE0F901F90E4
:100A600018951092920281E0809394021092950260
:100A700084E161E0A6D285E161E0A3D2E9EBF0E098
:100A800080818E7F808380818D7F808388E48093C6
:100A9000B80085E48093BC0008950F931F938C01E8
:100AA00086E892E087DD8CEE9FEFF80191838083EA
:100AB0008FE090E09383828389EE9FEF9583848318
:100AC0001F910F910895CF92DF92EF92FF921F93A3
:100AD000CF93DF93162F7A01690186E892E063E5F0
:100AE00070E096DC86E892E0612F13DD86E892E004
:100AF00051DD86E892E063E570E0A70159DDC0E0D2
:100B0000D0E086E892E08EDC892B61F0CE15DF051F
:100B10004CF486E892E08FDCF601EC0FFD1F808339
:100B20002196EFCFCE01DF91CF911F91FF90EF90F3
:100B3000DF90CF900895AF92BF92CF92DF92EF9265
:100B4000FF920F931F93DF93CF9300D000D0CDB7C8
:100B5000DEB78C017B016A01590162E346E050E097
:100B60009E012F5F3F4FAFDF698170E0F801208168
:100B70003181621B730B3A8120E0620F731F88275B
:100B800077FD8095982F0E94BF0F20E030E040E86D
:100B90005BE30E947310F701608371838283938308
:100BA0006B8170E0F80122813381621B730B3C8101
:100BB00020E0620F731F882777FD8095982F0E9491
:100BC000BF0F20E030E040E85BE30E947310F601C5
:100BD00060837183828393836D8170E0F801248147
:100BE0003581621B730B3E8120E0620F731F8827E3
:100BF00077FD8095982F0E94BF0F20E030E040E8FD
:100C00005BE30E947310F501608371838283938399
:100C100026960FB6F894DEBF0FBECDBFCF91DF9101
:100C20001F910F91FF90EF90DF90CF90BF90AF900A
:100C30000895BF92CF92DF92EF92FF920F931F938E
:100C4000B62E6A01790106E812E0C80163E570E09A
:100C5000DFDBC8016B2D5DDCC801B701A60129DC13
:100C6000F82EE92EC80196DC8F2D9E2D1F910F9135
:100C7000FF90EF90DF90CF90BF900895DF93CF93D8
:100C80000F920F92CDB7DEB79C01CB017A836983B7
:100C90000897049740F4C90161E341E050E09E01E8
:100CA0002F5F3F4FC6DF0F900F90CF91DF910895D8
:100CB000DF93CF930F92CDB7DEB728E029836DE2A3
:100CC00041E050E09E012F5F3F4FB3DF0F90CF9187
:100CD000DF9108951F920F920FB60F9211242F9358
:100CE0003F938F939F93AF93BF9380910403909111
:100CF0000503A0910603B091070330910803019604
:100D0000A11DB11D232F2D5F2D3720F02D570196EA
:100D1000A11DB11D20930803809304039093050344
:100D2000A0930603B0930703809100039091010301
:100D3000A0910203B09103030196A11DB11D809300
:100D4000000390930103A0930203B0930303BF91A8
:100D5000AF919F918F913F912F910F900FBE0F9068
:100D60001F9018959B01AC017FB7F8948091000308
:100D700090910103A0910203B091030366B5A89B73
:100D800005C06F3F19F00196A11DB11D7FBFBA2F9D
:100D9000A92F982F8827860F911DA11DB11D62E0F4
:100DA000880F991FAA1FBB1F6A95D1F7BC012DC0E0
:100DB000FFB7F8948091000390910103A091020382
:100DC000B0910303E6B5A89B05C0EF3F19F001966B
:100DD000A11DB11DFFBFBA2FA92F982F88278E0FF5
:100DE000911DA11DB11DE2E0880F991FAA1FBB1F15
:100DF000EA95D1F7861B970B885E9340C8F2215085
:100E000030404040504068517C4F2115310541052C
:100E1000510571F60895789484B5826084BD84B5D7
:100E2000816084BD85B5826085BD85B5816085BDE5
:100E3000EEE6F0E0808181608083E1E8F0E01082FE
:100E4000808182608083808181608083E0E8F0E03F
:100E5000808181608083E1EBF0E080818460808329
:100E6000E0EBF0E0808181608083E1E9F0E0808167
:100E700082608083808181608083E0E9F0E080810E
:100E800081608083E1EAF0E08081826080838081FC
:100E900081608083E0EAF0E0808181608083E1E22C
:100EA000F1E0808182608083808181608083E0E2E4
:100EB000F1E0808181608083EAE7F0E080818460F6
:100EC0008083808182608083808181608083808153
:100ED000806880831092C1000895893009F449C068
:100EE0008A30A0F4843051F1853040F4823079F1B9
:100EF000833000F5813009F063C026C0873079F176
:100F0000883098F5863009F05BC025C08D3009F433
:100F100042C08E3028F48B30B1F18C30C0F52DC03A
:100F2000803109F442C0813109F445C08F3009F0A5
:100F300047C037C0809180008F7703C080918000C8
:100F40008F7D80938000089584B58F7702C084B52B
:100F50008F7D84BD08958091B0008F7703C080910C
:100F6000B0008F7D8093B0000895809190008F77BE
:100F700007C0809190008F7D03C080919000877F93
:100F80008093900008958091A0008F7707C0809192
:100F9000A0008F7D03C08091A000877F8093A00078
:100FA0000895809120018F7703C0809120018F7D6B
:100FB00080932001089580912001877F80932001F4
:100FC0000895FF920F931F93F62E482F50E0CA0109
:100FD00082549E4FFC012491CA0188589E4FFC0107
:100FE00014914E5C5E4FFA0104910023C1F022235C
:100FF00011F0822F72DFE02FF0E0EE0FFF1FE250C2
:10100000FF4FA591B4919FB7F894FF2021F48C91E4
:101010001095812302C08C91812B8C939FBF1F91CF
:101020000F91FF90089508951F920F920FB60F929F
:101030000BB60F9211242F933F934F938F939F934F
:10104000EF93FF938091C00082FD1DC04091C600C8
:101050002091490330914A032F5F3F4F2F73307027
:1010600080914B0390914C032817390771F0E09160
:101070004903F0914A03E75FFC4F408330934A03F2
:101080002093490302C08091C600FF91EF919F9188
:101090008F914F913F912F910F900BBE0F900FBEEC
:1010A0000F901F90189508951F920F920FB60F92F0
:1010B0000BB60F9211242F933F934F938F939F93CF
:1010C000EF93FF938091C80082FD1DC04091CE0038
:1010D0002091D1033091D2032F5F3F4F2F73307097
:1010E0008091D3039091D4032817390771F0E091D0
:1010F000D103F091D203EF56FC4F40833093D203DB
:101100002093D10302C08091CE00FF91EF919F9177
:101110008F914F913F912F910F900BBE0F900FBE6B
:101120000F901F90189508951F920F920FB60F926F
:101130000BB60F9211242F933F934F938F939F934E
:10114000EF93FF938091D00082FD1DC04091D600A7
:101150002091590430915A042F5F3F4F2F73307004
:1011600080915B0490915C042817390771F0E0913D
:101170005904F0915A04E75EFB4F408330935A04C0
:101180002093590402C08091D600FF91EF919F9166
:101190008F914F913F912F910F900BBE0F900FBEEB
:1011A0000F901F90189508951F920F920FB60F92EF
:1011B0000BB60F9211242F933F934F938F939F93CE
:1011C000EF93FF938091300182FD1DC04091360165
:1011D0002091E1043091E2042F5F3F4F2F73307074
:1011E0008091E3049091E4042817390771F0E091AD
:1011F000E104F091E204EF55FB4F40833093E204A9
:101200002093E10402C080913601FF91EF919F91FC
:101210008F914F913F912F910F900BBE0F900FBE6A
:101220000F901F901895E0913505F0913605E05C20
:10123000FF4F8191919120813181821B930B8F739C
:101240009070892B09F0EFDEE0915705F091580579
:10125000E05CFF4F8191919120813181821B930B42
:101260008F739070892B09F01EDFE0917905F09162
:101270007A05E05CFF4F8191919120813181821B41
:10128000930B8F739070892B09F04DDFE0919B05D4
:10129000F0919C05E05CFF4F81919191208131811B
:1012A000821B930B8F739070892B09F07CCF08956C
:1012B0001F920F920FB60F920BB60F9211242F931D
:1012C0003F938F939F93EF93FF9320918D033091E2
:1012D0008E0380918F03909190032817390731F482
:1012E0008091C1008F7D8093C10014C0E0918F0375
:1012F000F0919003E35BFC4F208180918F039091EC
:10130000900301968F7390709093900380938F0356
:101310002093C600FF91EF919F918F913F912F9164
:101320000F900BBE0F900FBE0F901F9018951F923D
:101330000F920FB60F920BB60F9211242F933F937B
:101340008F939F93EF93FF93209115043091160490
:1013500080911704909118042817390731F480916F
:10136000C9008F7D8093C90014C0E0911704F091EB
:101370001804EB52FC4F20818091170490911804BF
:1013800001968F73907090931804809317042093A4
:10139000CE00FF91EF919F918F913F912F910F90F0
:1013A0000BBE0F900FBE0F901F9018951F920F92BB
:1013B0000FB60F920BB60F9211242F933F938F937A
:1013C0009F93EF93FF9320919D0430919E04809111
:1013D0009F049091A0042817390731F48091D1001F
:1013E0008F7D8093D10014C0E0919F04F091A00400
:1013F000E35AFB4F208180919F049091A0040196B5
:101400008F7390709093A00480939F042093D600D4
:10141000FF91EF919F918F913F912F910F900BBE74
:101420000F900FBE0F901F9018951F920F920FB63E
:101430000F920BB60F9211242F933F938F939F938C
:10144000EF93FF9320912505309126058091270584
:10145000909128052817390731F4809131018F7D4B
:101460008093310114C0E0912705F0912805EB51DC
:10147000FB4F2081809127059091280501968F735D
:101480009070909328058093270520933601FF9153
:10149000EF919F918F913F912F910F900BBE0F90E5
:1014A0000FBE0F901F901895AF92BF92DF92EF92F0
:1014B000FF920F931F93CF93DF93EC017A018B017F
:1014C000DD24403081EE580780E0680780E078072F
:1014D00011F0DD24D39491E0A92EB12CEC89FD8983
:1014E000DD2069F0C50108A002C0880F991F0A9489
:1014F000E2F7808360E079E08DE390E005C0108240
:1015000060E874E88EE190E0A801970172D621505E
:10151000304040405040569547953795279580E19B
:101520002030380720F0DD2011F0DD24D7CFE88906
:10153000F9893083EA89FB89208319A2EE89FF8922
:10154000408121E030E0C9010C8C02C0880F991F56
:101550000A94E2F7482B4083EE89FF894081C90154
:101560000D8C02C0880F991F0A94E2F7482B408324
:10157000EE89FF894081C9010E8C02C0880F991F36
:101580000A94E2F7482B4083EE89FF8980810F8C13
:1015900002C0220F331F0A94E2F7209528232083EC
:1015A000DF91CF911F910F91FF90EF90DF90BF904F
:1015B000AF900895DC011C96ED91FC911D97E05CC5
:1015C000FF4F2191319180819181281B390B2F731D
:1015D0003070C9010895DC011C96ED91FC911D97B6
:1015E000E05CFF4F20813181E054F040DF01AE5BD1
:1015F000BF4F8D919C9111972817390719F42FEF40
:101600003FEF07C08D919C91E80FF91F8081282F33
:1016100030E0C9010895DC011C96ED91FC911D9705
:10162000E05CFF4F20813181E054F040DF01AE5B90
:10163000BF4F8D919C9111972817390719F42FEFFF
:101640003FEF10C08D919C911197E80FF91F2081F9
:101650008D919C91119701968F73907011969C9328
:101660008E9330E0C9010895DC0191968C91919799
:10167000882339F05496ED91FC915597808186FF2F
:10168000F9CF91961C920895CF93DF93EC01EE85EC
:10169000FF85E05CFF4F20813181E054F0402F5FF7
:1016A0003F4F2F733070DF01AE5BBF4F8D919C9128
:1016B000119728173907D1F3E05CFF4F80819181A2
:1016C000E054F040E80FF91F6083EE85FF85E05C91
:1016D000FF4F31832083EE89FF89208181E090E0F4
:1016E0000F8C02C0880F991F0A94E2F7282B2083E1
:1016F00081E089A3EC89FD8980818064808381E019
:1017000090E0DF91CF9108951F9310922C051092D5
:101710002B0528EE33E040E050E020932D05309378
:101720002E0540932F055093300562E272E07093CE
:101730002A056093290589E093E09093360580930C
:1017400035058DE493E0909338058093370585EC5B
:1017500090E090933A058093390584EC90E0909363
:101760003C0580933B0580EC90E090933E05809390
:101770003D0581EC90E09093400580933F0582EC1D
:1017800090E0909342058093410586EC90E0909321
:1017900044058093430514E010934505B3E0B093EE
:1017A0004605A7E0A0934705F5E0F0934805E1E082
:1017B000E093490510924E0510924D0520934F0578
:1017C00030935005409351055093520570934C054A
:1017D00060934B0581E993E09093580580935705FA
:1017E00085ED93E090935A05809359058DEC90E038
:1017F00090935C0580935B058CEC90E090935E0584
:1018000080935D0588EC90E09093600580935F0580
:1018100089EC90E090936205809361058AEC90E0FA
:1018200090936405809363058EEC90E09093660539
:101830008093650510936705B0936805A0936905CB
:10184000F0936A05E0936B051092700510926F0596
:10185000209371053093720540937305509374057E
:1018600070936E0560936D0589E194E090937A051D
:10187000809379058DE594E090937C0580937B05BA
:1018800085ED90E090937E0580937D0584ED90E05A
:101890009093800580937F0580ED90E09093820582
:1018A0008093810581ED90E090938405809383057A
:1018B00082ED90E0909386058093850586ED90E01B
:1018C000909388058093870510938905B0938A05C6
:1018D000A0938B05F0938C05E0938D0510929205F3
:1018E00010929105209393053093940540939505AC
:1018F000509396057093900560938F0581EA94E06C
:1019000090939C0580939B0585EE94E090939E05B3
:1019100080939D0585E391E09093A00580939F05BA
:1019200084E391E09093A2058093A10580E391E088
:101930009093A4058093A30581E391E09093A6057D
:101940008093A50582E391E09093A8058093A70575
:1019500086E391E09093AA058093A9051093AB05C7
:10196000B093AC05A093AD05F093AE05E093AF0541
:101970001F910895CF93DF934EDA0E94EE01C3E1E9
:10198000D9E00E9436012097E1F34DDCFACFCF92E7
:10199000DF92EF92FF920F931F93CF93DF937C011F
:1019A0006B018A01C0E0D0E00FC0D6016D916D01DE
:1019B000D701ED91FC910190F081E02DC7011995BF
:1019C000C80FD91F015010400115110571F7CE0144
:1019D000DF91CF911F910F91FF90EF90DF90CF900B
:1019E0000895EF92FF920F931F938C01DC01ED910C
:1019F000FC910190F081E02D6DE019957C01D801FA
:101A0000ED91FC910190F081E02DC8016AE01995FB
:101A10009C012E0D3F1DC9011F910F91FF90EF906A
:101A20000895CF93DF93EC016115710519F420E05F
:101A300030E00FC0DB010D900020E9F71197A61BE5
:101A4000B70BE881F9810280F381E02DAD01199592
:101A50009C01C901DF91CF9108954F925F927F92CF
:101A60008F929F92AF92BF92CF92DF92EF92FF92AE
:101A70000F931F93DF93CF93CDB7DEB7A1970FB628
:101A8000F894DEBF0FBECDBF2C01742ECB012230E7
:101A900008F42AE019A231E2C32ED12CCC0EDD1EAF
:101AA000822E9924AA24BB24672D752FA5019401A9
:101AB000A0D379018A01C801B701A50194017AD3A5
:101AC000472D461B0894C108D1084A3014F4405DE4
:101AD00001C0495CF6014083E114F10401051105E0
:101AE00021F07E2C5F2DC801DFCFC201B60199DF46
:101AF000A1960FB6F894DEBF0FBECDBFCF91DF9198
:101B00001F910F91FF90EF90DF90CF90BF90AF901B
:101B10009F908F907F905F904F900895DC012115EA
:101B2000310541F4ED91FC910190F081E02D642F9D
:101B30001995089592CFCF92DF92EF92FF920F9373
:101B40001F93CF93DF93EC016A017B0121153105CF
:101B500041F4E881F9810190F081E02D642F19951D
:101B60001DC02A303105C9F477FF16C0E881F9811C
:101B70000190F081E02D6DE219958C0144275527E5
:101B8000BA014C195D096E097F09CE012AE065DFB3
:101B90009801280F391F03C02AE05FDF9C01C901AB
:101BA000DF91CF911F910F91FF90EF90DF90CF9039
:101BB00008957F928F929F92AF92BF92CF92DF92C1
:101BC000EF92FF920F931F93CF93DF934C017A0113
:101BD0008B01722ECB01BA01A8019701E7D28823AD
:101BE00021F0C40160E072E01FC0C0E0D0E0570106
:101BF0006801E894D7F8C601B5012FEF3FEF4FE732
:101C00005FE7D4D2882349F4C601B5012FEF3FEF37
:101C10004FE75FE715D1181614F0C1E0D0E0219727
:101C200031F0C40164E072E0FCDEEC0184C0C80164
:101C3000B7012FEF3FEF4FE75FE451D218164CF09A
:101C4000C801B7012FEF3FEF4FE75FECF9D08823D2
:101C500024F4C40168E072E0E7CFC801B70120E0D6
:101C600030E040E050E0ECD087FD03C0C0E0D0E0C1
:101C70000EC0D401ED91FC910190F081E02DC401E2
:101C80006DE21995EC0117FB109517F9109520E0FE
:101C900030E040E05FE3DD240AC0CA01B90120E082
:101CA00030E040E251E4D0D09B01AC01D394D71492
:101CB000A0F3C801B70160D05B016C0132D17B0198
:101CC0008C01C401B801A7012AE030E027DFC80F6A
:101CD000D91F772031F0C4016CE072E0A2DEC80F9A
:101CE000D91FC801B70149D19B01AC01C601B5019B
:101CF00042D01FC020E030E040E251E4F4D17B014B
:101D00008C010AD15B016C01CC24B7FCC094DC2CA3
:101D1000C401B601A5012AE030E00DDFC80FD91FCC
:101D2000C601B5012CD19B01AC01C801B70123D07C
:101D30007A947720F9F6CE01DF91CF911F910F9120
:101D4000FF90EF90DF90CF90BF90AF909F908F90DB
:101D50007F900895EF92FF920F931F937C0129DFEC
:101D60008C01C7013EDE080F191FC8011F910F919A
:101D7000FF90EF9008955058BB27AA270ED075C149
:101D800066D130F06BD120F031F49F3F11F41EF496
:101D90005BC10EF4E095E7FB51C1E92F77D180F3E9
:101DA000BA17620773078407950718F071F49EF558
:101DB0008FC10EF4E0950B2EBA2FA02D0B01B901A7
:101DC00090010C01CA01A0011124FF27591B99F0B1
:101DD000593F50F4503E68F11A16F040A22F232FBD
:101DE000342F4427585FF3CF469537952795A7950D
:101DF000F0405395C9F77EF41F16BA0B620B730BB4
:101E0000840BBAF09150A1F0FF0FBB1F661F771F24
:101E1000881FC2F70EC0BA0F621F731F841F48F4D9
:101E2000879577956795B795F7959E3F08F0B3CF5F
:101E30009395880F08F09927EE0F97958795089549
:101E4000D9D008F481E008950CD00FC107D140F03B
:101E5000FED030F021F45F3F19F0F0C0511139C1CC
:101E6000F3C014D198F39923C9F35523B1F3951B0B
:101E7000550BBB27AA2762177307840738F09F5FAB
:101E80005F4F220F331F441FAA1FA9F333D00E2E1A
:101E90003AF0E0E830D091505040E695001CCAF787
:101EA00029D0FE2F27D0660F771F881FBB1F26174C
:101EB00037074807AB07B0E809F0BB0B802DBF011F
:101EC000FF2793585F4F2AF09E3F510568F0B6C038
:101ED00000C15F3FECF3983EDCF3869577956795FC
:101EE000B795F7959F5FC9F7880F911D96958795D0
:101EF00097F90895E1E0660F771F881FBB1F6217EF
:101F000073078407BA0720F0621B730B840BBA0BAC
:101F1000EE1F88F7E095089504D06894B111D9C0F8
:101F20000895BCD088F09F5790F0B92F9927B751EA
:101F3000A0F0D1F0660F771F881F991F1AF0BA958D
:101F4000C9F712C0B13081F0C3D0B1E00895C0C06C
:101F5000672F782F8827B85F39F0B93FCCF3869583
:101F600077956795B395D9F73EF4909580957095E0
:101F700061957F4F8F4F9F4F0895E89409C097FB5D
:101F80003EF490958095709561957F4F8F4F9F4F50
:101F90009923A9F0F92F96E9BB279395F695879594
:101FA00077956795B795F111F8CFFAF4BB0F11F457
:101FB00060FF1BC06F5F7F4F8F4F9F4F16C08823FE
:101FC00011F096E911C0772321F09EE8872F762F34
:101FD00005C0662371F096E8862F70E060E02AF075
:101FE0009A95660F771F881FDAF7880F9695879561
:101FF00097F90895990F0008550FAA0BE0E8FEEF36
:1020000016161706E807F907C0F012161306E407BC
:10201000F50798F0621B730B840B950B39F40A26B5
:1020200061F0232B242B252B21F408950A2609F493
:10203000A140A6958FEF811D811D089597F99F6797
:1020400080E870E060E008959FEF80EC0895002440
:102050000A941616170618060906089500240A940D
:1020600012161306140605060895092E0394000C93
:1020700011F4882352F0BB0F40F4BF2B11F460FF22
:1020800004C06F5F7F4F8F4F9F4F089557FD90584B
:10209000440F551F59F05F3F71F04795880F97FB2C
:1020A000991F61F09F3F79F08795089512161306E6
:1020B0001406551FF2CF4695F1DF08C01616170615
:1020C0001806991FF1CF869571056105089408954A
:1020D000E894BB2766277727CB0197F908958ADF15
:1020E00008F48FEF08950BD0C0CFB1DF28F0B6DF32
:1020F00018F0952309F0A2CFA7CF1124EACFC6DFAD
:10210000A0F3959FD1F3950F50E0551F629FF0010A
:10211000729FBB27F00DB11D639FAA27F00DB11D63
:10212000AA1F649F6627B00DA11D661F829F2227EC
:10213000B00DA11D621F739FB00DA11D621F839F73
:10214000A00D611D221F749F3327A00D611D231F49
:10215000849F600D211D822F762F6A2F11249F5797
:1021600050408AF0E1F088234AF0EE0FFF1FBB1FBA
:10217000661F771F881F91505040A9F79E3F510559
:1021800070F05CCFA6CF5F3FECF3983EDCF3869512
:1021900077956795B795F795E7959F5FC1F7FE2B04
:1021A000880F911D9695879597F9089523DF880BE1
:1021B000990B0895629FD001739FF001829FE00DFB
:1021C000F11D649FE00DF11D929FF00D839FF00DB6
:1021D000749FF00D659FF00D9927729FB00DE11D62
:1021E000F91F639FB00DE11DF91FBD01CF0111243F
:1021F0000895A1E21A2EAA1BBB1BFD010DC0AA1F48
:10220000BB1FEE1FFF1FA217B307E407F50720F05F
:10221000A21BB30BE40BF50B661F771F881F991FDA
:102220001A9469F760957095809590959B01AC0123
:10223000BD01CF010895EE0FFF1F0590F491E02D31
:062240001994F894FFCF91
:102246006E616E00696E66006F7666002E00000095
:1022560000008902590212021B02300241020000EC
:0E2266000000440BC70CDA0A0B0BEB0A340B1A
:00000001FF
