:1000000004C100002FC100002DC100002BC1000061
:1000100029C1000027C1000025C1000023C1000044
:1000200021C100001FC100001DC100001BC1000054
:1000300019C1000017C1000015C1000013C1000064
:1000400011C100000FC100000DC100000BC1000074
:1000500009C1000007C1000005C100003BC6000047
:1000600001C10000E1C700000C945809FBC000006A
:10007000F9C00000F7C00000F5C00000F3C00000A8
:10008000F1C00000EFC00000EDC00000EBC00000B8
:100090000C9454080C949709E5C0000067C3000055
:1000A000E1C00000DFC00000DDC00000DBC00000D8
:1000B000D9C00000D7C00000D5C00000D3C00000E8
:1000C000D1C00000CFC00000CDC000000C94940847
:1000D0000C94D609C7C000000C94D4080C94150ADF
:1000E000C1C0000000002100240027002A002D00CC
:1000F0003000330001010000040107010A01000083
:100100002200250028002B002E00310034000201BF
:100110000000050108010B0100002000230026005B
:1001200029002C002F00320000010000030106010D
:10013000090105050505070508080808020202026D
:100140000A0A080804040404010101010101010173
:100150000303030303030303040707070C0C0C0C3E
:100160000C0C0C0C02020202060606060606060627
:100170000B0B0B0B0B0B0B0B0102102020080810B4
:100180002040102040800201020108040201010207
:1001900004081020408080402010080402018004E0
:1001A000020180402010080402010804020101023B
:1001B0000408102040800102040810204080000044
:1001C000090A02080B0C0D070603040100000000D9
:1001D000000000000000000000000000000000001F
:1001E0000000000000000000000011100F000000DF
:1001F00000000000000000000000000000000000FF
:100200000000000033015C02840B11241FBECFEFFD
:10021000D1E2DEBFCDBF00E00CBF12E0A0E0B2E053
:10022000EEE4F2E200E00BBF02C007900D92AE33A5
:10023000B107D9F71BBE15E0AEE3B2E001C01D92D5
:10024000A13CB107E1F712E0CAE0D2E004C0229776
:10025000FE010E942111C430D107C9F70E94BA0CD7
:100260000C942511CDCE8AE492E031C4EF92FF9236
:100270000F931F93DF93CF93CDB7DEB72C970FB6B5
:10028000F894DEBF0FBECDBF8AE492E0BE016F5F7F
:100290007F4FAE014B5F5F4F9E01275F3F4F65D49D
:1002A00069817A818B819C8120E030E040E05FE3CE
:1002B0000E9477107B018C0160913E0270913F0299
:1002C000809140029091410220E030E040E05FE305
:1002D0000E9477109B01AC01C801B7010E94C00EBB
:1002E00060933E0270933F028093400290934102DC
:1002F0006D817E818F81988520E030E040E05FE372
:100300000E9477107B018C01609142027091430240
:10031000809144029091450220E030E040E05FE3AC
:100320000E9477109B01AC01C801B7010E94C00E6A
:10033000609342027093430280934402909345027B
:1003400069857A858B859C8520E030E040E05FE31D
:100350000E9477107B018C016091460270914702E8
:10036000809148029091490220E030E040E05FE354
:100370000E9477109B01AC01C801B7010E94C00E1A
:10038000609346027093470280934802909349021B
:1003900009E315E0C80160E072E00E94D90D4091C8
:1003A0003E0250913F026091400270914102C801AB
:1003B00022E030E00E94AC0EC80163E072E00E94CF
:1003C000D90D4091420250914302609144027091D4
:1003D0004502C80122E030E00E94AC0EC80169E08D
:1003E00072E00E94D90D40914602509147026091FF
:1003F000480270914902C80122E030E00E94AE0E2E
:1004000062E370E080E090E0ADD42C960FB6F894F3
:10041000DEBF0FBECDBFCF91DF911F910F91FF9037
:10042000EF9008958AE492E043D489E395E040E8B0
:1004300055E260E070E00E94540A64E670E080E0FB
:1004400090E090C481E080939502609372021092D4
:1004500093021092940208952091710230E08091ED
:100460007002281B3109C9010895409170028091E2
:100470007102481718F02FEF3FEF0AC0E42FF0E0A9
:10048000E05BFD4F8081282F30E04F5F409370028A
:10049000C9010895E091700280917102E81718F087
:1004A000EFEFFFEF06C0F0E0E05BFD4F8081E82F4B
:1004B000F0E0CF01089508951092990210929802E9
:1004C00088EE93E0A0E0B0E080939A0290939B02C4
:1004D000A0939C02B0939D0281E292E090939702D8
:1004E000809396020895CF92DF92EF92FF920F933E
:1004F0001F93CF93DF937C016B018A01809195025A
:100500008823A1F0C0E0D0E00DC0D701ED91FC91AF
:10051000D601AC0FBD1F0190F081E02DC7016C9199
:1005200019952196C017D10780F303C0CB01642F22
:1005300002D1C801DF91CF911F910F91FF90EF90F1
:10054000DF90CF900895DF93CF930F92CDB7DEB7B2
:10055000FC016983809195028823C9F080919402FF
:10056000803238F081E090E09383828320E030E0B5
:1005700014C080919302E82FF0E0ED58FD4F99816F
:1005800090838F5F809393028093940204C0CE0186
:10059000019661E0D0D021E030E0C9010F90CF9109
:1005A000DF9108950F93062F8091720263E772E046
:1005B0004091940221E06AD010929302109294022A
:1005C000109295020F91089561E0ECCF413208F04E
:1005D00040E2862F60E572E010D0109270028093A6
:1005E0007102089521E0F2CF109270021092710210
:1005F00010929302109294024EC2382F413210F0A2
:1006000040E042C08091A2028823E1F791E09093FC
:10061000A2022093A4028FEF80930F031092CA02CC
:1006200041504093CB024F5F9093A3028091A3026D
:10063000330F832B8093A3028091A502813041F474
:100640001092A5028091A3028093BB0085EC01C0AB
:1006500085EE8093BC008091A2028130E1F380910D
:10066000CA02841710F44091CA0220E030E00AC0A8
:10067000FB01E20FF31FD901A655BD4F8C9180837A
:100680002F5F3F4F2417A0F3842F08950F931F93DC
:10069000582F122F413210F081E04AC08091A202FF
:1006A0008823E1F782E08093A2020093A4028FEFF7
:1006B00080930F031092CA024093CB02AAEAB2E0E1
:1006C000FB0102C081918D938E2F861B8417D0F37E
:1006D0001092A3028091A302550F852B8093A30251
:1006E0008091A502813041F41092A5028091A3026D
:1006F0008093BB0085EC01C085EE8093BC00112384
:1007000021F08091A2028230E1F380910F038F3FAC
:1007100011F480E00DC080910F03803211F482E06B
:1007200007C080910F03803311F084E001C083E0A3
:100730001F910F910895482F613210F081E00895C4
:100740008091A202843011F082E008956093ED025E
:10075000ACECB2E0842F9C01F90102C081918D9331
:100760008E2F841B8617D0F380E008951F920F927E
:100770000FB60F920BB60F9211242F933F934F9306
:100780005F936F937F938F939F93AF93BF93EF93F9
:10079000FF938091B90090E0887F9070803691053A
:1007A00009F4F2C081369105CCF58832910509F43F
:1007B0007BC089329105B4F48031910509F46FC092
:1007C000813191053CF4009709F447C1089709F07D
:1007D0004FC165C08831910509F466C0809709F062
:1007E00047C182C08034910509F4A4C081349105C9
:1007F00044F48033910509F482C0C89709F038C1E8
:1008000089C08035910509F489C08835910509F4BE
:1008100096C08834910509F02BC1AEC08839910586
:1008200009F413C189399105ECF48837910509F46D
:10083000ABC0893791054CF48836910509F4A4C002
:100840008037910509F014C19FC08838910509F4DB
:10085000FCC08039910509F49DC08038910509F0EC
:1008600007C198C0803B910509F4C6C0813B910542
:100870004CF4803A910509F49FC0883A910509F03B
:10088000F7C0BAC0803C910509F4E3C0883C9105EB
:1008900009F4DFC0883B910509F0EAC0C2C080912D
:1008A000A3028093BB00CFC09091CA028091CB027B
:1008B000981768F49091CA02E92FF0E0E655FD4FD1
:1008C00080818093BB009F5F9093CA02BCC08091DF
:1008D000A402882309F44BC085ED8093BC0080916D
:1008E000BC0084FDFCCFC2C080E280930F0385ED85
:1008F0008093BC008091BC0084FDFCCFB7C080E336
:1009000080930F0385ED8093BC008091BC0084FD33
:10091000FCCFACC088E380930F039BC08091CA02D8
:100920009091BB00E82FF0E0E655FD4F90838F5F7C
:100930008093CA029091CA028091CB0282C08091BA
:10094000CA029091BB00E82FF0E0E655FD4F90837E
:100950008F5F8093CA028091A402882341F085EDC5
:100960008093BC008091BC0084FDFCCF7FC081E0FF
:100970008093A50284EA6EC085ED8093BC008091CF
:10098000BC0084FDFCCF72C083E08093A202109271
:100990000E0359C080910E03803208F056C080913A
:1009A0000E039091BB00E82FF0E0E251FD4F9083E1
:1009B0008F5F80930E0347C080910E03803230F426
:1009C000E0910E03F0E0E251FD4F108285ED80933F
:1009D000BC008091BC0084FDFCCF1092A20260910B
:1009E0000E03E091A802F091A9028EEE92E070E071
:1009F000199510920E032DC084E08093A2021092EC
:100A0000EC021092ED02E091A602F091A702199576
:100A10008091ED02882329F481E08093ED02109209
:100A2000CC029091EC02E92FF0E0E453FD4F80817D
:100A30008093BB009F5F9093EC029091EC028091B9
:100A4000ED02981710F485EC01C085E88093BC0096
:100A50000FC085EC8093BC0009C010920F0385ED98
:100A60008093BC008091BC0084FDFCCF1092A20258
:100A7000FF91EF91BF91AF919F918F917F916F9176
:100A80005F914F913F912F910F900BBE0F900FBE32
:100A90000F901F9018951092A20281E08093A402FB
:100AA0001092A50284E161E08CD285E161E089D2F7
:100AB000E9EBF0E080818E7F808380818D7F808371
:100AC00088E48093B80085E48093BC0008950F9378
:100AD0001F938C0186E992E087DD8CEE9FEFF80191
:100AE000918380838FE090E09383828389EE9FEFF0
:100AF000958384831F910F910895CF92DF92EF9297
:100B0000FF921F93CF93DF93162F7A01690186E935
:100B100092E063E570E096DC86E992E0612F13DDF8
:100B200086E992E051DD86E992E063E570E0A70195
:100B300059DDC0E0D0E086E992E08EDC892B61F0DF
:100B4000CE15DF054CF486E992E08FDCF601EC0F60
:100B5000FD1F80832196EFCFCE01DF91CF911F91B2
:100B6000FF90EF90DF90CF900895AF92BF92CF9219
:100B7000DF92EF92FF920F931F93DF93CF9300D0FA
:100B800000D0CDB7DEB78C017B016A01590162E369
:100B900046E050E09E012F5F3F4FAFDF698170E07C
:100BA000F80120813181621B730B3A8120E0620FD2
:100BB000731F882777FD8095982F0E94C30F20E030
:100BC00030E040E85BE30E947710F70160837183B7
:100BD000828393836B8170E0F80122813381621BF1
:100BE000730B3C8120E0620F731F882777FD80958F
:100BF000982F0E94C30F20E030E040E85BE30E94A2
:100C00007710F60160837183828393836D8170E036
:100C1000F80124813581621B730B3E8120E0620F55
:100C2000731F882777FD8095982F0E94C30F20E0BF
:100C300030E040E85BE30E947710F5016083718348
:100C40008283938326960FB6F894DEBF0FBECDBF86
:100C5000CF91DF911F910F91FF90EF90DF90CF9098
:100C6000BF90AF900895BF92CF92DF92EF92FF9224
:100C70000F931F93B62E6A01790106E912E0C801AD
:100C800063E570E0DFDBC8016B2D5DDCC801B701F7
:100C9000A60129DCF82EE92EC80196DC8F2D9E2DA9
:100CA0001F910F91FF90EF90DF90CF90BF9008952C
:100CB000DF93CF930F92CDB7DEB728E029836DE2A3
:100CC00041E050E09E012F5F3F4FCDDF0F90CF916D
:100CD000DF9108951F920F920FB60F9211242F9358
:100CE0003F938F939F93AF93BF9380911403909101
:100CF0001503A0911603B0911703309118030196C4
:100D0000A11DB11D232F2D5F2D3720F02D570196EA
:100D1000A11DB11D20931803809314039093150314
:100D2000A0931603B09317038091100390911103C1
:100D3000A0911203B09113030196A11DB11D8093E0
:100D4000100390931103A0931203B0931303BF9168
:100D5000AF919F918F913F912F910F900FBE0F9068
:100D60001F9018959B01AC017FB7F89480911003F8
:100D700090911103A0911203B091130366B5A89B43
:100D800005C06F3F19F00196A11DB11D7FBFBA2F9D
:100D9000A92F982F8827860F911DA11DB11D62E0F4
:100DA000880F991FAA1FBB1F6A95D1F7BC012DC0E0
:100DB000FFB7F8948091100390911103A091120352
:100DC000B0911303E6B5A89B05C0EF3F19F001965B
:100DD000A11DB11DFFBFBA2FA92F982F88278E0FF5
:100DE000911DA11DB11DE2E0880F991FAA1FBB1F15
:100DF000EA95D1F7861B970B885E9340C8F2215085
:100E000030404040504068517C4F2115310541052C
:100E1000510571F60895789484B5826084BD84B5D7
:100E2000816084BD85B5826085BD85B5816085BDE5
:100E3000EEE6F0E0808181608083E1E8F0E01082FE
:100E4000808182608083808181608083E0E8F0E03F
:100E5000808181608083E1EBF0E080818460808329
:100E6000E0EBF0E0808181608083E1E9F0E0808167
:100E700082608083808181608083E0E9F0E080810E
:100E800081608083E1EAF0E08081826080838081FC
:100E900081608083E0EAF0E0808181608083E1E22C
:100EA000F1E0808182608083808181608083E0E2E4
:100EB000F1E0808181608083EAE7F0E080818460F6
:100EC0008083808182608083808181608083808153
:100ED000806880831092C1000895893009F449C068
:100EE0008A30A0F4843051F1853040F4823079F1B9
:100EF000833000F5813009F063C026C0873079F176
:100F0000883098F5863009F05BC025C08D3009F433
:100F100042C08E3028F48B30B1F18C30C0F52DC03A
:100F2000803109F442C0813109F445C08F3009F0A5
:100F300047C037C0809180008F7703C080918000C8
:100F40008F7D80938000089584B58F7702C084B52B
:100F50008F7D84BD08958091B0008F7703C080910C
:100F6000B0008F7D8093B0000895809190008F77BE
:100F700007C0809190008F7D03C080919000877F93
:100F80008093900008958091A0008F7707C0809192
:100F9000A0008F7D03C08091A000877F8093A00078
:100FA0000895809120018F7703C0809120018F7D6B
:100FB00080932001089580912001877F80932001F4
:100FC0000895FF920F931F93F62E482F50E0CA0109
:100FD00082549E4FFC012491CA0188589E4FFC0107
:100FE00014914E5C5E4FFA0104910023C1F022235C
:100FF00011F0822F72DFE02FF0E0EE0FFF1FE250C2
:10100000FF4FA591B4919FB7F894FF2021F48C91E4
:101010001095812302C08C91812B8C939FBF1F91CF
:101020000F91FF90089508951F920F920FB60F929F
:101030000BB60F9211242F933F934F938F939F934F
:10104000EF93FF938091C00082FD1DC04091C600C8
:101050002091590330915A032F5F3F4F2F73307007
:1010600080915B0390915C032817390771F0E09140
:101070005903F0915A03E75EFC4F408330935A03C3
:101080002093590302C08091C600FF91EF919F9178
:101090008F914F913F912F910F900BBE0F900FBEEC
:1010A0000F901F90189508951F920F920FB60F92F0
:1010B0000BB60F9211242F933F934F938F939F93CF
:1010C000EF93FF938091C80082FD1DC04091CE0038
:1010D0002091E1033091E2032F5F3F4F2F73307077
:1010E0008091E3039091E4032817390771F0E091B0
:1010F000E103F091E203EF55FC4F40833093E203AC
:101100002093E10302C08091CE00FF91EF919F9167
:101110008F914F913F912F910F900BBE0F900FBE6B
:101120000F901F90189508951F920F920FB60F926F
:101130000BB60F9211242F933F934F938F939F934E
:10114000EF93FF938091D00082FD1DC04091D600A7
:101150002091690430916A042F5F3F4F2F733070E4
:1011600080916B0490916C042817390771F0E0911D
:101170006904F0916A04E75DFB4F408330936A0491
:101180002093690402C08091D600FF91EF919F9156
:101190008F914F913F912F910F900BBE0F900FBEEB
:1011A0000F901F90189508951F920F920FB60F92EF
:1011B0000BB60F9211242F933F934F938F939F93CE
:1011C000EF93FF938091300182FD1DC04091360165
:1011D0002091F1043091F2042F5F3F4F2F73307054
:1011E0008091F3049091F4042817390771F0E0918D
:1011F000F104F091F204EF54FB4F40833093F2047A
:101200002093F10402C080913601FF91EF919F91EC
:101210008F914F913F912F910F900BBE0F900FBE6A
:101220000F901F901895E0914505F0914605E05C00
:10123000FF4F8191919120813181821B930B8F739C
:101240009070892B09F0EFDEE0916705F091680559
:10125000E05CFF4F8191919120813181821B930B42
:101260008F739070892B09F01EDFE0918905F09152
:101270008A05E05CFF4F8191919120813181821B31
:10128000930B8F739070892B09F04DDFE091AB05C4
:10129000F091AC05E05CFF4F81919191208131810B
:1012A000821B930B8F739070892B09F07CCF08956C
:1012B0001F920F920FB60F920BB60F9211242F931D
:1012C0003F938F939F93EF93FF9320919D033091D2
:1012D0009E0380919F039091A0032817390731F452
:1012E0008091C1008F7D8093C10014C0E0919F0365
:1012F000F091A003E35AFC4F208180919F039091CD
:10130000A00301968F7390709093A00380939F0326
:101310002093C600FF91EF919F918F913F912F9164
:101320000F900BBE0F900FBE0F901F9018951F923D
:101330000F920FB60F920BB60F9211242F933F937B
:101340008F939F93EF93FF93209125043091260470
:1013500080912704909128042817390731F480914F
:10136000C9008F7D8093C90014C0E0912704F091DB
:101370002804EB51FC4F2081809127049091280490
:1013800001968F7390709093280480932704209384
:10139000CE00FF91EF919F918F913F912F910F90F0
:1013A0000BBE0F900FBE0F901F9018951F920F92BB
:1013B0000FB60F920BB60F9211242F933F938F937A
:1013C0009F93EF93FF932091AD043091AE048091F1
:1013D000AF049091B0042817390731F48091D100FF
:1013E0008F7D8093D10014C0E091AF04F091B004E0
:1013F000E359FB4F20818091AF049091B004019696
:101400008F7390709093B0048093AF042093D600B4
:10141000FF91EF919F918F913F912F910F900BBE74
:101420000F900FBE0F901F9018951F920F920FB63E
:101430000F920BB60F9211242F933F938F939F938C
:10144000EF93FF9320913505309136058091370554
:10145000909138052817390731F4809131018F7D3B
:101460008093310114C0E0913705F0913805EB50BD
:10147000FB4F2081809137059091380501968F733D
:101480009070909338058093370520933601FF9133
:10149000EF919F918F913F912F910F900BBE0F90E5
:1014A0000FBE0F901F901895AF92BF92DF92EF92F0
:1014B000FF920F931F93CF93DF93EC017A018B017F
:1014C000DD24403081EE580780E0680780E078072F
:1014D00011F0DD24D39491E0A92EB12CEC89FD8983
:1014E000DD2069F0C50108A002C0880F991F0A9489
:1014F000E2F7808360E079E08DE390E005C0108240
:1015000060E874E88EE190E0A801970176D621505A
:10151000304040405040569547953795279580E19B
:101520002030380720F0DD2011F0DD24D7CFE88906
:10153000F9893083EA89FB89208319A2EE89FF8922
:10154000408121E030E0C9010C8C02C0880F991F56
:101550000A94E2F7482B4083EE89FF894081C90154
:101560000D8C02C0880F991F0A94E2F7482B408324
:10157000EE89FF894081C9010E8C02C0880F991F36
:101580000A94E2F7482B4083EE89FF8980810F8C13
:1015900002C0220F331F0A94E2F7209528232083EC
:1015A000DF91CF911F910F91FF90EF90DF90BF904F
:1015B000AF900895DC011C96ED91FC911D97E05CC5
:1015C000FF4F2191319180819181281B390B2F731D
:1015D0003070C9010895DC011C96ED91FC911D97B6
:1015E000E05CFF4F20813181E054F040DF01AE5BD1
:1015F000BF4F8D919C9111972817390719F42FEF40
:101600003FEF07C08D919C91E80FF91F8081282F33
:1016100030E0C9010895DC011C96ED91FC911D9705
:10162000E05CFF4F20813181E054F040DF01AE5B90
:10163000BF4F8D919C9111972817390719F42FEFFF
:101640003FEF10C08D919C911197E80FF91F2081F9
:101650008D919C91119701968F73907011969C9328
:101660008E9330E0C9010895DC0191968C91919799
:10167000882339F05496ED91FC915597808186FF2F
:10168000F9CF91961C920895CF93DF93EC01EE85EC
:10169000FF85E05CFF4F20813181E054F0402F5FF7
:1016A0003F4F2F733070DF01AE5BBF4F8D919C9128
:1016B000119728173907D1F3E05CFF4F80819181A2
:1016C000E054F040E80FF91F6083EE85FF85E05C91
:1016D000FF4F31832083EE89FF89208181E090E0F4
:1016E0000F8C02C0880F991F0A94E2F7282B2083E1
:1016F00081E089A3EC89FD8980818064808381E019
:1017000090E0DF91CF9108951F9310923C051092C5
:101710003B0528EE33E040E050E020933D05309358
:101720003E0540933F055093400561E372E070939E
:101730003A056093390589E193E0909346058093DB
:1017400045058DE593E0909348058093470585EC2A
:1017500090E090934A058093490584EC90E0909343
:101760004C0580934B0580EC90E090934E05809360
:101770004D0581EC90E09093500580934F0582ECED
:1017800090E0909352058093510586EC90E0909301
:1017900054058093530514E010935505B3E0B093BE
:1017A0005605A7E0A0935705F5E0F0935805E1E052
:1017B000E093590510925E0510925D0520935F0538
:1017C00030936005409361055093620570935C050A
:1017D00060935B0581EA93E09093680580936705C9
:1017E00085EE93E090936A05809369058DEC90E017
:1017F00090936C0580936B058CEC90E090936E0554
:1018000080936D0588EC90E09093700580936F0550
:1018100089EC90E090937205809371058AEC90E0DA
:1018200090937405809373058EEC90E09093760509
:101830008093750510937705B0937805A09379058B
:10184000F0937A05E0937B051092800510927F0556
:10185000209381053093820540938305509384053E
:1018600070937E0560937D0589E294E090938A05EC
:10187000809389058DE694E090938C0580938B0589
:1018800085ED90E090938E0580938D0584ED90E03A
:101890009093900580938F0580ED90E09093920552
:1018A0008093910581ED90E090939405809393054A
:1018B00082ED90E0909396058093950586ED90E0FB
:1018C000909398058093970510939905B0939A0586
:1018D000A0939B05F0939C05E0939D051092A205B3
:1018E0001092A1052093A3053093A4054093A5056C
:1018F0005093A6057093A00560939F0581EB94E03B
:101900009093AC058093AB0585EF94E09093AE0582
:101910008093AD0585E391E09093B0058093AF058A
:1019200084E391E09093B2058093B10580E391E068
:101930009093B4058093B30581E391E09093B6054D
:101940008093B50582E391E09093B8058093B70545
:1019500086E391E09093BA058093B9051093BB0597
:10196000B093BC05A093BD05F093BE05E093BF0501
:101970001F910895CF93DF934EDA0E941202C3E1C4
:10198000D9E00E9436012097E1F34DDCFACFCF92E7
:10199000DF92EF92FF920F931F93CF93DF937C011F
:1019A0006B018A01C0E0D0E00FC0D6016D916D01DE
:1019B000D701ED91FC910190F081E02DC7011995BF
:1019C000C80FD91F015010400115110571F7CE0144
:1019D000DF91CF911F910F91FF90EF90DF90CF900B
:1019E0000895EF92FF920F931F938C01DC01ED910C
:1019F000FC910190F081E02D6DE019957C01D801FA
:101A0000ED91FC910190F081E02DC8016AE01995FB
:101A10009C012E0D3F1DC9011F910F91FF90EF906A
:101A20000895CF93DF93EC016115710519F420E05F
:101A300030E00FC0DB010D900020E9F71197A61BE5
:101A4000B70BE881F9810280F381E02DAD01199592
:101A50009C01C901DF91CF9108954F925F927F92CF
:101A60008F929F92AF92BF92CF92DF92EF92FF92AE
:101A70000F931F93DF93CF93CDB7DEB7A1970FB628
:101A8000F894DEBF0FBECDBF2C01742ECB012230E7
:101A900008F42AE019A231E2C32ED12CCC0EDD1EAF
:101AA000822E9924AA24BB24672D752FA5019401A9
:101AB000A4D379018A01C801B701A50194017ED39D
:101AC000472D461B0894C108D1084A3014F4405DE4
:101AD00001C0495CF6014083E114F10401051105E0
:101AE00021F07E2C5F2DC801DFCFC201B60199DF46
:101AF000A1960FB6F894DEBF0FBECDBFCF91DF9198
:101B00001F910F91FF90EF90DF90CF90BF90AF901B
:101B10009F908F907F905F904F900895DC012115EA
:101B2000310541F4ED91FC910190F081E02D642F9D
:101B30001995089592CFCF92DF92EF92FF920F9373
:101B40001F93CF93DF93EC016A017B0121153105CF
:101B500041F4E881F9810190F081E02D642F19951D
:101B60001DC02A303105C9F477FF16C0E881F9811C
:101B70000190F081E02D6DE219958C0144275527E5
:101B8000BA014C195D096E097F09CE012AE065DFB3
:101B90009801280F391F03C02AE05FDF9C01C901AB
:101BA000DF91CF911F910F91FF90EF90DF90CF9039
:101BB000089537CF08957F928F929F92AF92BF92F0
:101BC000CF92DF92EF92FF920F931F93CF93DF9309
:101BD0004C017A018B01722ECB01BA01A801970149
:101BE000E9D2882321F0C4016FE072E01FC0C0E099
:101BF000D0E057016801E894D7F8C601B5012FEF8E
:101C00003FEF4FE75FE7D6D2882349F4C601B5011D
:101C10002FEF3FEF4FE75FE717D1181614F0C1E041
:101C2000D0E0219731F0C40163E172E0FADEEC010B
:101C300084C0C801B7012FEF3FEF4FE75FE453D2F5
:101C400018164CF0C801B7012FEF3FEF4FE75FECDC
:101C5000FBD0882324F4C40167E172E0E7CFC80118
:101C6000B70120E030E040E050E0EED087FD03C057
:101C7000C0E0D0E00EC0D401ED91FC910190F08164
:101C8000E02DC4016DE21995EC0117FB109517F9D1
:101C9000109520E030E040E05FE3DD240AC0CA0197
:101CA000B90120E030E040E251E4D2D09B01AC0128
:101CB000D394D714A0F3C801B70162D05B016C01C3
:101CC00034D17B018C01C401B801A7012AE030E0C6
:101CD00025DFC80FD91F772031F0C4016BE172E016
:101CE000A0DEC80FD91FC801B7014BD19B01AC01C1
:101CF000C601B50144D01FC020E030E040E251E40D
:101D0000F6D17B018C010CD15B016C01CC24B7FCBA
:101D1000C094DC2CC401B601A5012AE030E00BDF41
:101D2000C80FD91FC601B5012ED19B01AC01C80156
:101D3000B70125D07A947720F9F6CE01DF91CF91C3
:101D40001F910F91FF90EF90DF90CF90BF90AF90D9
:101D50009F908F907F9008952ECF0895EF92FF92DD
:101D60000F931F937C0127DF8C01C7013ADE080F18
:101D7000191FC8011F910F91FF90EF9008955058BF
:101D8000BB27AA270ED075C166D130F06BD120F0E9
:101D900031F49F3F11F41EF45BC10EF4E095E7FBB4
:101DA00051C1E92F77D180F3BA176207730784070F
:101DB000950718F071F49EF58FC10EF4E0950B2E87
:101DC000BA2FA02D0B01B90190010C01CA01A0018D
:101DD0001124FF27591B99F0593F50F4503E68F1E8
:101DE0001A16F040A22F232F342F4427585FF3CF29
:101DF000469537952795A795F0405395C9F77EF4FA
:101E00001F16BA0B620B730B840BBAF09150A1F042
:101E1000FF0FBB1F661F771F881FC2F70EC0BA0FC8
:101E2000621F731F841F48F4879577956795B79550
:101E3000F7959E3F08F0B3CF9395880F08F0992748
:101E4000EE0F979587950895D9D008F481E008950D
:101E50000CD00FC107D140F0FED030F021F45F3F2D
:101E600019F0F0C0511139C1F3C014D198F399237E
:101E7000C9F35523B1F3951B550BBB27AA2762174E
:101E80007307840738F09F5F5F4F220F331F441F93
:101E9000AA1FA9F333D00E2E3AF0E0E830D09150CB
:101EA0005040E695001CCAF729D0FE2F27D0660FB8
:101EB000771F881FBB1F261737074807AB07B0E8F7
:101EC00009F0BB0B802DBF01FF2793585F4F2AF00D
:101ED0009E3F510568F0B6C000C15F3FECF3983EED
:101EE000DCF3869577956795B795F7959F5FC9F76A
:101EF000880F911D9695879597F90895E1E0660FF3
:101F0000771F881FBB1F621773078407BA0720F06B
:101F1000621B730B840BBA0BEE1F88F7E0950895D4
:101F200004D06894B111D9C00895BCD088F09F57EF
:101F300090F0B92F9927B751A0F0D1F0660F771F15
:101F4000881F991F1AF0BA95C9F712C0B13081F0F5
:101F5000C3D0B1E00895C0C0672F782F8827B85F3D
:101F600039F0B93FCCF3869577956795B395D9F756
:101F70003EF490958095709561957F4F8F4F9F4F60
:101F80000895E89409C097FB3EF49095809570956C
:101F900061957F4F8F4F9F4F9923A9F0F92F96E9B5
:101FA000BB279395F695879577956795B795F1112A
:101FB000F8CFFAF4BB0F11F460FF1BC06F5F7F4FC7
:101FC0008F4F9F4F16C0882311F096E911C07723D9
:101FD00021F09EE8872F762F05C0662371F096E8E2
:101FE000862F70E060E02AF09A95660F771F881FB1
:101FF000DAF7880F9695879597F90895990F000855
:10200000550FAA0BE0E8FEEF16161706E807F907CA
:10201000C0F012161306E407F50798F0621B730B65
:10202000840B950B39F40A2661F0232B242B252BE6
:1020300021F408950A2609F4A140A6958FEF811D89
:10204000811D089597F99F6780E870E060E008952A
:102050009FEF80EC089500240A94161617061806C0
:102060000906089500240A9412161306140605069C
:102070000895092E0394000C11F4882352F0BB0F2D
:1020800040F4BF2B11F460FF04C06F5F7F4F8F4F90
:102090009F4F089557FD9058440F551F59F05F3FCB
:1020A00071F04795880F97FB991F61F09F3F79F07A
:1020B00087950895121613061406551FF2CF4695FC
:1020C000F1DF08C0161617061806991FF1CF86957E
:1020D0007105610508940895E894BB276627772762
:1020E000CB0197F908958ADF08F48FEF08950BD09C
:1020F000C0CFB1DF28F0B6DF18F0952309F0A2CFEA
:10210000A7CF1124EACFC6DFA0F3959FD1F3950F97
:1021100050E0551F629FF001729FBB27F00DB11D6B
:10212000639FAA27F00DB11DAA1F649F6627B00DFB
:10213000A11D661F829F2227B00DA11D621F739FE4
:10214000B00DA11D621F839FA00D611D221F749FF2
:102150003327A00D611D231F849F600D211D822F39
:10216000762F6A2F11249F5750408AF0E1F0882380
:102170004AF0EE0FFF1FBB1F661F771F881F91508D
:102180005040A9F79E3F510570F05CCFA6CF5F3F4E
:10219000ECF3983EDCF3869577956795B795F795C0
:1021A000E7959F5FC1F7FE2B880F911D9695879548
:1021B00097F9089523DF880B990B0895629FD0014A
:1021C000739FF001829FE00DF11D649FE00DF11DF2
:1021D000929FF00D839FF00D749FF00D659FF00DA1
:1021E0009927729FB00DE11DF91F639FB00DE11D8E
:1021F000F91FBD01CF0111240895A1E21A2EAA1BD7
:10220000BB1BFD010DC0AA1FBB1FEE1FFF1FA217A6
:10221000B307E407F50720F0A21BB30BE40BF50BA3
:10222000661F771F881F991F1A9469F7609570952C
:10223000809590959B01AC01BD01CF010895EE0FF3
:0E224000FF1F0590F491E02D1994F894FFCF44
:10224E00783A002C2020793A002C20207A3A006E21
:10225E00616E00696E66006F7666002E00000000EB
:10226E0000A30273022C0235024A025B0200000038
:0E227E0000440BC70CDA0A0B0BEB0A340B0002
:00000001FF
