:100000001BC1000046C1000044C1000042C1000005
:1000100040C100003EC100003CC100003AC10000E8
:1000200038C1000036C1000034C1000032C10000F8
:1000300030C100002EC100002CC100002AC1000008
:1000400028C1000026C1000024C1000022C1000018
:1000500020C100001EC100001CC100008EC60000AF
:1000600018C100000C9467080C94AB0912C1000081
:1000700010C100000EC100000CC100000AC1000048
:1000800008C1000006C1000004C1000002C1000058
:100090000C94A7080C94EA09FCC00000BAC3000045
:1000A000F8C00000F6C00000F4C00000F2C000007C
:1000B000F0C00000EEC00000ECC00000EAC000008C
:1000C000E8C00000E6C00000E4C000000C94E708AF
:1000D0000C94290ADEC000000C9427090C94680ACD
:1000E000D8C00000084AD73B3BCE016E84BCBFFDA0
:1000F000C12F3D6C74319ABD56833DDA3D00C77FF8
:1001000011BED9E4BB4C3E916BAAAABE0000008090
:100110003F00002100240027002A002D003000337A
:100120000001010000040107010A0100002200256E
:100130000028002B002E00310034000201000005D1
:100140000108010B01000020002300260029002CDB
:10015000002F003200000100000301060109010523
:10016000050505070508080808020202020A0A0830
:100170000804040404010101010101010103030356
:100180000303030303040707070C0C0C0C0C0C0CF3
:100190000C0202020206060606060606060B0B0BFA
:1001A0000B0B0B0B0B010210202008081020401035
:1001B000204080020102010804020101020408102B
:1001C0002040808040201008040201800402018049
:1001D0004020100804020108040201010204081072
:1001E00020408001020408102040800000090A021B
:1001F000080B0C0D070603040100000000000000BE
:1002000000000000000000000000000000000000EE
:100210000000000000000011100F000000000000AE
:1002200000000000000000000000000000000000CE
:1002300000004A01AF02D70B11241FBECFEFD1E25D
:10024000DEBFCDBF00E00CBF12E0A0E0B2E0E0EE08
:10025000F4E200E00BBF02C007900D92A233B10799
:10026000D9F71BBE15E0A2E3B2E001C01D92A53B89
:10027000B107E1F712E0C8E3D2E004C02297FE0123
:100280000E946A12C233D107C9F70E940D0D0C9467
:100290006E12B6CE8EE392E06DC42F923F924F92D3
:1002A0005F926F927F928F929F92AF92BF92CF9206
:1002B000DF92EF92FF920F931F93DF93CF93CDB70F
:1002C000DEB72C970FB6F894DEBF0FBECDBF8EE31E
:1002D00092E0BE016F5F7F4FAE014B5F5F4F9E01AB
:1002E000275F3F4F95D469817A818B819C8120E083
:1002F00030E040E05FE30E9458117B018C01609187
:10030000320270913302809134029091350220E0E4
:1003100030E040E05FE30E9458119B01AC01C8014E
:10032000B7010E94130F3B014C01CB01D401809314
:10033000320290933302A0933402B09335026D8160
:100340007E818F81988520E030E040E05FE30E946D
:1003500058117B018C0160913602709137028091B7
:1003600038029091390220E030E040E05FE30E94E3
:1003700058119B01AC01C801B7010E94130F5B012A
:100380006C01609336027093370280933802909329
:10039000390269857A858B859C8520E030E040E0D4
:1003A0005FE30E9458117B018C0160913A027091C9
:1003B0003B0280913C0290913D0220E030E040E021
:1003C0005FE30E9458119B01AC01C801B7010E9474
:1003D000130F7B018C0160933A0270933B02809370
:1003E0003C0290933D02C601B5019058A8019701C7
:1003F0000E94860F1B012C01C601B501A6019501C3
:100400000E9458115B016C01C801B701A801970156
:100410000E9458119B01AC01C601B5010E94130F47
:100420000E94BF119B01AC01B301C4010E94860F61
:100430000DE215E020E030E044E353E40E9458115F
:100440002BED3FE049E450E40E94DD0FAB01BC011D
:10045000C80122E030E00E94FF0EC80160E072E0B7
:100460000E942C0EC201B10120E030E044E353E4CD
:100470000E9458112BED3FE049E450E40E94DD0F4B
:10048000AB01BC01C80122E030E00E94010F62E331
:1004900070E080E090E0B9D42C960FB6F894DEBFFF
:1004A0000FBECDBFCF91DF911F910F91FF90EF90C5
:1004B000DF90CF90BF90AF909F908F907F906F9084
:1004C0005F904F903F902F9008958EE392E043D439
:1004D0008DE295E040E855E260E070E00E94A70AF6
:1004E00064E670E080E090E090C481E0809389024F
:1004F00060936602109287021092880208952091FC
:10050000650230E080916402281B3109C901089519
:100510004091640280916502481718F02FEF3FEF79
:100520000AC0E42FF0E0EC5BFD4F8081282F30E023
:100530004F5F40936402C9010895E0916402809185
:100540006502E81718F0EFEFFFEF06C0F0E0EC5B94
:10055000FD4F8081E82FF0E0CF01089508951092BB
:100560008D0210928C0288EE93E0A0E0B0E08093C0
:100570008E0290938F02A0939002B093910286E135
:1005800092E090938B0280938A020895CF92DF923B
:10059000EF92FF920F931F93CF93DF937C016B0138
:1005A0008A01809189028823A1F0C0E0D0E00DC0CB
:1005B000D701ED91FC91D601AC0FBD1F0190F081E8
:1005C000E02DC7016C9119952196C017D10780F3D2
:1005D00003C0CB01642F02D1C801DF91CF911F91DD
:1005E0000F91FF90EF90DF90CF900895DF93CF931E
:1005F0000F92CDB7DEB7FC01698380918902882311
:10060000C9F080918802803238F081E090E09383D5
:10061000828320E030E014C080918702E82FF0E070
:10062000E959FD4F998190838F5F80938702809372
:10063000880204C0CE01019661E0D0D021E030E014
:10064000C9010F90CF91DF9108950F93062F8091EC
:10065000660267E672E04091880221E06AD010925B
:10066000870210928802109289020F91089561E02A
:10067000ECCF413208F040E2862F64E472E010D003
:100680001092640280936502089521E0F2CF1092E7
:1006900064021092650210928702109288024EC284
:1006A000382F413210F040E042C0809196028823FA
:1006B000E1F791E090939602209398028FEF809358
:1006C00003031092BE0241504093BF024F5F9093CC
:1006D000970280919702330F832B8093970280912A
:1006E0009902813041F4109299028091970280938F
:1006F000BB0085EC01C085EE8093BC008091960222
:100700008130E1F38091BE02841710F44091BE0263
:1007100020E030E00AC0FB01E20FF31FD901A2562E
:10072000BD4F8C9180832F5F3F4F2417A0F3842F00
:1007300008950F931F93582F122F413210F081E02C
:100740004AC0809196028823E1F782E08093960266
:10075000009398028FEF809303031092BE024093A0
:10076000BF02AEE9B2E0FB0102C081918D938E2FF2
:10077000861B8417D0F31092970280919702550F31
:10078000852B8093970280919902813041F41092D9
:100790009902809197028093BB0085EC01C085EEA1
:1007A0008093BC00112321F0809196028230E1F306
:1007B000809103038F3F11F480E00DC0809103030B
:1007C000803211F482E007C080910303803311F07E
:1007D00084E001C083E01F910F910895482F61329A
:1007E00010F081E0089580919602843011F082E04B
:1007F00008956093E102A0ECB2E0842F9C01F9011E
:1008000002C081918D938E2F841B8617D0F380E0D8
:1008100008951F920F920FB60F920BB60F921124EC
:100820002F933F934F935F936F937F938F939F93F8
:10083000AF93BF93EF93FF938091B90090E0887FCF
:1008400090708036910509F4F2C081369105CCF59F
:100850008832910509F47BC089329105B4F4803166
:10086000910509F46FC0813191053CF4009709F4BA
:1008700047C1089709F04FC165C08831910509F457
:1008800066C0809709F047C182C08034910509F4A1
:10089000A4C08134910544F48033910509F482C0E9
:1008A000C89709F038C189C08035910509F489C01D
:1008B0008835910509F496C08834910509F02BC15B
:1008C000AEC08839910509F413C189399105ECF45A
:1008D0008837910509F4ABC0893791054CF4883607
:1008E000910509F4A4C08037910509F014C19FC097
:1008F0008838910509F4FCC08039910509F49DC040
:100900008038910509F007C198C0803B910509F432
:10091000C6C0813B91054CF4803A910509F49FC013
:10092000883A910509F0F7C0BAC0803C910509F4F6
:10093000E3C0883C910509F4DFC0883B910509F0CC
:10094000EAC0C2C0809197028093BB00CFC0909153
:10095000BE028091BF02981768F49091BE02E92F01
:10096000F0E0E256FD4F80818093BB009F5F909343
:10097000BE02BCC080919802882309F44BC085ED6B
:100980008093BC008091BC0084FDFCCFC2C080E29B
:100990008093030385ED8093BC008091BC0084FDAF
:1009A000FCCFB7C080E38093030385ED8093BC0048
:1009B0008091BC0084FDFCCFACC088E3809303032E
:1009C0009BC08091BE029091BB00E82FF0E0E25600
:1009D000FD4F90838F5F8093BE029091BE02809105
:1009E000BF0282C08091BE029091BB00E82FF0E070
:1009F000E256FD4F90838F5F8093BE0280919802F4
:100A0000882341F085ED8093BC008091BC0084FD7B
:100A1000FCCF7FC081E08093990284EA6EC085EDAF
:100A20008093BC008091BC0084FDFCCF72C083E049
:100A3000809396021092020359C080910203803283
:100A400008F056C0809102039091BB00E82FF0E0BF
:100A5000EE51FD4F90838F5F8093020347C08091DA
:100A60000203803230F4E0910203F0E0EE51FD4FDA
:100A7000108285ED8093BC008091BC0084FDFCCF8A
:100A80001092960260910203E0919C02F0919D0207
:100A900082EE92E070E01995109202032DC084E07E
:100AA000809396021092E0021092E102E0919A0285
:100AB000F0919B0219958091E102882329F481E04D
:100AC0008093E1021092C0029091E002E92FF0E0E1
:100AD000E054FD4F80818093BB009F5F9093E002C4
:100AE0009091E0028091E102981710F485EC01C02A
:100AF00085E88093BC000FC085EC8093BC0009C0E2
:100B00001092030385ED8093BC008091BC0084FDAE
:100B1000FCCF10929602FF91EF91BF91AF919F9100
:100B20008F917F916F915F914F913F912F910F9096
:100B30000BBE0F900FBE0F901F901895109296024B
:100B400081E0809398021092990284E161E08CD256
:100B500085E161E089D2E9EBF0E080818E7F8083DE
:100B600080818D7F808388E48093B80085E48093C2
:100B7000BC0008950F931F938C018AE892E087DDF3
:100B80008CEE9FEFF801918380838FE090E0938358
:100B9000828389EE9FEF958384831F910F9108953F
:100BA000CF92DF92EF92FF921F93CF93DF93162F96
:100BB0007A0169018AE892E063E570E096DC8AE8F0
:100BC00092E0612F13DD8AE892E051DD8AE892E03D
:100BD00063E570E0A70159DDC0E0D0E08AE892E06B
:100BE0008EDC892B61F0CE15DF054CF48AE892E0AB
:100BF0008FDCF601EC0FFD1F80832196EFCFCE0135
:100C0000DF91CF911F91FF90EF90DF90CF900895EB
:100C1000AF92BF92CF92DF92EF92FF920F931F930A
:100C2000DF93CF9300D000D0CDB7DEB78C017B012E
:100C30006A01590162E346E050E09E012F5F3F4F99
:100C4000AFDF698170E0F80120813181621B730B95
:100C50003A8120E0620F731F882777FD8095982FD7
:100C60000E94781020E030E040E85BE30E945811D9
:100C7000F70160837183828393836B8170E0F80155
:100C800022813381621B730B3C8120E0620F731F52
:100C9000882777FD8095982F0E94781020E030E01B
:100CA00040E85BE30E945811F60160837183828300
:100CB00093836D8170E0F80124813581621B730B91
:100CC0003E8120E0620F731F882777FD8095982F63
:100CD0000E94781020E030E040E85BE30E94581169
:100CE000F501608371838283938326960FB6F8940F
:100CF000DEBF0FBECDBFCF91DF911F910F91FF904F
:100D0000EF90DF90CF90BF90AF900895BF92CF92B9
:100D1000DF92EF92FF920F931F93B62E6A01790133
:100D20000AE812E0C80163E570E0DFDBC8016B2D63
:100D30005DDCC801B701A60129DCF82EE92EC80147
:100D400096DC8F2D9E2D1F910F91FF90EF90DF90DD
:100D5000CF90BF900895DF93CF930F92CDB7DEB7BA
:100D600028E029836DE241E050E09E012F5F3F4F74
:100D7000CDDF0F90CF91DF9108951F920F920FB6A4
:100D80000F9211242F933F938F939F93AF93BF9311
:100D90008091080390910903A0910A03B0910B037D
:100DA00030910C030196A11DB11D232F2D5F2D370E
:100DB00020F02D570196A11DB11D20930C038093A7
:100DC000080390930903A0930A03B0930B03809147
:100DD000040390910503A0910603B09107030196C7
:100DE000A11DB11D8093040390930503A0930603F6
:100DF000B0930703BF91AF919F918F913F912F9136
:100E00000F900FBE0F901F9018959B01AC017FB7FC
:100E1000F8948091040390910503A0910603B0918A
:100E2000070366B5A89B05C06F3F19F00196A11D89
:100E3000B11D7FBFBA2FA92F982F8827860F911D2C
:100E4000A11DB11D62E0880F991FAA1FBB1F6A95E3
:100E5000D1F7BC012DC0FFB7F894809104039091A5
:100E60000503A0910603B0910703E6B5A89B05C052
:100E7000EF3F19F00196A11DB11DFFBFBA2FA92F99
:100E8000982F88278E0F911DA11DB11DE2E0880FBC
:100E9000991FAA1FBB1FEA95D1F7861B970B885E87
:100EA0009340C8F2215030404040504068517C4F40
:100EB000211531054105510571F60895789484B5E1
:100EC000826084BD84B5816084BD85B5826085BD46
:100ED00085B5816085BDEEE6F0E08081816080832C
:100EE000E1E8F0E01082808182608083808181600F
:100EF0008083E0E8F0E0808181608083E1EBF0E0D6
:100F0000808184608083E0EBF0E080818160808379
:100F1000E1E9F0E08081826080838081816080836C
:100F2000E0E9F0E0808181608083E1EAF0E08081A7
:100F300082608083808181608083E0EAF0E080814C
:100F400081608083E1E2F1E0808182608083808142
:100F500081608083E0E2F1E0808181608083EAE764
:100F6000F0E08081846080838081826080838081E2
:100F7000816080838081806880831092C1000895A1
:100F8000893009F449C08A30A0F4843051F18530A9
:100F900040F4823079F1833000F5813009F063C08C
:100FA00026C0873079F1883098F5863009F05BC02B
:100FB00025C08D3009F442C08E3028F48B30B1F159
:100FC0008C30C0F52DC0803109F442C0813109F464
:100FD00045C08F3009F047C037C0809180008F77BF
:100FE00003C0809180008F7D80938000089584B538
:100FF0008F7702C084B58F7D84BD08958091B00045
:101000008F7703C08091B0008F7D8093B0000895EA
:10101000809190008F7707C0809190008F7D03C0F2
:1010200080919000877F8093900008958091A00028
:101030008F7707C08091A0008F7D03C08091A000B2
:10104000877F8093A0000895809120018F7703C04F
:10105000809120018F7D809320010895809120014F
:10106000877F809320010895FF920F931F93F62EA0
:10107000482F50E0CA0185519E4FFC012491CA01BE
:101080008B559E4FFC011491415A5E4FFA01049119
:101090000023C1F0222311F0822F72DFE02FF0E055
:1010A000EE0FFF1FE55DFE4FA591B4919FB7F89439
:1010B000FF2021F48C911095812302C08C91812B0B
:1010C0008C939FBF1F910F91FF90089508951F92D9
:1010D0000F920FB60F920BB60F9211242F933F93DE
:1010E0004F938F939F93EF93FF938091C00082FD66
:1010F0001DC04091C60020914D0330914E032F5FDB
:101100003F4F2F73307080914F03909150032817F9
:10111000390771F0E0914D03F0914E03E35FFC4F0E
:10112000408330934E0320934D0302C08091C6004C
:10113000FF91EF919F918F914F913F912F910F9040
:101140000BBE0F900FBE0F901F90189508951F9221
:101150000F920FB60F920BB60F9211242F933F935D
:101160004F938F939F93EF93FF938091C80082FDDD
:101170001DC04091CE002091D5033091D6032F5F42
:101180003F4F2F7330708091D7039091D803281769
:10119000390771F0E091D503F091D603EB56FC4F7F
:1011A00040833093D6032093D50302C08091CE00B4
:1011B000FF91EF919F918F914F913F912F910F90C0
:1011C0000BBE0F900FBE0F901F90189508951F92A1
:1011D0000F920FB60F920BB60F9211242F933F93DD
:1011E0004F938F939F93EF93FF938091D00082FD55
:1011F0001DC04091D60020915D0430915E042F5FA8
:101200003F4F2F73307080915F04909160042817D6
:10121000390771F0E0915D04F0915E04E35EFB4FED
:10122000408330935E0420935D0402C08091D60019
:10123000FF91EF919F918F914F913F912F910F903F
:101240000BBE0F900FBE0F901F90189508951F9220
:101250000F920FB60F920BB60F9211242F933F935C
:101260004F938F939F93EF93FF938091300182FD73
:101270001DC0409136012091E5043091E6042F5FB6
:101280003F4F2F7330708091E7049091E804281746
:10129000390771F0E091E504F091E604EB55FB4F5E
:1012A00040833093E6042093E50402C08091360128
:1012B000FF91EF919F918F914F913F912F910F90BF
:1012C0000BBE0F900FBE0F901F901895E09139053F
:1012D000F0913A05E05CFF4F81919191208131813D
:1012E000821B930B8F739070892B09F0EFDEE091D6
:1012F0005B05F0915C05E05CFF4F8191919120814D
:101300003181821B930B8F739070892B09F01EDF44
:10131000E0917D05F0917E05E05CFF4F8191919118
:1013200020813181821B930B8F739070892B09F080
:101330004DDFE0919F05F091A005E05CFF4F8191AA
:10134000919120813181821B930B8F739070892B37
:1013500009F07CCF08951F920F920FB60F920BB633
:101360000F9211242F933F938F939F93EF93FF93AB
:101370002091910330919203809193039091940373
:101380002817390731F48091C1008F7D8093C10007
:1013900014C0E0919303F0919403EF5AFC4F208125
:1013A000809193039091940301968F739070909322
:1013B0009403809393032093C600FF91EF919F9134
:1013C0008F913F912F910F900BBE0F900FBE0F90FA
:1013D0001F9018951F920F920FB60F920BB60F9297
:1013E00011242F933F938F939F93EF93FF9320911B
:1013F000190430911A0480911B0490911C04281741
:10140000390731F48091C9008F7D8093C90014C0E1
:10141000E0911B04F0911C04E752FC4F2081809165
:101420001B0490911C0401968F73907090931C0480
:1014300080931B042093CE00FF91EF919F918F9199
:101440003F912F910F900BBE0F900FBE0F901F90EA
:1014500018951F920F920FB60F920BB60F92112490
:101460002F933F938F939F93EF93FF932091A1042A
:101470003091A2048091A3049091A4042817390705
:1014800031F48091D1008F7D8093D10014C0E09120
:10149000A304F091A404EF59FB4F20818091A30491
:1014A0009091A40401968F7390709093A4048093FC
:1014B000A3042093D600FF91EF919F918F913F91CC
:1014C0002F910F900BBE0F900FBE0F901F9018958D
:1014D0001F920F920FB60F920BB60F9211242F93FB
:1014E0003F938F939F93EF93FF9320912905309122
:1014F0002A0580912B0590912C052817390731F486
:10150000809131018F7D8093310114C0E0912B05D2
:10151000F0912C05E751FB4F208180912B05909194
:101520002C0501968F73907090932C0580932B055A
:1015300020933601FF91EF919F918F913F912F91D1
:101540000F900BBE0F900FBE0F901F901895AF928B
:10155000BF92DF92EF92FF920F931F93CF93DF938F
:10156000EC017A018B01DD24403081EE580780E0E8
:10157000680780E0780711F0DD24D39491E0A92E6C
:10158000B12CEC89FD89DD2069F0C50108A002C0FD
:10159000880F991F0A94E2F7808360E079E08DE379
:1015A00090E005C0108260E874E88EE190E0A80148
:1015B00097016CD721503040404050405695479598
:1015C0003795279580E12030380720F0DD2011F095
:1015D000DD24D7CFE889F9893083EA89FB89208324
:1015E00019A2EE89FF89408121E030E0C9010C8C0D
:1015F00002C0880F991F0A94E2F7482B4083EE89B6
:10160000FF894081C9010D8C02C0880F991F0A947F
:10161000E2F7482B4083EE89FF894081C9010E8C97
:1016200002C0880F991F0A94E2F7482B4083EE8985
:10163000FF8980810F8C02C0220F331F0A94E2F7CA
:10164000209528232083DF91CF911F910F91FF9048
:10165000EF90DF90BF90AF900895DC011C96ED9164
:10166000FC911D97E05CFF4F219131918081918128
:10167000281B390B2F733070C9010895DC011C96AB
:10168000ED91FC911D97E05CFF4F20813181E0548A
:10169000F040DF01AE5BBF4F8D919C9111972817F1
:1016A000390719F42FEF3FEF07C08D919C91E80F98
:1016B000F91F8081282F30E0C9010895DC011C96B4
:1016C000ED91FC911D97E05CFF4F20813181E0544A
:1016D000F040DF01AE5BBF4F8D919C9111972817B1
:1016E000390719F42FEF3FEF10C08D919C9111979E
:1016F000E80FF91F20818D919C91119701968F73AE
:10170000907011969C938E9330E0C9010895DC018E
:1017100091968C919197882339F05496ED91FC9194
:101720005597808186FFF9CF91961C920895CF93AB
:10173000DF93EC01EE85FF85E05CFF4F2081318176
:10174000E054F0402F5F3F4F2F733070DF01AE5BEE
:10175000BF4F8D919C91119728173907D1F3E05C09
:10176000FF4F80819181E054F040E80FF91F6083C2
:10177000EE85FF85E05CFF4F31832083EE89FF8992
:10178000208181E090E00F8C02C0880F991F0A949D
:10179000E2F7282B208381E089A3EC89FD898081F1
:1017A0008064808381E090E0DF91CF9108951F9362
:1017B0001092300510922F0528EE33E040E050E003
:1017C000209331053093320540933305509334050F
:1017D00066E272E070932E0560932D058DE093E034
:1017E00090933A058093390581E593E090933C0509
:1017F00080933B0585EC90E090933E0580933D05FA
:1018000084EC90E09093400580933F0580EC90E05D
:10181000909342058093410581EC90E090934405BC
:101820008093430582EC90E09093460580934505B4
:1018300086EC90E0909348058093470514E0109360
:101840004905B3E0B0934A05A7E0A0934B05F5E046
:10185000F0934C05E1E0E0934D0510925205109293
:1018600051052093530530935405409355055093EB
:1018700056057093500560934F0585E993E090936A
:101880005C0580935B0589ED93E090935E05809302
:101890005D058DEC90E09093600580935F058CEC86
:1018A00090E0909362058093610588EC90E09093BE
:1018B00064058093630589EC90E0909366058093BE
:1018C00065058AEC90E090936805809367058EEC3F
:1018D00090E090936A058093690510936B05B0932F
:1018E0006C05A0936D05F0936E05E0936F05109263
:1018F0007405109273052093750530937605409317
:1019000077055093780570937205609371058DE1AA
:1019100094E090937E0580937D0581E694E090931A
:10192000800580937F0585ED90E0909382058093FC
:10193000810584ED90E0909384058093830580ED8C
:1019400090E0909386058093850581ED90E09093DB
:1019500088058093870582ED90E090938A058093B7
:10196000890586ED90E090938C0580938B0510930C
:101970008D05B0938E05A0938F05F0939005E093AD
:101980009105109296051092950520939705309336
:1019900098054093990550939A0570939405609328
:1019A000930585EA94E09093A00580939F0589EEC6
:1019B00094E09093A2058093A10585E391E0909334
:1019C000A4058093A30584E391E09093A6058093FA
:1019D000A50580E391E09093A8058093A70581E396
:1019E00091E09093AA058093A90582E391E09093FA
:1019F000AC058093AB0586E391E09093AE058093B0
:101A0000AD051093AF05B093B005A093B105F09369
:101A1000B205E093B3051F910895CF93DF934EDA9B
:101A20000E946502C6E6D9E00E944D012097E1F3CD
:101A30004DDCFACFCF92DF92EF92FF920F931F937C
:101A4000CF93DF937C016B018A01C0E0D0E00FC02F
:101A5000D6016D916D01D701ED91FC910190F0815E
:101A6000E02DC7011995C80FD91F0150104001156D
:101A7000110571F7CE01DF91CF911F910F91FF906A
:101A8000EF90DF90CF900895EF92FF920F931F9306
:101A90008C01DC01ED91FC910190F081E02D6DE075
:101AA00019957C01D801ED91FC910190F081E02D18
:101AB000C8016AE019959C012E0D3F1DC9011F91B7
:101AC0000F91FF90EF900895CF93DF93EC01611594
:101AD000710519F420E030E00FC0DB010D9000200B
:101AE000E9F71197A61BB70BE881F9810280F38112
:101AF000E02DAD0119959C01C901DF91CF910895A9
:101B00004F925F927F928F929F92AF92BF92CF92AD
:101B1000DF92EF92FF920F931F93DF93CF93CDB796
:101B2000DEB7A1970FB6F894DEBF0FBECDBF2C0174
:101B3000742ECB01223008F42AE019A231E2C32E20
:101B4000D12CCC0EDD1E822E9924AA24BB24672D15
:101B5000752FA50194019AD479018A01C801B701B2
:101B6000A501940174D4472D461B0894C108D108DF
:101B70004A3014F4405D01C0495CF6014083E11431
:101B8000F1040105110521F07E2C5F2DC801DFCF86
:101B9000C201B60199DFA1960FB6F894DEBF0FBE61
:101BA000CDBFCF91DF911F910F91FF90EF90DF900C
:101BB000CF90BF90AF909F908F907F905F904F900D
:101BC0000895DC012115310541F4ED91FC9101905E
:101BD000F081E02D642F1995089592CFCF92DF9276
:101BE000EF92FF920F931F93CF93DF93EC016A0163
:101BF0007B012115310541F4E881F9810190F081E3
:101C0000E02D642F19951DC02A303105C9F477FFE6
:101C100016C0E881F9810190F081E02D6DE21995FF
:101C20008C0144275527BA014C195D096E097F09BB
:101C3000CE012AE065DF9801280F391F03C02AE092
:101C40005FDF9C01C901DF91CF911F910F91FF9040
:101C5000EF90DF90CF90089537CF08957F928F92C5
:101C60009F92AF92BF92CF92DF92EF92FF920F932B
:101C70001F93CF93DF934C017A018B01722ECB011E
:101C8000BA01A8019701C8D3882321F0C40164E0F8
:101C900072E01FC0C0E0D0E057016801E894D7F8B7
:101CA000C601B5012FEF3FEF4FE75FE7B5D38823BC
:101CB00049F4C601B5012FEF3FEF4FE75FE779D158
:101CC000181614F0C1E0D0E0219731F0C40168E0AB
:101CD00072E0FADEEC0184C0C801B7012FEF3FEFDC
:101CE0004FE75FE4DAD218164CF0C801B7012FEFC6
:101CF0003FEF4FE75FEC5DD1882324F4C4016CE033
:101D000072E0E7CFC801B70120E030E040E050E0EA
:101D100050D187FD03C0C0E0D0E00EC0D401ED91EA
:101D2000FC910190F081E02DC4016DE21995EC0168
:101D300017FB109517F9109520E030E040E05FE3C5
:101D4000DD240AC0CA01B90120E030E040E251E4DC
:101D500034D19B01AC01D394D714A0F3C801B701CF
:101D600062D05B016C0196D17B018C01C401B8018A
:101D7000A7012AE030E025DFC80FD91F772031F016
:101D8000C40160E172E0A0DEC80FD91FC801B7012D
:101D9000ADD19B01AC01C601B50144D01FC020E00C
:101DA00030E040E251E484D27B018C016ED15B01D2
:101DB0006C01CC24B7FCC094DC2CC401B601A50195
:101DC0002AE030E00BDFC80FD91FC601B50190D162
:101DD0009B01AC01C801B70125D07A947720F9F6B0
:101DE000CE01DF91CF911F910F91FF90EF90DF9087
:101DF000CF90BF90AF909F908F907F9008952ECFFF
:101E00000895EF92FF920F931F937C0127DF8C01BF
:101E1000C7013ADE080F191FC8011F910F91FF90EB
:101E2000EF9008955058BB27AA270ED0FCC1EDD1E2
:101E300030F0F2D120F031F49F3F11F41EF4BDC117
:101E40000EF4E095E7FBB3C1E92FFED180F3BA179A
:101E5000620773078407950718F071F49EF516C2A0
:101E60000EF4E0950B2EBA2FA02D0B01B9019001B5
:101E70000C01CA01A0011124FF27591B99F0593FF9
:101E800050F4503E68F11A16F040A22F232F342F41
:101E90004427585FF3CF469537952795A795F0408F
:101EA0005395C9F77EF41F16BA0B620B730B840BA4
:101EB000BAF09150A1F0FF0FBB1F661F771F881F5C
:101EC000C2F70EC0BA0F621F731F841F48F48795B4
:101ED00077956795B795F7959E3F08F0B3CF9395A3
:101EE000880F08F09927EE0F9795879508958DD163
:101EF00058F080E891E009F49EEF8ED128F040E898
:101F000051E059F45EEF09C058C1C0C1E92FE07833
:101F10009BD168F3092E052AC1F326173707480716
:101F2000590738F00E2E07F8E02569F0E025E06447
:101F30000AC0EF6307F8009407FADB01B9019D01BD
:101F4000DC01CA01AD01EF9347D06DD10AD05F919A
:101F5000552331F02BED3FE049E450FD49EC63CFD0
:101F60000895DF93DD27B92FBF7740E85FE31616AA
:101F7000170648075B0710F4D92F93D19F938F93CF
:101F80007F936F9346D2E4EEF0E01AD14CD12F91BB
:101F90003F914F915F9198D1DD2349F09058A2EA8B
:101FA0002AED3FE049EC5FE3D0785D274DDFDF911C
:101FB0003AC1D9D008F481E008950CD034C12CD1B5
:101FC00040F023D130F021F45F3F19F0F0C05111FF
:101FD0005EC1F3C039D198F39923C9F35523B1F306
:101FE000951B550BBB27AA2762177307840738F088
:101FF0009F5F5F4F220F331F441FAA1FA9F333D0E7
:102000000E2E3AF0E0E830D091505040E695001C9A
:10201000CAF729D0FE2F27D0660F771F881FBB1F56
:10202000261737074807AB07B0E809F0BB0B802D30
:10203000BF01FF2793585F4F2AF09E3F510568F07C
:10204000B6C025C15F3FECF3983EDCF386957795EB
:102050006795B795F7959F5FC9F7880F911D96957E
:10206000879597F90895E1E0660F771F881FBB1FDA
:10207000621773078407BA0720F0621B730B840B87
:10208000BA0BEE1F88F7E095089504D06894B1115B
:10209000FEC00895E1D088F09F5790F0B92F99279E
:1020A000B751A0F0D1F0660F771F881F991F1AF063
:1020B000BA95C9F712C0B13081F0E8D0B1E0089507
:1020C000E5C0672F782F8827B85F39F0B93FCCF388
:1020D000869577956795B395D9F73EF49095809559
:1020E000709561957F4F8F4F9F4F0895E89409C079
:1020F00097FB3EF490958095709561957F4F8F4F3B
:102100009F4F9923A9F0F92F96E9BB279395F69550
:10211000879577956795B795F111F8CFFAF4BB0FCE
:1021200011F460FF1BC06F5F7F4F8F4F9F4F16C032
:10213000882311F096E911C0772321F09EE8872FBC
:10214000762F05C0662371F096E8862F70E060E078
:102150002AF09A95660F771F881FDAF7880F9695F1
:10216000879597F90895990F0008550FAA0BE0E895
:10217000FEEF16161706E807F907C0F01216130649
:10218000E407F50798F0621B730B840B950B39F489
:102190000A2661F0232B242B252B21F408950A26EF
:1021A00009F4A140A6958FEF811D811D089597F92F
:1021B0009F6780E870E060E008959FEF80EC0895ED
:1021C000DF93CF931F930F93FF92EF92DF927B01E8
:1021D0008C01689405C0DA2EEF0176D0FE01E894F8
:1021E000A5912591359145915591AEF3EF012CDEE6
:1021F000FE019701A801DA9479F7DF90EF90FF9044
:102200000F911F91CF91DF91089500240A94161623
:10221000170618060906089500240A9412161306D4
:10222000140605060895092E0394000C11F4882362
:1022300052F0BB0F40F4BF2B11F460FF04C06F5F7E
:102240007F4F8F4F9F4F089557FD9058440F551F54
:1022500059F05F3F71F04795880F97FB991F61F028
:102260009F3F79F087950895121613061406551F9F
:10227000F2CF4695F1DF08C0161617061806991F0B
:10228000F1CF86957105610508940895E894BB2700
:1022900066277727CB0197F9089565DF08F48FEF5C
:1022A00008959B01AC0160E070E080E89FE385CE7B
:1022B0000BD0B9CFAADF28F0AFDF18F0952309F0D3
:1022C00076CF7BCF1124E3CFBFDFA0F3959FD1F36F
:1022D000950F50E0551F629FF001729FBB27F00DD4
:1022E000B11D639FAA27F00DB11DAA1F649F662729
:1022F000B00DA11D661F829F2227B00DA11D621F78
:10230000739FB00DA11D621F839FA00D611D221F31
:10231000749F3327A00D611D231F849F600D211D15
:10232000822F762F6A2F11249F5750408AF0E1F0B8
:1023300088234AF0EE0FFF1FBB1F661F771F881F01
:1023400091505040A9F79E3F510570F030CF9FCF7C
:102350005F3FECF3983EDCF3869577956795B795EC
:10236000F795E7959F5FC1F7FE2B880F911D969516
:10237000879597F9089511F40EF41FCF51C06CDFC3
:10238000D0F39923D9F3CEF39F57550B87FF58D03D
:1023900056959795B0E020F4660F771F881FBB1FF6
:1023A0001F930F9300249001A0018001F001A0E889
:1023B0000E0F1F1F0A1E511D601B710B8009B50BEC
:1023C00048F4600F711F801DB51F0E1B1F0B0A0AFA
:1023D000510907C02E0F3F1F4A1F0E0F1F1F0A1E55
:1023E000511D660F771F881FBB1FA695F795E795B0
:1023F000F8F60617170708065B07211D311D411D5A
:102400000F911F91B901842F9158880F9695879548
:1024100008959B01AC014CCFA6DE880B990B089563
:102420009F3F49F0915028F4869577956795B79529
:102430009F5F80389F4F880F9695879597F90895ED
:1024400091505040660F771F881FD2F70895629F02
:10245000D001739FF001829FE00DF11D649FE00D9C
:10246000F11D929FF00D839FF00D749FF00D659FFD
:10247000F00D9927729FB00DE11DF91F639FB00DFC
:10248000E11DF91FBD01CF0111240895A1E21A2E0B
:10249000AA1BBB1BFD010DC0AA1FBB1FEE1FFF1F08
:1024A000A217B307E407F50720F0A21BB30BE40B58
:1024B000F50B661F771F881F991F1A9469F760959F
:1024C0007095809590959B01AC01BD01CF01089559
:1024D000EE0FFF1F0590F491E02D1994F894FFCFB3
:1024E000202020006E616E00696E66006F766600C7
:1024F0002E0000000000F602C6027F0288029D0244
:10250000AE0200000000970B1A0D2D0B5E0B3E0B68
:02251000870B37
:00000001FF
