:100000000C9463000C948B000C948B000C948B006C
:100010000C948B000C948B000C948B000C948B0034
:100020000C948B000C948B000C948B000C94A3020A
:100030000C948B000C948B000C948B000C948B0014
:100040000C94BE080C948B000C9448040C949604F9
:100050000C948B000C948B000C948B000C948B00F4
:100060000C948B000C948B000000000024002700EF
:100070002A0000000000250028002B0000000000DE
:1000800023002600290004040404040404040202DA
:100090000202020203030303030301020408102007
:1000A0004080010204081020010204081020000012
:1000B0000007000201000003040600000000000029
:1000C00000008D00020611241FBECFEFD8E0DEBF76
:1000D000CDBF11E0A0E0B1E0ECECF3E102C005908F
:1000E0000D92AE33B107D9F712E0AEE3B1E001C033
:1000F0001D92A132B107E1F710E0C6ECD0E004C0D8
:100100002297FE010E94E009C23CD107C9F70E9474
:1001100058060C94E4090C9400008FE391E00E94CF
:100120005F010895DF92EF92FF920F931F93D82EF5
:1001300061E00E9461038D2D61E00E94A0038D2D7E
:1001400060E00E9461038D2D60E00E94A003EE2418
:10015000FF24870105C00894E11CF11C011D111D3D
:100160008D2D0E94F403892BB1F7B701C8011F91AF
:100170000F91FF90EF90DF90089588E090E00E944B
:1001800092006330710581059105C1F580912C01C4
:100190008130A1F58091440190914501A0914601E3
:1001A000B09147010196A11DB11D80934401909328
:1001B0004501A0934601B093470110922C0186EFB0
:1001C00091E060E071E00E94A70707C080912C01D8
:1001D000882319F481E080932C016091440170918F
:1001E0004501809146019091470122E030E040E0D6
:1001F00050E00E94AF09CA01B901089588E090E07B
:100200000E9492006330710581059105F9F6E5CFF2
:1002100086EF91E064E171E00E94A4070E94BD00B6
:10022000AB01BC0186EF91E02AE030E00E9471074B
:1002300086EF91E00E947108709343016093420140
:1002400061157105A1F070932B0160932A0186EF6F
:1002500091E06AE171E00E94A40760912A01709127
:100260002B0186EF91E04AE050E00E948507609103
:100270002A0170912B018FE391E00E94B50108954E
:100280000F931F9386EF91E040E855E260E070E045
:100290000E94D10488E060E00E94610310923E0158
:1002A0000FE311E0C80162E070E00E949C02C80107
:1002B00062E370E00E94B5011F910F910895FC0167
:1002C000809148018C3090F480838F5F8093480147
:1002D000815090E0FC01EE0FFF1FE80FF91FE75B74
:1002E000FE4F88EB9BE09283818308958FEF80839C
:1002F0000895FC0120812C30B8F58181992787FD74
:10030000909548E850E0481B590B440F551F440F87
:10031000551F6417750784F08281992787FD909592
:1003200048E552E0481B590B440F551F440F551F19
:10033000641775070CF4AB0142505040CA01AA275C
:1003400097FDA095BA2F880F991FAA1FBB1F4FB703
:10035000F89430E0F901EE0FFF1FE20FF31FE75BA7
:10036000FE4F928381834FBF0895AF92BF92CF9289
:10037000DF92EF92FF920F931F93CF93DF93EC01E5
:100380009B0182E0603278070CF048C077FF03C021
:1003900020E030E005C0653B710514F024EB30E04F
:1003A00000D000D0B901882777FD8095982F29814A
:1003B000332727FD3095E8E8AE2EB12CA21AB30AF8
:1003C000AA0CBB1CAA0CBB1CCC24B7FCC094DC2C14
:1003D000EA81FF27E7FDF09528E532E02E1B3F0B71
:1003E000220F331F220F331F442737FD4095542F10
:1003F000EDB7FEB7218332834383548320E030E09E
:1004000040E050E004EBE02EF12C012D112D0E9474
:1004100075089B010F900F900F900F90CE01B901BE
:100420000E947901DF91CF911F910F91FF90EF9082
:10043000DF90CF90BF90AF900895CF92DF92EF9270
:10044000FF921F93CF93DF93EC01162F7A0169017E
:1004500088818C3008F064C0862F61E00E946103BF
:10046000888190E0FC01EE0FFF1FE80FF91FE75BAA
:10047000FE4F1F738081807C812B808380E292E01D
:100480008E199F0964E070E00E947A09698380E612
:1004900099E08C199D0964E070E00E947A096A83F2
:1004A000A8818A2F6CE00E946E09682F70E0AB0172
:1004B000440F551F460F571F440F551F440F551F1C
:1004C00020E030E0C901840F951FFC01EE0FFF1FF3
:1004D000E80FF91FE75BFE4F808186FD15C02F5F97
:1004E0003F4F2C30310571F724C01092800082E01C
:1004F000809381001092850010928400B19A8091BF
:100500006F00826080936F008A2F90E0FC01EE0FF5
:10051000FF1FE80FF91FE75BFE4F80818064808337
:100520008881DF91CF911F91FF90EF90DF90CF9066
:100530000895672BD1F2E8CF40E252E020E639E09F
:100540000E941D0208951F920F920FB60F92112460
:100550002F933F934F935F936F937F938F939F93CB
:10056000AF93BF93EF93FF9380916D0187FF05C019
:1005700010928500109284002BC020916D013327CA
:1005800027FD30958091480190E02817390704F540
:1005900080916D01992787FD9095FC01EE0FFF1F5B
:1005A000E80FF91FE75BFE4F808186FF11C0809145
:1005B0006D01992787FD9095FC01EE0FFF1FE80F55
:1005C000F91FE75BFE4F80818F7360E00E94A003FC
:1005D00080916D018F5F80936D0120916D013327B4
:1005E00027FD30958091480190E0281739070CF0DD
:1005F0004EC080916D018C300CF049C02091840078
:100600003091850080916D01992787FD9095FC01BF
:10061000EE0FFF1FE80FF91FE75BFE4F818192810C
:10062000280F391F309389002093880080916D0135
:10063000992787FD9095FC01EE0FFF1FE80FF91F2A
:10064000E75BFE4F808186FF2BC080916D0199276B
:1006500087FD9095FC01EE0FFF1FE80FF91FE75B88
:10066000FE4F80818F7361E00E94A00319C080E477
:100670009CE905C080918400909185000496909338
:100680008900809388008FEF80936D0109C080916D
:10069000840090918500049680549C4940F3EACFF1
:1006A000FF91EF91BF91AF919F918F917F916F914A
:1006B0005F914F913F912F910F900FBE0F901F9020
:1006C0001895CF93DF93482F50E0CA0186569F4F6D
:1006D000FC0134914A575F4FFA018491882369F1F4
:1006E00090E0880F991FFC01E859FF4FA591B49144
:1006F000FC01EE58FF4FC591D491662351F42FB7FA
:10070000F8948C91932F909589238C9388818923D9
:100710000BC0623061F42FB7F8948C91932F9095B1
:1007200089238C938881832B88832FBF06C09FB732
:10073000F8948C91832B8C939FBFDF91CF91089578
:10074000482F50E0CA0182559F4FFC012491CA01F5
:1007500086569F4FFC0194914A575F4FFA0134919E
:10076000332309F440C0222351F1233071F02430A7
:1007700028F42130A1F0223011F514C02630B1F058
:100780002730C1F02430D9F404C0809180008F77E5
:1007900003C0809180008F7D8093800010C084B55D
:1007A0008F7702C084B58F7D84BD09C08091B00071
:1007B0008F7703C08091B0008F7D8093B000E32FCE
:1007C000F0E0EE0FFF1FEE58FF4FA591B4912FB749
:1007D000F894662321F48C919095892302C08C9122
:1007E000892B8C932FBF0895682F70E0CB01825521
:1007F0009F4FFC012491CB0186569F4FFC014491F1
:100800006A577F4FFB019491992319F420E030E05F
:100810003CC0222351F1233071F0243028F42130E0
:10082000A1F0223011F514C02630B1F02730C1F00C
:100830002430D9F404C0809180008F7703C0809168
:1008400080008F7D8093800010C084B58F7702C0B8
:1008500084B58F7D84BD09C08091B0008F7703C0BF
:100860008091B0008F7D8093B000892F90E0880F39
:10087000991F84589F4FFC01A591B4918C9120E061
:1008800030E0842311F021E030E0C901089508959B
:100890001F920F920FB60F9211242F933F934F93F5
:1008A0008F939F93EF93FF938091C00082FD1DC0B3
:1008B0004091C6002091AE013091AF012F5F3F4FB4
:1008C0002F7330708091B0019091B10128173907D2
:1008D00071F0E091AE01F091AF01E259FE4F40831B
:1008E0003093AF012093AE0102C08091C600FF910A
:1008F000EF919F918F914F913F912F910F900FBE4C
:100900000F901F901895E0910202F0910302E05CB5
:10091000FF4F8191919120813181821B930B8F73C5
:100920009070892B11F00E94470408951F920F9236
:100930000FB60F9211242F933F938F939F93EF93B2
:10094000FF932091F2013091F3018091F401909195
:10095000F5012817390731F48091C1008F7D80930C
:10096000C10014C0E091F401F091F501EE54FE4F86
:1009700020818091F4019091F50101968F73907020
:100980009093F5018093F4012093C600FF91EF91BD
:100990009F918F913F912F910F900FBE0F901F90BD
:1009A0001895AF92BF92DF92EF92FF920F931F9331
:1009B000CF93DF93EC017A018B01DD24403081EE8F
:1009C000580780E0680780E0780711F0DD24D394B1
:1009D00091E0A92EB12CEC89FD89DD2069F0C501DB
:1009E00008A002C0880F991F0A94E2F7808360E094
:1009F00079E08DE390E005C0108260E874E88EE154
:100A000090E0A80197010E948D092150304040409C
:100A10005040569547953795279580E12030380707
:100A200020F0DD2011F0DD24D6CFE889F98930836C
:100A3000EA89FB89208319A2EE89FF89408121E0A0
:100A400030E0C9010C8C02C0880F991F0A94E2F7AC
:100A5000482B4083EE89FF894081C9010D8C02C07B
:100A6000880F991F0A94E2F7482B4083EE89FF898B
:100A70004081C9010E8C02C0880F991F0A94E2F7C9
:100A8000482B4083EE89FF8980810F8C02C0220FA2
:100A9000331F0A94E2F7209528232083DF91CF911A
:100AA0001F910F91FF90EF90DF90BF90AF9008954E
:100AB000DC011C96ED91FC911D97E05CFF4F2191AC
:100AC000319180819181281B390B2F733070C901BE
:100AD0000895DC011C96ED91FC911D97E05CFF4FA1
:100AE00020813181E054F040DF01AE5BBF4F8D913A
:100AF0009C9111972817390719F42FEF3FEF07C082
:100B00008D919C91E80FF91F8081282F30E0C90159
:100B10000895DC011C96ED91FC911D97E05CFF4F60
:100B200020813181E054F040DF01AE5BBF4F8D91F9
:100B30009C9111972817390719F42FEF3FEF10C038
:100B40008D919C911197E80FF91F20818D919C91B7
:100B5000119701968F73907011969C938E9330E04D
:100B6000C9010895DC0191968C919197882339F001
:100B70005496ED91FC915597808186FFF9CF91961F
:100B80001C920895CF93DF93EC01EE85FF85E05C26
:100B9000FF4F20813181E054F0402F5F3F4F2F7392
:100BA0003070DF01AE5BBF4F8D919C91119728177C
:100BB0003907D1F3E05CFF4F80819181E054F04030
:100BC000E80FF91F6083EE85FF85E05CFF4F3183FE
:100BD0002083EE89FF89208181E090E00F8C02C0A4
:100BE000880F991F0A94E2F7282B208381E089A3BC
:100BF000EC89FD8980818064808381E090E0DF91D1
:100C0000CF9108951092F9011092F80188EE93E0C7
:100C1000A0E0B0E08093FA019093FB01A093FC0167
:100C2000B093FD0181E391E09093F7018093F60189
:100C30008EE691E0909303028093020282EB91E0B2
:100C4000909305028093040285EC90E09093070254
:100C50008093060284EC90E090930902809308024E
:100C600080EC90E090930B0280930A0281EC90E07C
:100C700090930D0280930C0282EC90E090930F020F
:100C800080930E0286EC90E0909311028093100204
:100C900084E08093120283E08093130287E08093C4
:100CA000140285E08093150281E080931602089576
:100CB000CF93DF930E9414090E944001C3E8D4E05F
:100CC0000E9408012097E1F30E948304F9CFCF929C
:100CD000DF92EF92FF920F931F93CF93DF937C01EC
:100CE0006B018A01C0E0D0E00FC0D6016D916D01AB
:100CF000D701ED91FC910190F081E02DC70109959C
:100D0000C80FD91F015010400115110571F7CE0110
:100D1000DF91CF911F910F91FF90EF90DF90CF90D7
:100D20000895EF92FF920F931F938C01DC01ED91D8
:100D3000FC910190F081E02D6DE009957C01D801D6
:100D4000ED91FC910190F081E02DC8016AE00995D8
:100D50009C012E0D3F1DC9011F910F91FF90EF9037
:100D60000895CF93DF93EC016115710519F420E02C
:100D700030E00FC0DB010D900020E9F71197A61BB2
:100D8000B70BE881F9810280F381E02DAD0109956F
:100D90009C01C901DF91CF9108954F925F927F929C
:100DA0008F929F92AF92BF92CF92DF92EF92FF927B
:100DB0000F931F93DF93CF93CDB7DEB7A1970FB6F5
:100DC000F894DEBF0FBECDBF2C01742ECB012230B4
:100DD00008F42AE019A231E2C32ED12CCC0EDD1E7C
:100DE000822E9924AA24BB24672D752FA501940176
:100DF0000E948D0979018A01C801B701A5019401FA
:100E00000E944F09472D461B0894C108D1084A305B
:100E100014F4405D01C0495CF6014083E114F10423
:100E20000105110521F07E2C5F2DC801DDCFC20127
:100E3000B6010E94B106A1960FB6F894DEBF0FBEB0
:100E4000CDBFCF91DF911F910F91FF90EF90DF9079
:100E5000CF90BF90AF909F908F907F905F904F907A
:100E60000895CF92DF92EF92FF920F931F93CF934B
:100E7000DF93EC016A017B012115310541F4E88122
:100E8000F9810190F081E02D642F09951FC02A306F
:100E90003105D1F477FF17C0E881F9810190F08125
:100EA000E02D6DE209958C0144275527BA014C19B4
:100EB0005D096E097F09CE012AE00E94CD069801E6
:100EC000280F391F04C02AE00E94CD069C01C901E9
:100ED000DF91CF911F910F91FF90EF90DF90CF9016
:100EE0000895EF92FF920F931F937C010E943107A8
:100EF0008C01C7010E9491069C01200F311FC9017E
:100F00001F910F91FF90EF900895CF92DF92EF9293
:100F1000FF920F931F936C017B019A010027F7FC4E
:100F20000095102FB801A7010E9431078C01C6015E
:100F30000E949106080F191FC8011F910F91FF9081
:100F4000EF90DF90CF9008950E94B1060895EF9240
:100F5000FF920F931F937C010E94B1068C01C70181
:100F60000E949106080F191FC8011F910F91FF9051
:100F7000EF900895CF93DF93EC010E9406096887F4
:100F800079878A879B87E881F9810084F185E02D44
:100F9000CE0109959C0197FF15C00E94060928857E
:100FA00039854A855B85621B730B840B950B2C81FD
:100FB0003D814E815F81621773078407950718F39F
:100FC0002FEF3FEFC901DF91CF910895CF93DF93CA
:100FD000EC01CE010E94BA079C0197FD0EC08D3234
:100FE000910559F0C0970A9740F0E881F981068091
:100FF000F781E02DCE010995ECCFC901DF91CF91AA
:1010000008959F92AF92BF92CF92DF92EF92FF929C
:101010000F931F93CF93DF936C01B62E0E94E607C8
:10102000EC0197FF04C0EE24FF2487014CC09924F3
:10103000EE24FF248701AB2CBB24A7FCB094CA1577
:10104000DB0529F1CD32D10519F4992493941FC001
:10105000CE01C0970A97D8F4C801B7012AE030E062
:1010600040E050E00E944F097B018C01CE01AA278D
:1010700097FDA095BA2FE80EF91E0A1F1B1F80EDE1
:101080009FEFAFEFBFEFE80EF91E0A1F1B1FD6013F
:10109000ED91FC910680F781E02DC6010995C6010E
:1010A0000E94BA07EC01C0970A9748F2CA15DB05FF
:1010B00031F2992041F010950095F094E094E11CF4
:1010C000F11C011D111DB701C801DF91CF911F91C6
:1010D0000F91FF90EF90DF90CF90BF90AF909F90D7
:1010E000089561E00E94010808952F923F924F9267
:1010F0005F926F927F928F929F92AF92BF92CF92A8
:10110000DF92EF92FF920F931F93DF93CF93CDB7B0
:10111000DEB73B014C0119012A016D897E898F8957
:10112000988D6A197B098C099D09621A730A840AD1
:10113000950AA40193010E944F09E218F3080409DB
:101140001509A80197010E94AF092A0D3B1D4C1DEE
:101150005D1DB901CA01CF91DF911F910F91FF90E1
:10116000EF90DF90CF90BF90AF909F908F907F9047
:101170006F905F904F903F902F9008951F920F9225
:101180000FB60F9211242F933F938F939F93AF939A
:10119000BF9380911C0290911D02A0911E02B091FC
:1011A0001F02309120020196A11DB11D232F2D5F3A
:1011B0002D3720F02D570196A11DB11D209320023F
:1011C00080931C0290931D02A0931E02B0931F02F5
:1011D0008091180290911902A0911A02B0911B02FD
:1011E0000196A11DB11D8093180290931902A0933E
:1011F0001A02B0931B02BF91AF919F918F913F91C3
:101200002F910F900FBE0F901F9018958FB7F894E5
:1012100020911C0230911D0240911E0250911F022C
:101220008FBFB901CA010895789484B5826084BDE6
:1012300084B5816084BD85B5826085BD85B58160DA
:1012400085BDEEE6F0E0808181608083E1E8F0E03A
:101250001082808182608083808181608083E0E869
:10126000F0E0808181608083E1EBF0E08081846048
:101270008083E0EBF0E0808181608083EAE7F0E04A
:1012800080818460808380818260808380818160AE
:1012900080838081806880831092C1000895629F5E
:1012A000D001739FF001829FE00DF11D649FE00D5E
:1012B000F11D929FF00D839FF00D749FF00D659FBF
:1012C000F00D9927729FB00DE11DF91F639FB00DBE
:1012D000E11DF91FBD01CF0111240895991B79E08B
:1012E00004C0991F961708F0961B881F7A95C9F7B6
:1012F0008095089597FB092E07260AD077FD04D024
:1013000049D006D000201AF4709561957F4F08955A
:10131000F6F7909581959F4F0895A1E21A2EAA1B8A
:10132000BB1BFD010DC0AA1FBB1FEE1FFF1FA21795
:10133000B307E407F50720F0A21BB30BE40BF50B92
:10134000661F771F881F991F1A9469F7609570951B
:10135000809590959B01AC01BD01CF01089597FB4D
:10136000092E05260ED057FD04D0D7DF0AD0001C69
:1013700038F450954095309521953F4F4F4F5F4F32
:101380000895F6F790958095709561957F4F8F4FF2
:101390009F4F0895AA1BBB1B51E107C0AA1FBB1F8B
:1013A000A617B70710F0A61BB70B881F991F5A95F1
:1013B000A9F780959095BC01CD010895EE0FFF1F10
:0C13C0000590F491E02D0994F894FFCF03
:1013CC003D3D3D3D3D3D3D3D3D3D3D3D3D506173D4
:1013DC007365640052504D3A200043757272656E0D
:1013EC007420616E676C653A20003F0001000000BC
:0E13FC0000C2056706580589056905B205009F
:00000001FF
